{"abi":[{"type":"constructor","inputs":[],"stateMutability":"nonpayable"},{"type":"function","name":"DOMAIN_SEPARATOR_TYPEHASH","inputs":[],"outputs":[{"name":"","type":"bytes32","internalType":"bytes32"}],"stateMutability":"view"},{"type":"function","name":"TRANSACTION_TYPEHASH","inputs":[],"outputs":[{"name":"","type":"bytes32","internalType":"bytes32"}],"stateMutability":"view"},{"type":"function","name":"UPGRADE_INTERFACE_VERSION","inputs":[],"outputs":[{"name":"","type":"string","internalType":"string"}],"stateMutability":"view"},{"type":"function","name":"acceptOwnership","inputs":[],"outputs":[],"stateMutability":"nonpayable"},{"type":"function","name":"executeProposal","inputs":[{"name":"proposalId_","type":"uint32","internalType":"uint32"},{"name":"transactions_","type":"tuple[]","internalType":"struct Transaction[]","components":[{"name":"to","type":"address","internalType":"address"},{"name":"value","type":"uint256","internalType":"uint256"},{"name":"data","type":"bytes","internalType":"bytes"},{"name":"operation","type":"uint8","internalType":"enum Enum.Operation"}]}],"outputs":[],"stateMutability":"nonpayable"},{"type":"function","name":"executionPeriod","inputs":[],"outputs":[{"name":"","type":"uint32","internalType":"uint32"}],"stateMutability":"view"},{"type":"function","name":"generateTxHashData","inputs":[{"name":"transaction_","type":"tuple","internalType":"struct Transaction","components":[{"name":"to","type":"address","internalType":"address"},{"name":"value","type":"uint256","internalType":"uint256"},{"name":"data","type":"bytes","internalType":"bytes"},{"name":"operation","type":"uint8","internalType":"enum Enum.Operation"}]},{"name":"nonce_","type":"uint256","internalType":"uint256"}],"outputs":[{"name":"","type":"bytes","internalType":"bytes"}],"stateMutability":"view"},{"type":"function","name":"getGuard","inputs":[],"outputs":[{"name":"","type":"address","internalType":"address"}],"stateMutability":"view"},{"type":"function","name":"getProposal","inputs":[{"name":"proposalId_","type":"uint32","internalType":"uint32"}],"outputs":[{"name":"","type":"address","internalType":"address"},{"name":"","type":"bytes32[]","internalType":"bytes32[]"},{"name":"","type":"uint32","internalType":"uint32"},{"name":"","type":"uint32","internalType":"uint32"},{"name":"","type":"uint32","internalType":"uint32"}],"stateMutability":"view"},{"type":"function","name":"getProposalTxHash","inputs":[{"name":"proposalId_","type":"uint32","internalType":"uint32"},{"name":"txIndex_","type":"uint32","internalType":"uint32"}],"outputs":[{"name":"","type":"bytes32","internalType":"bytes32"}],"stateMutability":"view"},{"type":"function","name":"getProposalTxHashes","inputs":[{"name":"proposalId_","type":"uint32","internalType":"uint32"}],"outputs":[{"name":"","type":"bytes32[]","internalType":"bytes32[]"}],"stateMutability":"view"},{"type":"function","name":"getTxHash","inputs":[{"name":"transaction_","type":"tuple","internalType":"struct Transaction","components":[{"name":"to","type":"address","internalType":"address"},{"name":"value","type":"uint256","internalType":"uint256"},{"name":"data","type":"bytes","internalType":"bytes"},{"name":"operation","type":"uint8","internalType":"enum Enum.Operation"}]}],"outputs":[{"name":"","type":"bytes32","internalType":"bytes32"}],"stateMutability":"view"},{"type":"function","name":"guard","inputs":[],"outputs":[{"name":"","type":"address","internalType":"address"}],"stateMutability":"view"},{"type":"function","name":"initialize","inputs":[{"name":"owner_","type":"address","internalType":"address"},{"name":"vault_","type":"address","internalType":"address"},{"name":"target_","type":"address","internalType":"address"},{"name":"strategy_","type":"address","internalType":"address"},{"name":"timelockPeriod_","type":"uint32","internalType":"uint32"},{"name":"executionPeriod_","type":"uint32","internalType":"uint32"}],"outputs":[],"stateMutability":"nonpayable"},{"type":"function","name":"owner","inputs":[],"outputs":[{"name":"","type":"address","internalType":"address"}],"stateMutability":"view"},{"type":"function","name":"pendingOwner","inputs":[],"outputs":[{"name":"","type":"address","internalType":"address"}],"stateMutability":"view"},{"type":"function","name":"proposalState","inputs":[{"name":"proposalId_","type":"uint32","internalType":"uint32"}],"outputs":[{"name":"","type":"uint8","internalType":"enum IGovernor.ProposalState"}],"stateMutability":"view"},{"type":"function","name":"proposals","inputs":[{"name":"proposalId_","type":"uint32","internalType":"uint32"}],"outputs":[{"name":"","type":"tuple","internalType":"struct IGovernor.Proposal","components":[{"name":"executionCounter","type":"uint32","internalType":"uint32"},{"name":"timelockPeriod","type":"uint32","internalType":"uint32"},{"name":"executionPeriod","type":"uint32","internalType":"uint32"},{"name":"strategy","type":"address","internalType":"address"},{"name":"txHashes","type":"bytes32[]","internalType":"bytes32[]"}]}],"stateMutability":"view"},{"type":"function","name":"proxiableUUID","inputs":[],"outputs":[{"name":"","type":"bytes32","internalType":"bytes32"}],"stateMutability":"view"},{"type":"function","name":"renounceOwnership","inputs":[],"outputs":[],"stateMutability":"nonpayable"},{"type":"function","name":"setGuard","inputs":[{"name":"guard_","type":"address","internalType":"address"}],"outputs":[],"stateMutability":"nonpayable"},{"type":"function","name":"setTarget","inputs":[{"name":"target_","type":"address","internalType":"address"}],"outputs":[],"stateMutability":"nonpayable"},{"type":"function","name":"setUp","inputs":[{"name":"initializeParams_","type":"bytes","internalType":"bytes"}],"outputs":[],"stateMutability":"nonpayable"},{"type":"function","name":"setVault","inputs":[{"name":"vault_","type":"address","internalType":"address"}],"outputs":[],"stateMutability":"nonpayable"},{"type":"function","name":"strategy","inputs":[],"outputs":[{"name":"","type":"address","internalType":"address"}],"stateMutability":"view"},{"type":"function","name":"submitProposal","inputs":[{"name":"transactions_","type":"tuple[]","internalType":"struct Transaction[]","components":[{"name":"to","type":"address","internalType":"address"},{"name":"value","type":"uint256","internalType":"uint256"},{"name":"data","type":"bytes","internalType":"bytes"},{"name":"operation","type":"uint8","internalType":"enum Enum.Operation"}]},{"name":"metadata_","type":"string","internalType":"string"},{"name":"proposerAdapter_","type":"address","internalType":"address"},{"name":"proposerAdapterData_","type":"bytes","internalType":"bytes"}],"outputs":[],"stateMutability":"nonpayable"},{"type":"function","name":"supportsInterface","inputs":[{"name":"interfaceId_","type":"bytes4","internalType":"bytes4"}],"outputs":[{"name":"","type":"bool","internalType":"bool"}],"stateMutability":"view"},{"type":"function","name":"target","inputs":[],"outputs":[{"name":"","type":"address","internalType":"address"}],"stateMutability":"view"},{"type":"function","name":"timelockPeriod","inputs":[],"outputs":[{"name":"","type":"uint32","internalType":"uint32"}],"stateMutability":"view"},{"type":"function","name":"totalProposalCount","inputs":[],"outputs":[{"name":"","type":"uint32","internalType":"uint32"}],"stateMutability":"view"},{"type":"function","name":"transferOwnership","inputs":[{"name":"newOwner_","type":"address","internalType":"address"}],"outputs":[],"stateMutability":"nonpayable"},{"type":"function","name":"updateExecutionPeriod","inputs":[{"name":"executionPeriod_","type":"uint32","internalType":"uint32"}],"outputs":[],"stateMutability":"nonpayable"},{"type":"function","name":"updateStrategy","inputs":[{"name":"strategy_","type":"address","internalType":"address"}],"outputs":[],"stateMutability":"nonpayable"},{"type":"function","name":"updateTimelockPeriod","inputs":[{"name":"timelockPeriod_","type":"uint32","internalType":"uint32"}],"outputs":[],"stateMutability":"nonpayable"},{"type":"function","name":"upgradeToAndCall","inputs":[{"name":"newImplementation","type":"address","internalType":"address"},{"name":"data","type":"bytes","internalType":"bytes"}],"outputs":[],"stateMutability":"payable"},{"type":"function","name":"vault","inputs":[],"outputs":[{"name":"","type":"address","internalType":"address"}],"stateMutability":"view"},{"type":"event","name":"ExecutionPeriodUpdated","inputs":[{"name":"executionPeriod","type":"uint32","indexed":false,"internalType":"uint32"}],"anonymous":false},{"type":"event","name":"GuardSet","inputs":[{"name":"guard","type":"address","indexed":true,"internalType":"address"}],"anonymous":false},{"type":"event","name":"Initialized","inputs":[{"name":"version","type":"uint64","indexed":false,"internalType":"uint64"}],"anonymous":false},{"type":"event","name":"OwnershipTransferStarted","inputs":[{"name":"previousOwner","type":"address","indexed":true,"internalType":"address"},{"name":"newOwner","type":"address","indexed":true,"internalType":"address"}],"anonymous":false},{"type":"event","name":"OwnershipTransferred","inputs":[{"name":"previousOwner","type":"address","indexed":true,"internalType":"address"},{"name":"newOwner","type":"address","indexed":true,"internalType":"address"}],"anonymous":false},{"type":"event","name":"ProposalCreated","inputs":[{"name":"strategy","type":"address","indexed":false,"internalType":"address"},{"name":"proposalId","type":"uint32","indexed":false,"internalType":"uint32"},{"name":"proposer","type":"address","indexed":false,"internalType":"address"},{"name":"transactions","type":"tuple[]","indexed":false,"internalType":"struct Transaction[]","components":[{"name":"to","type":"address","internalType":"address"},{"name":"value","type":"uint256","internalType":"uint256"},{"name":"data","type":"bytes","internalType":"bytes"},{"name":"operation","type":"uint8","internalType":"enum Enum.Operation"}]},{"name":"metadata","type":"string","indexed":false,"internalType":"string"}],"anonymous":false},{"type":"event","name":"ProposalExecuted","inputs":[{"name":"proposalId","type":"uint32","indexed":false,"internalType":"uint32"},{"name":"txHashes","type":"bytes32[]","indexed":false,"internalType":"bytes32[]"}],"anonymous":false},{"type":"event","name":"StrategyUpdated","inputs":[{"name":"strategy","type":"address","indexed":false,"internalType":"address"}],"anonymous":false},{"type":"event","name":"TargetSet","inputs":[{"name":"previousTarget","type":"address","indexed":true,"internalType":"address"},{"name":"newTarget","type":"address","indexed":true,"internalType":"address"}],"anonymous":false},{"type":"event","name":"TimelockPeriodUpdated","inputs":[{"name":"timelockPeriod","type":"uint32","indexed":false,"internalType":"uint32"}],"anonymous":false},{"type":"event","name":"Upgraded","inputs":[{"name":"implementation","type":"address","indexed":true,"internalType":"address"}],"anonymous":false},{"type":"event","name":"VaultSet","inputs":[{"name":"previousVault","type":"address","indexed":true,"internalType":"address"},{"name":"newVault","type":"address","indexed":true,"internalType":"address"}],"anonymous":false},{"type":"error","name":"AddressEmptyCode","inputs":[{"name":"target","type":"address","internalType":"address"}]},{"type":"error","name":"ControllerTransactionFailed","inputs":[]},{"type":"error","name":"ERC1967InvalidImplementation","inputs":[{"name":"implementation","type":"address","internalType":"address"}]},{"type":"error","name":"ERC1967NonPayable","inputs":[]},{"type":"error","name":"FailedCall","inputs":[]},{"type":"error","name":"GuardRejected","inputs":[]},{"type":"error","name":"InvalidInitialization","inputs":[]},{"type":"error","name":"InvalidProposal","inputs":[]},{"type":"error","name":"InvalidProposer","inputs":[]},{"type":"error","name":"InvalidStrategy","inputs":[]},{"type":"error","name":"InvalidTxHash","inputs":[]},{"type":"error","name":"InvalidTxs","inputs":[]},{"type":"error","name":"NotInitializing","inputs":[]},{"type":"error","name":"OwnableInvalidOwner","inputs":[{"name":"owner","type":"address","internalType":"address"}]},{"type":"error","name":"OwnableUnauthorizedAccount","inputs":[{"name":"account","type":"address","internalType":"address"}]},{"type":"error","name":"ProposalNotExecutable","inputs":[]},{"type":"error","name":"TxFailed","inputs":[]},{"type":"error","name":"UUPSUnauthorizedCallContext","inputs":[]},{"type":"error","name":"UUPSUnsupportedProxiableUUID","inputs":[{"name":"slot","type":"bytes32","internalType":"bytes32"}]}],"bytecode":{"object":"0x60a060405230608052348015610013575f5ffd5b5061001c610021565b6100d3565b7ff0c57e16840df040f15088dc2f81fe391c3923bec73e23a9662efc9c229c6a00805468010000000000000000900460ff16156100715760405163f92ee8a960e01b815260040160405180910390fd5b80546001600160401b03908116146100d05780546001600160401b0319166001600160401b0390811782556040519081527fc7f505b2f371ae2175ee4913f4499e1f2633a7b5936321eed1cdaeb6115181d29060200160405180910390a15b50565b608051612ed16100f95f395f81816118e40152818161190d0152611a510152612ed15ff3fe608060405260043610610207575f3560e01c8063a4f9edbf11610113578063d9cdcdbb1161009d578063e30c39781161006d578063e30c397814610697578063ead0eedf146106ab578063f2fde38b146106d1578063fa672f0e146106f0578063fbfa77cf1461070f575f5ffd5b8063d9cdcdbb1461061b578063daccaf631461063a578063dcac459514610659578063e19a9dd914610678575f5ffd5b8063c3da509b116100e3578063c3da509b14610574578063c910638914610593578063d040223a146105b0578063d11d0d58146105cf578063d4b83992146105fc575f5ffd5b8063a4f9edbf146104b0578063a8c62e76146104cf578063ad3cb1cc1461050b578063b4c3c14514610548575f5ffd5b80637079b4661161019457806379ba50971161016457806379ba5097146103ff5780637ceab3b11461041357806388633b7b1461044a5780638da5cb5b1461047d5780639e4d46d114610491575f5ffd5b80637079b46614610381578063715018a6146103a0578063776d1a01146103b457806377c79fa2146103d3575f5ffd5b80632ecaf675116101da5780632ecaf675146102dc5780634f1ef2861461031a57806352d1902d1461032f5780636817031b146103435780636855425a14610362575f5ffd5b806301ffc9a71461020b578063114f00ab1461023f5780631db61b541461026f5780632a4910ab146102b0575b5f5ffd5b348015610216575f5ffd5b5061022a61022536600461231e565b61072d565b60405190151581526020015b60405180910390f35b34801561024a575f5ffd5b5061025e610259366004612356565b610763565b6040516102369594939291906123ab565b34801561027a575f5ffd5b506102a27f47e79534a245952e8b16893a336b85a3d9ea9fa8c573f3d803afb92a7946921881565b604051908152602001610236565b3480156102bb575f5ffd5b506102cf6102ca366004612356565b610858565b60405161023691906123f5565b3480156102e7575f5ffd5b505f516020612e3c5f395f51905f5254600160201b900463ffffffff165b60405163ffffffff9091168152602001610236565b61032d61032836600461253c565b61094f565b005b34801561033a575f5ffd5b506102a261096e565b34801561034e575f5ffd5b5061032d61035d366004612588565b610989565b34801561036d575f5ffd5b5061032d61037c3660046125a3565b610a0a565b34801561038c575f5ffd5b506102a261039b366004612621565b610bcb565b3480156103ab575f5ffd5b5061032d610c26565b3480156103bf575f5ffd5b5061032d6103ce366004612588565b610c39565b3480156103de575f5ffd5b506103f26103ed366004612356565b610cb3565b6040516102369190612658565b34801561040a575f5ffd5b5061032d610d3b565b34801561041e575f5ffd5b50600254610432906001600160a01b031681565b6040516001600160a01b039091168152602001610236565b348015610455575f5ffd5b506102a27f72e9670a7ee00f5fbf1049b8c38e3f22fab7e9b85029e85cf9412f17fdd5c2ad81565b348015610488575f5ffd5b50610432610d83565b34801561049c575f5ffd5b5061032d6104ab366004612356565b610db7565b3480156104bb575f5ffd5b5061032d6104ca36600461266a565b610dc8565b3480156104da575f5ffd5b507fb4c8b1c40e0c0c5e0e0e0e0e0e0e0e0e0e0e0e0e0e0e0e0e0e0e0e0e0e0e0102546001600160a01b0316610432565b348015610516575f5ffd5b5061053b604051806040016040528060058152602001640352e302e360dc1b81525081565b60405161023691906126c9565b348015610553575f5ffd5b50610567610562366004612356565b610f05565b60405161023691906126ef565b34801561057f575f5ffd5b5061032d61058e366004612750565b61119d565b34801561059e575f5ffd5b506002546001600160a01b0316610432565b3480156105bb575f5ffd5b5061032d6105ca3660046127dd565b6113aa565b3480156105da575f5ffd5b505f516020612e3c5f395f51905f5254600160401b900463ffffffff16610305565b348015610607575f5ffd5b50600154610432906001600160a01b031681565b348015610626575f5ffd5b5061053b6106353660046128a1565b6116bc565b348015610645575f5ffd5b5061032d610654366004612588565b6117f3565b348015610664575f5ffd5b5061032d610673366004612356565b611804565b348015610683575f5ffd5b5061032d610692366004612588565b611815565b3480156106a2575f5ffd5b50610432611887565b3480156106b6575f5ffd5b505f516020612e3c5f395f51905f525463ffffffff16610305565b3480156106dc575f5ffd5b5061032d6106eb366004612588565b6118af565b3480156106fb575f5ffd5b506102a261070a3660046128e2565b6118c0565b34801561071a575f5ffd5b505f54610432906001600160a01b031681565b5f6001600160e01b03198216633d7cafdb60e21b148061075d57506301ffc9a760e01b6001600160e01b03198316145b92915050565b5f6060818080805f516020612e3c5f395f51905f5263ffffffff8881165f908152600183810160209081526040808420815160a08101835281548088168252600160201b8104881682860152600160401b810490971681840152600160601b9096046001600160a01b031660608701529283018054825181850281018501909352808352969750939592936080860193919290919083018282801561082557602002820191905f5260205f20905b815481526020019060010190808311610811575b5050509190925250505060608101516080820151602083015160408401519351929c919b50995091975095509350505050565b6040805160a080820183525f80835260208084018290528385018290526060808501839052608080860182905263ffffffff88811685525f516020612e7c5f395f51905f528452938790208751958601885280548086168752600160201b8104861687860152600160401b810490951686890152600160601b9094046001600160a01b03169185019190915260018301805487518185028101850190985280885295965f516020612e3c5f395f51905f52969286019390929083018282801561093e57602002820191905f5260205f20905b81548152602001906001019080831161092a575b505050505081525050915050919050565b6109576118d9565b6109608261197d565b61096a8282611985565b5050565b5f610977611a46565b505f516020612e5c5f395f51905f5290565b5f546001600160a01b031633146109bb5760405162461bcd60e51b81526004016109b290612913565b60405180910390fd5b5f80546001600160a01b038381166001600160a01b0319831681178455604051919092169283917f8800deb8c31293b539eaf5391fcc88280dc58f015c043d65dd5b72a0979a1dd19190a35050565b7ff0c57e16840df040f15088dc2f81fe391c3923bec73e23a9662efc9c229c6a008054600160401b810460ff1615906001600160401b03165f81158015610a4e5750825b90505f826001600160401b03166001148015610a695750303b155b905081158015610a77575080155b15610a955760405163f92ee8a960e01b815260040160405180910390fd5b845467ffffffffffffffff191660011785558315610abf57845460ff60401b1916600160401b1785555b610ac7611a8f565b610ad08b611a97565b5f80546001600160a01b03199081166001600160a01b038d8116918217845560018054909316908d16179091556040519091907f8800deb8c31293b539eaf5391fcc88280dc58f015c043d65dd5b72a0979a1dd1908290a36040516001600160a01b038a16905f907f90cc2f570a6eb594b1580ea3e41247d2d73a55281889e86bd4ec2fc29c7e62d6908290a3610b6688611aa8565b610b6f87611b53565b610b7886611bb3565b8315610bbe57845460ff60401b19168555604051600181527fc7f505b2f371ae2175ee4913f4499e1f2633a7b5936321eed1cdaeb6115181d29060200160405180910390a15b5050505050505050505050565b63ffffffff8083165f9081525f516020612e7c5f395f51905f5260205260408120600101805491925f516020612e3c5f395f51905f5292908516908110610c1457610c14612956565b905f5260205f20015491505092915050565b610c2e611c12565b610c375f611c44565b565b5f546001600160a01b03163314610c625760405162461bcd60e51b81526004016109b290612913565b600180546001600160a01b038381166001600160a01b0319831681179093556040519116919082907f90cc2f570a6eb594b1580ea3e41247d2d73a55281889e86bd4ec2fc29c7e62d6905f90a35050565b63ffffffff81165f9081525f516020612e7c5f395f51905f52602090815260409182902060010180548351818402810184019094528084526060935f516020612e3c5f395f51905f529390929190830182828015610d2e57602002820191905f5260205f20905b815481526020019060010190808311610d1a575b5050505050915050919050565b3380610d45611887565b6001600160a01b031614610d775760405163118cdaa760e01b81526001600160a01b03821660048201526024016109b2565b610d8081611c44565b50565b5f807f9016d09d72d40fdae2fd8ceac6b6234c7706214fd39c1cd1e609a0528c1993005b546001600160a01b031692915050565b610dbf611c12565b610d8081611b53565b7ff0c57e16840df040f15088dc2f81fe391c3923bec73e23a9662efc9c229c6a008054600160401b810460ff1615906001600160401b03165f81158015610e0c5750825b90505f826001600160401b03166001148015610e275750303b155b905081158015610e35575080155b15610e535760405163f92ee8a960e01b815260040160405180910390fd5b845467ffffffffffffffff191660011785558315610e7d57845460ff60401b1916600160401b1785555b5f5f5f5f5f5f8b806020019051810190610e97919061296a565b955095509550955095509550610eb1868686868686610a0a565b5050505050508315610efd57845460ff60401b19168555604051600181527fc7f505b2f371ae2175ee4913f4499e1f2633a7b5936321eed1cdaeb6115181d29060200160405180910390a15b505050505050565b5f516020612e3c5f395f51905f5280545f919063ffffffff90811690841610610f4157604051631dc0650160e31b815260040160405180910390fd5b63ffffffff8381165f908152600183810160209081526040808420815160a08101835281548088168252600160201b8104881682860152600160401b810490971681840152600160601b9096046001600160a01b0316606087015292830180548251818502810185019093528083529495946080860193830182828015610fe557602002820191905f5260205f20905b815481526020019060010190808311610fd1575b505050919092525050506060810151604051630f758b4f60e31b815263ffffffff87166004820152919250905f906001600160a01b03831690637bac5a78906024016040805180830381865afa158015611041573d5f5f3e3d5ffd5b505050506040513d601f19601f8201168201806040525081019061106591906129f9565b9150508065ffffffffffff16421161108257505f95945050505050565b60405163029d459960e51b815263ffffffff871660048201526001600160a01b038316906353a8b32090602401602060405180830381865afa1580156110ca573d5f5f3e3d5ffd5b505050506040513d601f19601f820116820180604052508101906110ee9190612a2a565b6110fe5750600595945050505050565b608083015151835163ffffffff160361111d5750600395945050505050565b60208301516111329063ffffffff1682612a5d565b65ffffffffffff16421161114c5750600195945050505050565b826040015163ffffffff16836020015163ffffffff168261116d9190612a5d565b6111779190612a5d565b65ffffffffffff1642116111915750600295945050505050565b50600495945050505050565b5f8190036111be57604051637e706b9360e01b815260040160405180910390fd5b63ffffffff8381165f9081525f516020612e7c5f395f51905f5260209081526040808320815160a08101835281548087168252600160201b8104871682860152600160401b810490961681840152600160601b9095046001600160a01b031660608601526001810180548351818602810186019094528084525f516020612e3c5f395f51905f529694929360808601939092919083018282801561127f57602002820191905f5260205f20905b81548152602001906001019080831161126b575b505050919092525050506080810151518151919250906112a690859063ffffffff16612a7b565b11156112c557604051637e706b9360e01b815260040160405180910390fd5b825f816001600160401b038111156112df576112df61249f565b604051908082528060200260200182016040528015611308578160200160208202803683370190505b5090505f5b82811015611367576113428888888481811061132b5761132b612956565b905060200281019061133d9190612a8e565b611c4d565b82828151811061135457611354612956565b602090810291909101015260010161130d565b507ff5fc56659e0b6c903005a71d52094697092f176b254fa07acf65b99c702416e58782604051611399929190612aac565b60405180910390a150505050505050565b7fb4c8b1c40e0c0c5e0e0e0e0e0e0e0e0e0e0e0e0e0e0e0e0e0e0e0e0e0e0e010254604051637d90ff2760e11b81525f516020612e3c5f395f51905f52916001600160a01b03169063fb21fe4e9061140c903390889088908890600401612af2565b602060405180830381865afa158015611427573d5f5f3e3d5ffd5b505050506040513d601f19601f8201168201806040525081019061144b9190612a2a565b61146857604051634100ac0360e01b815260040160405180910390fd5b5f876001600160401b038111156114815761148161249f565b6040519080825280602002602001820160405280156114aa578160200160208202803683370190505b509050875f5b81811015611504576114df8b8b838181106114cd576114cd612956565b905060200281019061070a9190612a8e565b8382815181106114f1576114f1612956565b60209081029190910101526001016114b0565b50825463ffffffff165f908152600180850160209081526040909220600286015481546bffffffffffffffffffffffff166001600160a01b03909116600160601b021781558451909261155d92840191908601906122c1565b508354815463ffffffff600160201b92839004811690920267ffffffff00000000198216811784558654600160401b9081900484160263ffffffff60401b199091166bffffffffffffffff00000000199092169190911717825560028501548554604051631d90e1f960e11b8152921660048301526001600160a01b031690633b21c3f2906024015f604051808303815f87803b1580156115fc575f5ffd5b505af115801561160e573d5f5f3e3d5ffd5b505050507f68ac79346f212e13aa21d9ca7b1cca8ecf9f12b37eba2089037aad97847f2409846002015f9054906101000a90046001600160a01b0316855f015f9054906101000a900463ffffffff16338e8e8e8e6040516116759796959493929190612b4a565b60405180910390a1835463ffffffff16845f61169083612c84565b91906101000a81548163ffffffff021916908363ffffffff160217905550505050505050505050505050565b604080517f47e79534a245952e8b16893a336b85a3d9ea9fa8c573f3d803afb92a794692186020820152469181018290523060608281019190915291905f9060800160408051601f19818403018152919052805160209182012091505f907f72e9670a7ee00f5fbf1049b8c38e3f22fab7e9b85029e85cf9412f17fdd5c2ad9061174890880188612588565b602088013561175a60408a018a612ca8565b604051611768929190612cea565b60405190819003902061178160808b0160608c01612cf9565b8960405160200161179796959493929190612d12565b60408051808303601f19018152908290528051602091820120601960f81b91830191909152600160f81b602183015260228201849052604282018190529150606201604051602081830303815290604052935050505092915050565b6117fb611c12565b610d8081611aa8565b61180c611c12565b610d8081611bb3565b5f546001600160a01b0316331461183e5760405162461bcd60e51b81526004016109b290612913565b600280546001600160a01b0319166001600160a01b0383169081179091556040517f0b35c8d8a01faf4dfe1389b808ff376826039194d613f5976009cf4a23eba201905f90a250565b5f807f237e158222e3e6968b72b9db0d8043aacf074ad9f650f0d1606b4d82ee432c00610da7565b6118b7611c12565b610d8081611dd3565b5f6118cb825f6116bc565b805190602001209050919050565b306001600160a01b037f000000000000000000000000000000000000000000000000000000000000000016148061195f57507f00000000000000000000000000000000000000000000000000000000000000006001600160a01b03166119535f516020612e5c5f395f51905f52546001600160a01b031690565b6001600160a01b031614155b15610c375760405163703e46dd60e11b815260040160405180910390fd5b610d80611c12565b816001600160a01b03166352d1902d6040518163ffffffff1660e01b8152600401602060405180830381865afa9250505080156119df575060408051601f3d908101601f191682019092526119dc91810190612d54565b60015b611a0757604051634c9c8ce360e01b81526001600160a01b03831660048201526024016109b2565b5f516020612e5c5f395f51905f528114611a3757604051632a87526960e21b8152600481018290526024016109b2565b611a418383611e58565b505050565b306001600160a01b037f00000000000000000000000000000000000000000000000000000000000000001614610c375760405163703e46dd60e11b815260040160405180910390fd5b610c37611ead565b611a9f611ead565b610d8081611ef6565b6001600160a01b038116611acf57604051632711b74d60e11b815260040160405180910390fd5b7fb4c8b1c40e0c0c5e0e0e0e0e0e0e0e0e0e0e0e0e0e0e0e0e0e0e0e0e0e0e010280546001600160a01b0319166001600160a01b0383169081179091556040519081525f516020612e3c5f395f51905f52907f4da9c22c924692646a21cf1f423781ae3285198dc22e8a6912835d3272b90b3c906020015b60405180910390a15050565b5f516020612e3c5f395f51905f52805467ffffffff000000001916600160201b63ffffffff84169081029190911782556040519081527fd77111479e78432e5a7ffc7e7e62e2e8396f86c2bf010dacc17c30ee9106eb4c90602001611b47565b5f516020612e3c5f395f51905f52805463ffffffff60401b1916600160401b63ffffffff84169081029190911782556040519081527fdd32d105a69c09ad9be1f41189460750cc26fb733a7da8f5cb47499c6a37799990602001611b47565b33611c1b610d83565b6001600160a01b031614610c375760405163118cdaa760e01b81523360048201526024016109b2565b610d8081611f27565b5f6002611c5984610f05565b6005811115611c6a57611c6a6126db565b14611c8857604051633c7e994560e11b815260040160405180910390fd5b5f611c92836118c0565b63ffffffff8581165f9081525f516020612e7c5f395f51905f526020526040902080546001820180549495505f516020612e3c5f395f51905f529492938693919216908110611ce357611ce3612956565b905f5260205f20015414611d0a576040516319cb4eb360e31b815260040160405180910390fd5b805463ffffffff16815f611d1d83612c84565b91906101000a81548163ffffffff021916908363ffffffff16021790555050611dac855f016020810190611d519190612588565b6020870135611d636040890189612ca8565b8080601f0160208091040260200160405190810160405280939291908181526020018383808284375f92019190915250611da79250505060808a0160608b01612cf9565b611f5f565b611dc957604051632b96f51360e01b815260040160405180910390fd5b5090949350505050565b611ddb611c12565b7f237e158222e3e6968b72b9db0d8043aacf074ad9f650f0d1606b4d82ee432c0080546001600160a01b0319166001600160a01b0383169081178255611e1f610d83565b6001600160a01b03167f38d16b8cac22d99fc7c124b9cd0de2d3fa1faef420bfe791d8c362d765e2270060405160405180910390a35050565b611e61826120d5565b6040516001600160a01b038316907fbc7cd75a20ee27fd9adebab32041f755214dbc6bffa90cc0225b39da2e5c2d3b905f90a2805115611ea557611a418282612138565b61096a6121aa565b7ff0c57e16840df040f15088dc2f81fe391c3923bec73e23a9662efc9c229c6a0054600160401b900460ff16610c3757604051631afcd79f60e31b815260040160405180910390fd5b611efe611ead565b6001600160a01b038116610d7757604051631e4fbdf760e01b81525f60048201526024016109b2565b7f237e158222e3e6968b72b9db0d8043aacf074ad9f650f0d1606b4d82ee432c0080546001600160a01b031916815561096a826121c9565b6002545f906001600160a01b031615611fe257600254604051633af85da960e11b81526001600160a01b03909116906375f0bb5290611fb49088908890889088905f9081908190819081903390600401612d6b565b5f604051808303815f87803b158015611fcb575f5ffd5b505af1158015611fdd573d5f5f3e3d5ffd5b505050505b60015460405163468721a760e01b81526001600160a01b039091169063468721a790612018908890889088908890600401612df0565b6020604051808303815f875af1158015612034573d5f5f3e3d5ffd5b505050506040513d601f19601f820116820180604052508101906120589190612a2a565b6002549091506001600160a01b0316156120cd57600254604051631264e26d60e31b81525f600482015282151560248201526001600160a01b03909116906393271368906044015f604051808303815f87803b1580156120b6575f5ffd5b505af11580156120c8573d5f5f3e3d5ffd5b505050505b949350505050565b806001600160a01b03163b5f0361210a57604051634c9c8ce360e01b81526001600160a01b03821660048201526024016109b2565b5f516020612e5c5f395f51905f5280546001600160a01b0319166001600160a01b0392909216919091179055565b60605f5f846001600160a01b0316846040516121549190612e25565b5f60405180830381855af49150503d805f811461218c576040519150601f19603f3d011682016040523d82523d5f602084013e612191565b606091505b50915091506121a1858383612239565b95945050505050565b3415610c375760405163b398979f60e01b815260040160405180910390fd5b7f9016d09d72d40fdae2fd8ceac6b6234c7706214fd39c1cd1e609a0528c19930080546001600160a01b031981166001600160a01b03848116918217845560405192169182907f8be0079c531659141344cd1fd0a4f28419497f9722a3daafe3b4186f6b6457e0905f90a3505050565b60608261224e5761224982612298565b612291565b815115801561226557506001600160a01b0384163b155b1561228e57604051639996b31560e01b81526001600160a01b03851660048201526024016109b2565b50805b9392505050565b8051156122a85780518082602001fd5b60405163d6bda27560e01b815260040160405180910390fd5b828054828255905f5260205f209081019282156122fa579160200282015b828111156122fa5782518255916020019190600101906122df565b5061230692915061230a565b5090565b5b80821115612306575f815560010161230b565b5f6020828403121561232e575f5ffd5b81356001600160e01b031981168114612291575f5ffd5b63ffffffff81168114610d80575f5ffd5b5f60208284031215612366575f5ffd5b813561229181612345565b5f8151808452602084019350602083015f5b828110156123a1578151865260209586019590910190600101612383565b5093949350505050565b6001600160a01b038616815260a0602082018190525f906123ce90830187612371565b63ffffffff9586166040840152938516606083015250921660809092019190915292915050565b602081525f60c0820163ffffffff845116602084015263ffffffff602085015116604084015263ffffffff604085015116606084015260018060a01b036060850151166080840152608084015160a08085015281815180845260e0860191506020830193505f92505b80831015612481578351825260208201915060208401935060018301925061245e565b5095945050505050565b6001600160a01b0381168114610d80575f5ffd5b634e487b7160e01b5f52604160045260245ffd5b5f82601f8301126124c2575f5ffd5b81356001600160401b038111156124db576124db61249f565b604051601f8201601f19908116603f011681016001600160401b03811182821017156125095761250961249f565b604052818152838201602001851015612520575f5ffd5b816020850160208301375f918101602001919091529392505050565b5f5f6040838503121561254d575f5ffd5b82356125588161248b565b915060208301356001600160401b03811115612572575f5ffd5b61257e858286016124b3565b9150509250929050565b5f60208284031215612598575f5ffd5b81356122918161248b565b5f5f5f5f5f5f60c087890312156125b8575f5ffd5b86356125c38161248b565b955060208701356125d38161248b565b945060408701356125e38161248b565b935060608701356125f38161248b565b9250608087013561260381612345565b915060a087013561261381612345565b809150509295509295509295565b5f5f60408385031215612632575f5ffd5b823561263d81612345565b9150602083013561264d81612345565b809150509250929050565b602081525f6122916020830184612371565b5f6020828403121561267a575f5ffd5b81356001600160401b0381111561268f575f5ffd5b6120cd848285016124b3565b5f81518084528060208401602086015e5f602082860101526020601f19601f83011685010191505092915050565b602081525f612291602083018461269b565b634e487b7160e01b5f52602160045260245ffd5b6020810160068310612703576127036126db565b91905290565b5f5f83601f840112612719575f5ffd5b5081356001600160401b0381111561272f575f5ffd5b6020830191508360208260051b8501011115612749575f5ffd5b9250929050565b5f5f5f60408486031215612762575f5ffd5b833561276d81612345565b925060208401356001600160401b03811115612787575f5ffd5b61279386828701612709565b9497909650939450505050565b5f5f83601f8401126127b0575f5ffd5b5081356001600160401b038111156127c6575f5ffd5b602083019150836020828501011115612749575f5ffd5b5f5f5f5f5f5f5f6080888a0312156127f3575f5ffd5b87356001600160401b03811115612808575f5ffd5b6128148a828b01612709565b90985096505060208801356001600160401b03811115612832575f5ffd5b61283e8a828b016127a0565b90965094505060408801356128528161248b565b925060608801356001600160401b0381111561286c575f5ffd5b6128788a828b016127a0565b989b979a50959850939692959293505050565b5f6080828403121561289b575f5ffd5b50919050565b5f5f604083850312156128b2575f5ffd5b82356001600160401b038111156128c7575f5ffd5b6128d38582860161288b565b95602094909401359450505050565b5f602082840312156128f2575f5ffd5b81356001600160401b03811115612907575f5ffd5b6120cd8482850161288b565b60208082526023908201527f436f6e74726f6c6c65723a2063616c6c6572206973206e6f74207468652076616040820152621d5b1d60ea1b606082015260800190565b634e487b7160e01b5f52603260045260245ffd5b5f5f5f5f5f5f60c0878903121561297f575f5ffd5b865161298a8161248b565b602088015190965061299b8161248b565b60408801519095506129ac8161248b565b60608801519094506129bd8161248b565b60808801519093506129ce81612345565b60a088015190925061261381612345565b805165ffffffffffff811681146129f4575f5ffd5b919050565b5f5f60408385031215612a0a575f5ffd5b612a13836129df565b9150612a21602084016129df565b90509250929050565b5f60208284031215612a3a575f5ffd5b81518015158114612291575f5ffd5b634e487b7160e01b5f52601160045260245ffd5b65ffffffffffff818116838216019081111561075d5761075d612a49565b8082018082111561075d5761075d612a49565b5f8235607e19833603018112612aa2575f5ffd5b9190910192915050565b63ffffffff83168152604060208201525f6120cd6040830184612371565b81835281816020850137505f828201602090810191909152601f909101601f19169091010190565b6001600160a01b038581168252841660208201526060604082018190525f90612b1e9083018486612aca565b9695505050505050565b8035600281106129f4575f5ffd5b60028110612b4657612b466126db565b9052565b6001600160a01b03888116825263ffffffff881660208301528616604082015260a06060820181905281018490525f60c0600586901b830181019083018783607e1936839003015b89821015612c5f5786850360bf190184528235818112612bb0575f5ffd5b8b018035612bbd8161248b565b6001600160a01b0316865260208181013590870152604081013536829003601e19018112612be9575f5ffd5b81016020810190356001600160401b03811115612c04575f5ffd5b803603821315612c12575f5ffd5b60806040890152612c27608089018284612aca565b915050612c3660608301612b28565b9150612c456060880183612b36565b955050602093840193929092019160019190910190612b92565b505050508281036080840152612c76818587612aca565b9a9950505050505050505050565b5f63ffffffff821663ffffffff8103612c9f57612c9f612a49565b60010192915050565b5f5f8335601e19843603018112612cbd575f5ffd5b8301803591506001600160401b03821115612cd6575f5ffd5b602001915036819003821315612749575f5ffd5b818382375f9101908152919050565b5f60208284031215612d09575f5ffd5b61229182612b28565b8681526001600160a01b0386166020820152604081018590526060810184905260c08101612d436080830185612b36565b8260a0830152979650505050505050565b5f60208284031215612d64575f5ffd5b5051919050565b60018060a01b038b16815289602082015261016060408201525f612d9361016083018b61269b565b612da0606084018b612b36565b60808301989098525060a081019590955260c08501939093526001600160a01b0391821660e085015281166101008401528284036101208401525f84521661014090910152602001949350505050565b60018060a01b0385168152836020820152608060408201525f612e16608083018561269b565b90506121a16060830184612b36565b5f82518060208501845e5f92019182525091905056feb4c8b1c40e0c0c5e0e0e0e0e0e0e0e0e0e0e0e0e0e0e0e0e0e0e0e0e0e0e0100360894a13ba1a3210667c828492db98dca3e2076cc3735a920a3ca505d382bbcb4c8b1c40e0c0c5e0e0e0e0e0e0e0e0e0e0e0e0e0e0e0e0e0e0e0e0e0e0e0101a2646970667358221220ab5f58ba58c4e950437ec895126f667116f726420bf537ac1be8f1c00cfc47fa64736f6c634300081f0033","linkReferences":{}},"methodIdentifiers":{"DOMAIN_SEPARATOR_TYPEHASH()":"1db61b54","TRANSACTION_TYPEHASH()":"88633b7b","UPGRADE_INTERFACE_VERSION()":"ad3cb1cc","acceptOwnership()":"79ba5097","executeProposal(uint32,(address,uint256,bytes,uint8)[])":"c3da509b","executionPeriod()":"d11d0d58","generateTxHashData((address,uint256,bytes,uint8),uint256)":"d9cdcdbb","getGuard()":"c9106389","getProposal(uint32)":"114f00ab","getProposalTxHash(uint32,uint32)":"7079b466","getProposalTxHashes(uint32)":"77c79fa2","getTxHash((address,uint256,bytes,uint8))":"fa672f0e","guard()":"7ceab3b1","initialize(address,address,address,address,uint32,uint32)":"6855425a","owner()":"8da5cb5b","pendingOwner()":"e30c3978","proposalState(uint32)":"b4c3c145","proposals(uint32)":"2a4910ab","proxiableUUID()":"52d1902d","renounceOwnership()":"715018a6","setGuard(address)":"e19a9dd9","setTarget(address)":"776d1a01","setUp(bytes)":"a4f9edbf","setVault(address)":"6817031b","strategy()":"a8c62e76","submitProposal((address,uint256,bytes,uint8)[],string,address,bytes)":"d040223a","supportsInterface(bytes4)":"01ffc9a7","target()":"d4b83992","timelockPeriod()":"2ecaf675","totalProposalCount()":"ead0eedf","transferOwnership(address)":"f2fde38b","updateExecutionPeriod(uint32)":"dcac4595","updateStrategy(address)":"daccaf63","updateTimelockPeriod(uint32)":"9e4d46d1","upgradeToAndCall(address,bytes)":"4f1ef286","vault()":"fbfa77cf"},"id":21}