{"abi":[{"type":"constructor","inputs":[],"stateMutability":"nonpayable"},{"type":"function","name":"hasVoted","inputs":[{"name":"proposalId","type":"uint256","internalType":"uint256"},{"name":"voter","type":"address","internalType":"address"},{"name":"voteData","type":"bytes","internalType":"bytes"}],"outputs":[{"name":"","type":"bool","internalType":"bool"}],"stateMutability":"view"},{"type":"function","name":"initialize","inputs":[{"name":"authorizedCallers_","type":"address[]","internalType":"address[]"}],"outputs":[],"stateMutability":"nonpayable"},{"type":"function","name":"isAuthorizedCaller","inputs":[{"name":"caller","type":"address","internalType":"address"}],"outputs":[{"name":"","type":"bool","internalType":"bool"}],"stateMutability":"view"},{"type":"function","name":"recordVote","inputs":[{"name":"proposalId","type":"uint256","internalType":"uint256"},{"name":"voter","type":"address","internalType":"address"},{"name":"voteData","type":"bytes","internalType":"bytes"}],"outputs":[],"stateMutability":"nonpayable"},{"type":"function","name":"supportsInterface","inputs":[{"name":"interfaceId","type":"bytes4","internalType":"bytes4"}],"outputs":[{"name":"","type":"bool","internalType":"bool"}],"stateMutability":"view"},{"type":"event","name":"Initialized","inputs":[{"name":"version","type":"uint64","indexed":false,"internalType":"uint64"}],"anonymous":false},{"type":"error","name":"AlreadyVoted","inputs":[{"name":"contextId","type":"uint256","internalType":"uint256"},{"name":"voter","type":"address","internalType":"address"},{"name":"voteData","type":"bytes","internalType":"bytes"}]},{"type":"error","name":"InvalidInitialization","inputs":[]},{"type":"error","name":"NotInitializing","inputs":[]},{"type":"error","name":"UnauthorizedCaller","inputs":[{"name":"caller","type":"address","internalType":"address"}]}],"bytecode":{"object":"0x6080604052348015600e575f5ffd5b5060156019565b60c9565b7ff0c57e16840df040f15088dc2f81fe391c3923bec73e23a9662efc9c229c6a00805468010000000000000000900460ff161560685760405163f92ee8a960e01b815260040160405180910390fd5b80546001600160401b039081161460c65780546001600160401b0319166001600160401b0390811782556040519081527fc7f505b2f371ae2175ee4913f4499e1f2633a7b5936321eed1cdaeb6115181d29060200160405180910390a15b50565b6105dd806100d65f395ff3fe608060405234801561000f575f5ffd5b5060043610610055575f3560e01c806301ffc9a7146100595780630ee1bc021461008057806359d14b41146100c6578063a224cee714610110578063fb5f565814610125575b5f5ffd5b61006c6100673660046103d7565b610138565b604051901515815260200160405180910390f35b61006c61008e366004610420565b50505f9182525f5160206105885f395f51905f52602090815260408084206001600160a01b0393909316845291905290205460ff1690565b61006c6100d43660046104a3565b6001600160a01b03165f9081527f7430435abb9cbac0ac3991781e3d1425d896b1f254c54102ffb46e29a11aa301602052604090205460ff1690565b61012361011e3660046104bc565b61016e565b005b610123610133366004610420565b6102eb565b5f6001600160e01b0319821663579a24bd60e01b148061016857506301ffc9a760e01b6001600160e01b03198316145b92915050565b7ff0c57e16840df040f15088dc2f81fe391c3923bec73e23a9662efc9c229c6a008054600160401b810460ff16159067ffffffffffffffff165f811580156101b35750825b90505f8267ffffffffffffffff1660011480156101cf5750303b155b9050811580156101dd575080155b156101fb5760405163f92ee8a960e01b815260040160405180910390fd5b845467ffffffffffffffff19166001178555831561022557845460ff60401b1916600160401b1785555b5f5160206105885f395f51905f525f5b8781101561029a576001826001015f8b8b858181106102565761025661052d565b905060200201602081019061026b91906104a3565b6001600160a01b0316815260208101919091526040015f20805460ff1916911515919091179055600101610235565b505083156102e257845460ff60401b19168555604051600181527fc7f505b2f371ae2175ee4913f4499e1f2633a7b5936321eed1cdaeb6115181d29060200160405180910390a15b50505050505050565b335f9081527f7430435abb9cbac0ac3991781e3d1425d896b1f254c54102ffb46e29a11aa30160205260409020545f5160206105885f395f51905f529060ff1661034f5760405163d86ad9cf60e01b81523360048201526024015b60405180910390fd5b5f8581525f5160206105885f395f51905f52602081815260408084206001600160a01b03891685529091529091205460ff16156103a75785858585604051630bc94c0960e31b81526004016103469493929190610541565b5f958652602090815260408087206001600160a01b0390961687529490525050509020805460ff19166001179055565b5f602082840312156103e7575f5ffd5b81356001600160e01b0319811681146103fe575f5ffd5b9392505050565b80356001600160a01b038116811461041b575f5ffd5b919050565b5f5f5f5f60608587031215610433575f5ffd5b8435935061044360208601610405565b9250604085013567ffffffffffffffff81111561045e575f5ffd5b8501601f8101871361046e575f5ffd5b803567ffffffffffffffff811115610484575f5ffd5b876020828401011115610495575f5ffd5b949793965060200194505050565b5f602082840312156104b3575f5ffd5b6103fe82610405565b5f5f602083850312156104cd575f5ffd5b823567ffffffffffffffff8111156104e3575f5ffd5b8301601f810185136104f3575f5ffd5b803567ffffffffffffffff811115610509575f5ffd5b8560208260051b840101111561051d575f5ffd5b6020919091019590945092505050565b634e487b7160e01b5f52603260045260245ffd5b8481526001600160a01b03841660208201526060604082018190528101829052818360808301375f818301608090810191909152601f909201601f19160101939250505056fe7430435abb9cbac0ac3991781e3d1425d896b1f254c54102ffb46e29a11aa300a264697066735822122085d022cfc314d73ebee3394f11a4274d144bcd6b7926d395ebe50f57284478dd64736f6c634300081f0033","linkReferences":{}},"methodIdentifiers":{"hasVoted(uint256,address,bytes)":"0ee1bc02","initialize(address[])":"a224cee7","isAuthorizedCaller(address)":"59d14b41","recordVote(uint256,address,bytes)":"fb5f5658","supportsInterface(bytes4)":"01ffc9a7"},"id":33}