{"abi":[{"type":"function","name":"encodeMessageDataForSafe","inputs":[{"name":"safe","type":"address","internalType":"contract ISafe"},{"name":"message","type":"bytes","internalType":"bytes"}],"outputs":[{"name":"","type":"bytes","internalType":"bytes"}],"stateMutability":"view"},{"type":"function","name":"encodeTransactionData","inputs":[{"name":"to","type":"address","internalType":"address"},{"name":"value","type":"uint256","internalType":"uint256"},{"name":"data","type":"bytes","internalType":"bytes"},{"name":"operation","type":"uint8","internalType":"enum Enum.Operation"},{"name":"safeTxGas","type":"uint256","internalType":"uint256"},{"name":"baseGas","type":"uint256","internalType":"uint256"},{"name":"gasPrice","type":"uint256","internalType":"uint256"},{"name":"gasToken","type":"address","internalType":"address"},{"name":"refundReceiver","type":"address","internalType":"address"},{"name":"nonce","type":"uint256","internalType":"uint256"}],"outputs":[{"name":"","type":"bytes","internalType":"bytes"}],"stateMutability":"view"},{"type":"function","name":"getMessageHash","inputs":[{"name":"message","type":"bytes","internalType":"bytes"}],"outputs":[{"name":"","type":"bytes32","internalType":"bytes32"}],"stateMutability":"view"},{"type":"function","name":"getMessageHashForSafe","inputs":[{"name":"safe","type":"address","internalType":"contract ISafe"},{"name":"message","type":"bytes","internalType":"bytes"}],"outputs":[{"name":"","type":"bytes32","internalType":"bytes32"}],"stateMutability":"view"},{"type":"function","name":"getModules","inputs":[],"outputs":[{"name":"","type":"address[]","internalType":"address[]"}],"stateMutability":"view"},{"type":"function","name":"isValidSignature","inputs":[{"name":"_dataHash","type":"bytes32","internalType":"bytes32"},{"name":"_signature","type":"bytes","internalType":"bytes"}],"outputs":[{"name":"","type":"bytes4","internalType":"bytes4"}],"stateMutability":"view"},{"type":"function","name":"onERC1155BatchReceived","inputs":[{"name":"","type":"address","internalType":"address"},{"name":"","type":"address","internalType":"address"},{"name":"","type":"uint256[]","internalType":"uint256[]"},{"name":"","type":"uint256[]","internalType":"uint256[]"},{"name":"","type":"bytes","internalType":"bytes"}],"outputs":[{"name":"","type":"bytes4","internalType":"bytes4"}],"stateMutability":"view"},{"type":"function","name":"onERC1155Received","inputs":[{"name":"","type":"address","internalType":"address"},{"name":"","type":"address","internalType":"address"},{"name":"","type":"uint256","internalType":"uint256"},{"name":"","type":"uint256","internalType":"uint256"},{"name":"","type":"bytes","internalType":"bytes"}],"outputs":[{"name":"","type":"bytes4","internalType":"bytes4"}],"stateMutability":"view"},{"type":"function","name":"onERC721Received","inputs":[{"name":"","type":"address","internalType":"address"},{"name":"","type":"address","internalType":"address"},{"name":"","type":"uint256","internalType":"uint256"},{"name":"","type":"bytes","internalType":"bytes"}],"outputs":[{"name":"","type":"bytes4","internalType":"bytes4"}],"stateMutability":"view"},{"type":"function","name":"simulate","inputs":[{"name":"targetContract","type":"address","internalType":"address"},{"name":"calldataPayload","type":"bytes","internalType":"bytes"}],"outputs":[{"name":"response","type":"bytes","internalType":"bytes"}],"stateMutability":"nonpayable"},{"type":"function","name":"supportsInterface","inputs":[{"name":"interfaceId","type":"bytes4","internalType":"bytes4"}],"outputs":[{"name":"","type":"bool","internalType":"bool"}],"stateMutability":"view"},{"type":"function","name":"tokensReceived","inputs":[{"name":"","type":"address","internalType":"address"},{"name":"","type":"address","internalType":"address"},{"name":"","type":"address","internalType":"address"},{"name":"","type":"uint256","internalType":"uint256"},{"name":"","type":"bytes","internalType":"bytes"},{"name":"","type":"bytes","internalType":"bytes"}],"outputs":[],"stateMutability":"pure"}],"bytecode":{"object":"0x6080604052348015600e575f5ffd5b506110af8061001c5f395ff3fe608060405234801561000f575f5ffd5b50600436106100b0575f3560e01c80636ac247841161006e5780636ac2478414610176578063b2494df314610189578063bc197c811461019e578063bd61951d146101b1578063e86637db146101c4578063f23a6e61146101d7575f5ffd5b806223de29146100b457806301ffc9a7146100ce5780630a1028c4146100f6578063150b7a02146101175780631626ba7e146101435780632303164014610156575b5f5ffd5b6100cc6100c2366004610882565b5050505050505050565b005b6100e16100dc36600461092f565b6101ea565b60405190151581526020015b60405180910390f35b610109610104366004610a19565b61023b565b6040519081526020016100ed565b61012a610125366004610a52565b610246565b6040516001600160e01b031990911681526020016100ed565b61012a610151366004610abf565b610261565b610169610164366004610b06565b6103c9565b6040516100ed9190610b52565b610109610184366004610b06565b6104d7565b6101916104f1565b6040516100ed9190610b87565b61012a6101ac366004610c12565b610567565b6101696101bf366004610cb2565b610585565b6101696101d2366004610ce9565b6105db565b61012a6101e5366004610da4565b610708565b5f6001600160e01b03198216630271189760e51b148061021a57506001600160e01b03198216630a85bd0160e11b145b8061023557506001600160e01b031982166301ffc9a760e01b145b92915050565b5f61023533836104d7565b5f61024f610724565b50630a85bd0160e11b95945050505050565b5f5f3390505f610292828760405160200161027e91815260200190565b6040516020818303038152906040526103c9565b805160208201209091505f85900361035757604051635ae6bd3760e01b8152600481018290526001600160a01b03841690635ae6bd3790602401602060405180830381865afa1580156102e7573d5f5f3e3d5ffd5b505050506040513d601f19601f8201168201806040525081019061030b9190610e1a565b5f036103525760405162461bcd60e51b815260206004820152601160248201527012185cda081b9bdd08185c1c1c9bdd9959607a1b60448201526064015b60405180910390fd5b6103b6565b60405163f855438b60e01b81526001600160a01b0384169063f855438b90610389905f9085908b908b90600401610e31565b5f6040518083038186803b15801561039f575f5ffd5b505afa1580156103b1573d5f5f3e3d5ffd5b505050505b50630b135d3f60e11b9695505050505050565b60605f7f60b3cbf8b4a223d68d641b3b6ddf9a298e7f33710cf3d3a9d1146b5a6150fbca5f1b8380519060200120604051602001610411929190918252602082015260400190565b604051602081830303815290604052805190602001209050601960f81b600160f81b856001600160a01b031663f698da256040518163ffffffff1660e01b8152600401602060405180830381865afa15801561046f573d5f5f3e3d5ffd5b505050506040513d601f19601f820116820180604052508101906104939190610e1a565b6040516001600160f81b0319938416602082015292909116602183015260228201526042810182905260620160405160208183030381529060405291505092915050565b5f6104e283836103c9565b80519060200120905092915050565b604051636617c22960e11b815260016004820152600a602482015260609033905f90829063cc2f8452906044015f60405180830381865afa158015610538573d5f5f3e3d5ffd5b505050506040513d5f823e601f3d908101601f1916820160405261055f9190810190610e83565b509392505050565b5f610570610724565b5063bc197c8160e01b98975050505050505050565b606060405163b4faba0960e01b81526004360360048083013760405f36835f335af1905060403d108117156105b8575f5ffd5b5060208051016040519150808201604052806020833e5f5161055f578060208301fd5b60605f3390505f816001600160a01b031663f698da256040518163ffffffff1660e01b8152600401602060405180830381865afa15801561061e573d5f5f3e3d5ffd5b505050506040513d601f19601f820116820180604052508101906106429190610e1a565b90505f7fbb8310d486368db6bd6f849402fdd73ad53d316b5a4b2644ad6efe0f941286d85f1b8f8f8f8f60405161067a929190610f48565b60405180910390208e8e8e8e8e8e8e6040516020016106a39b9a99989796959493929190610f57565b60408051808303601f19018152908290528051602091820120601960f81b91830191909152600160f81b60218301526022820184905260428201819052915060620160405160208183030381529060405293505050509b9a5050505050505050505050565b5f610711610724565b5063f23a6e6160e01b9695505050505050565b604051635624b25b60e01b81527f6c9a6c4a39284e37ed1cf53d337577d14212a4870fb976a4366c693b939918d56004820152600160248201525f903390635624b25b906044015f60405180830381865afa158015610785573d5f5f3e3d5ffd5b505050506040513d5f823e601f3d908101601f191682016040526107ac9190810190610fea565b90505f818060200190518101906107c3919061105e565b90506001600160a01b03811630146108135760405162461bcd60e51b81526020600482015260136024820152721b9bdd08184819985b1b189858dac818d85b1b606a1b6044820152606401610349565b5050565b6001600160a01b038116811461082b575f5ffd5b50565b803561083981610817565b919050565b5f5f83601f84011261084e575f5ffd5b5081356001600160401b03811115610864575f5ffd5b60208301915083602082850101111561087b575f5ffd5b9250929050565b5f5f5f5f5f5f5f5f60c0898b031215610899575f5ffd5b88356108a481610817565b975060208901356108b481610817565b965060408901356108c481610817565b95506060890135945060808901356001600160401b038111156108e5575f5ffd5b6108f18b828c0161083e565b90955093505060a08901356001600160401b0381111561090f575f5ffd5b61091b8b828c0161083e565b999c989b5096995094979396929594505050565b5f6020828403121561093f575f5ffd5b81356001600160e01b031981168114610956575f5ffd5b9392505050565b634e487b7160e01b5f52604160045260245ffd5b604051601f8201601f191681016001600160401b03811182821017156109995761099961095d565b604052919050565b5f6001600160401b038211156109b9576109b961095d565b50601f01601f191660200190565b5f82601f8301126109d6575f5ffd5b81356109e96109e4826109a1565b610971565b8181528460208386010111156109fd575f5ffd5b816020850160208301375f918101602001919091529392505050565b5f60208284031215610a29575f5ffd5b81356001600160401b03811115610a3e575f5ffd5b610a4a848285016109c7565b949350505050565b5f5f5f5f5f60808688031215610a66575f5ffd5b8535610a7181610817565b94506020860135610a8181610817565b93506040860135925060608601356001600160401b03811115610aa2575f5ffd5b610aae8882890161083e565b969995985093965092949392505050565b5f5f5f60408486031215610ad1575f5ffd5b8335925060208401356001600160401b03811115610aed575f5ffd5b610af98682870161083e565b9497909650939450505050565b5f5f60408385031215610b17575f5ffd5b8235610b2281610817565b915060208301356001600160401b03811115610b3c575f5ffd5b610b48858286016109c7565b9150509250929050565b602081525f82518060208401528060208501604085015e5f604082850101526040601f19601f83011684010191505092915050565b602080825282518282018190525f918401906040840190835b81811015610bc75783516001600160a01b0316835260209384019390920191600101610ba0565b509095945050505050565b5f5f83601f840112610be2575f5ffd5b5081356001600160401b03811115610bf8575f5ffd5b6020830191508360208260051b850101111561087b575f5ffd5b5f5f5f5f5f5f5f5f60a0898b031215610c29575f5ffd5b8835610c3481610817565b97506020890135610c4481610817565b965060408901356001600160401b03811115610c5e575f5ffd5b610c6a8b828c01610bd2565b90975095505060608901356001600160401b03811115610c88575f5ffd5b610c948b828c01610bd2565b90955093505060808901356001600160401b0381111561090f575f5ffd5b5f5f5f60408486031215610cc4575f5ffd5b8335610ccf81610817565b925060208401356001600160401b03811115610aed575f5ffd5b5f5f5f5f5f5f5f5f5f5f5f6101408c8e031215610d04575f5ffd5b8b35610d0f81610817565b9a5060208c0135995060408c01356001600160401b03811115610d30575f5ffd5b610d3c8e828f0161083e565b909a5098505060608c013560028110610d53575f5ffd5b965060808c0135955060a08c0135945060c08c01359350610d7660e08d0161082e565b9250610d856101008d0161082e565b91505f6101208d01359050809150509295989b509295989b9093969950565b5f5f5f5f5f5f60a08789031215610db9575f5ffd5b8635610dc481610817565b95506020870135610dd481610817565b9450604087013593506060870135925060808701356001600160401b03811115610dfc575f5ffd5b610e0889828a0161083e565b979a9699509497509295939492505050565b5f60208284031215610e2a575f5ffd5b5051919050565b6001600160a01b0385168152602081018490526060604082018190528101829052818360808301375f818301608090810191909152601f909201601f191601019392505050565b805161083981610817565b5f5f60408385031215610e94575f5ffd5b82516001600160401b03811115610ea9575f5ffd5b8301601f81018513610eb9575f5ffd5b80516001600160401b03811115610ed257610ed261095d565b8060051b610ee260208201610971565b91825260208184018101929081019088841115610efd575f5ffd5b6020850194505b83851015610f2b5784519250610f1983610817565b82825260209485019490910190610f04565b8096505050505050610f3f60208401610e78565b90509250929050565b818382375f9101908152919050565b8b81526001600160a01b038b166020820152604081018a905260608101899052610160810160028910610f9857634e487b7160e01b5f52602160045260245ffd5b8860808301528760a08301528660c08301528560e0830152610fc66101008301866001600160a01b03169052565b6001600160a01b039390931661012082015261014001529998505050505050505050565b5f60208284031215610ffa575f5ffd5b81516001600160401b0381111561100f575f5ffd5b8201601f8101841361101f575f5ffd5b805161102d6109e4826109a1565b818152856020838501011115611041575f5ffd5b8160208401602083015e5f91810160200191909152949350505050565b5f6020828403121561106e575f5ffd5b81516109568161081756fea26469706673582212200aa8d06283a979f9c0eb1cd18ac4940372226108424a77d5603e4633c98a379364736f6c634300081f0033","linkReferences":{}},"methodIdentifiers":{"encodeMessageDataForSafe(address,bytes)":"23031640","encodeTransactionData(address,uint256,bytes,uint8,uint256,uint256,uint256,address,address,uint256)":"e86637db","getMessageHash(bytes)":"0a1028c4","getMessageHashForSafe(address,bytes)":"6ac24784","getModules()":"b2494df3","isValidSignature(bytes32,bytes)":"1626ba7e","onERC1155BatchReceived(address,address,uint256[],uint256[],bytes)":"bc197c81","onERC1155Received(address,address,uint256,uint256,bytes)":"f23a6e61","onERC721Received(address,address,uint256,bytes)":"150b7a02","simulate(address,bytes)":"bd61951d","supportsInterface(bytes4)":"01ffc9a7","tokensReceived(address,address,address,uint256,bytes,bytes)":"0023de29"},"id":131}