{"abi":[{"type":"constructor","inputs":[{"name":"admin","type":"address","internalType":"address"}],"stateMutability":"nonpayable"},{"type":"function","name":"ADMIN_ROLE","inputs":[],"outputs":[{"name":"","type":"bytes32","internalType":"bytes32"}],"stateMutability":"view"},{"type":"function","name":"DEFAULT_ADMIN_ROLE","inputs":[],"outputs":[{"name":"","type":"bytes32","internalType":"bytes32"}],"stateMutability":"view"},{"type":"function","name":"MINTER_ROLE","inputs":[],"outputs":[{"name":"","type":"bytes32","internalType":"bytes32"}],"stateMutability":"view"},{"type":"function","name":"PAUSER_ROLE","inputs":[],"outputs":[{"name":"","type":"bytes32","internalType":"bytes32"}],"stateMutability":"view"},{"type":"function","name":"allowance","inputs":[{"name":"owner","type":"address","internalType":"address"},{"name":"spender","type":"address","internalType":"address"}],"outputs":[{"name":"","type":"uint256","internalType":"uint256"}],"stateMutability":"view"},{"type":"function","name":"approve","inputs":[{"name":"spender","type":"address","internalType":"address"},{"name":"value","type":"uint256","internalType":"uint256"}],"outputs":[{"name":"","type":"bool","internalType":"bool"}],"stateMutability":"nonpayable"},{"type":"function","name":"balanceOf","inputs":[{"name":"account","type":"address","internalType":"address"}],"outputs":[{"name":"","type":"uint256","internalType":"uint256"}],"stateMutability":"view"},{"type":"function","name":"blacklisted","inputs":[{"name":"","type":"address","internalType":"address"}],"outputs":[{"name":"","type":"bool","internalType":"bool"}],"stateMutability":"view"},{"type":"function","name":"burn","inputs":[{"name":"from","type":"address","internalType":"address"},{"name":"amount","type":"uint256","internalType":"uint256"}],"outputs":[],"stateMutability":"nonpayable"},{"type":"function","name":"burnSelf","inputs":[{"name":"amount","type":"uint256","internalType":"uint256"}],"outputs":[],"stateMutability":"nonpayable"},{"type":"function","name":"decimals","inputs":[],"outputs":[{"name":"","type":"uint8","internalType":"uint8"}],"stateMutability":"pure"},{"type":"function","name":"getRoleAdmin","inputs":[{"name":"role","type":"bytes32","internalType":"bytes32"}],"outputs":[{"name":"","type":"bytes32","internalType":"bytes32"}],"stateMutability":"view"},{"type":"function","name":"grantAdmin","inputs":[{"name":"to","type":"address","internalType":"address"}],"outputs":[],"stateMutability":"nonpayable"},{"type":"function","name":"grantRole","inputs":[{"name":"role","type":"bytes32","internalType":"bytes32"},{"name":"account","type":"address","internalType":"address"}],"outputs":[],"stateMutability":"nonpayable"},{"type":"function","name":"hasRole","inputs":[{"name":"role","type":"bytes32","internalType":"bytes32"},{"name":"account","type":"address","internalType":"address"}],"outputs":[{"name":"","type":"bool","internalType":"bool"}],"stateMutability":"view"},{"type":"function","name":"mint","inputs":[{"name":"to","type":"address","internalType":"address"},{"name":"amount","type":"uint256","internalType":"uint256"}],"outputs":[],"stateMutability":"nonpayable"},{"type":"function","name":"name","inputs":[],"outputs":[{"name":"","type":"string","internalType":"string"}],"stateMutability":"view"},{"type":"function","name":"owner","inputs":[],"outputs":[{"name":"","type":"address","internalType":"address"}],"stateMutability":"view"},{"type":"function","name":"paused","inputs":[],"outputs":[{"name":"","type":"bool","internalType":"bool"}],"stateMutability":"view"},{"type":"function","name":"renounceOwnership","inputs":[],"outputs":[],"stateMutability":"nonpayable"},{"type":"function","name":"renounceRole","inputs":[{"name":"role","type":"bytes32","internalType":"bytes32"},{"name":"callerConfirmation","type":"address","internalType":"address"}],"outputs":[],"stateMutability":"nonpayable"},{"type":"function","name":"revokeAdmin","inputs":[{"name":"to","type":"address","internalType":"address"}],"outputs":[],"stateMutability":"nonpayable"},{"type":"function","name":"revokeRole","inputs":[{"name":"role","type":"bytes32","internalType":"bytes32"},{"name":"account","type":"address","internalType":"address"}],"outputs":[],"stateMutability":"nonpayable"},{"type":"function","name":"setBlacklist","inputs":[{"name":"account","type":"address","internalType":"address"},{"name":"status","type":"bool","internalType":"bool"}],"outputs":[],"stateMutability":"nonpayable"},{"type":"function","name":"setPaused","inputs":[{"name":"_paused","type":"bool","internalType":"bool"}],"outputs":[],"stateMutability":"nonpayable"},{"type":"function","name":"supportsInterface","inputs":[{"name":"interfaceId","type":"bytes4","internalType":"bytes4"}],"outputs":[{"name":"","type":"bool","internalType":"bool"}],"stateMutability":"view"},{"type":"function","name":"symbol","inputs":[],"outputs":[{"name":"","type":"string","internalType":"string"}],"stateMutability":"view"},{"type":"function","name":"totalSupply","inputs":[],"outputs":[{"name":"","type":"uint256","internalType":"uint256"}],"stateMutability":"view"},{"type":"function","name":"transfer","inputs":[{"name":"to","type":"address","internalType":"address"},{"name":"value","type":"uint256","internalType":"uint256"}],"outputs":[{"name":"","type":"bool","internalType":"bool"}],"stateMutability":"nonpayable"},{"type":"function","name":"transferFrom","inputs":[{"name":"from","type":"address","internalType":"address"},{"name":"to","type":"address","internalType":"address"},{"name":"value","type":"uint256","internalType":"uint256"}],"outputs":[{"name":"","type":"bool","internalType":"bool"}],"stateMutability":"nonpayable"},{"type":"function","name":"transferOwnership","inputs":[{"name":"newOwner","type":"address","internalType":"address"}],"outputs":[],"stateMutability":"nonpayable"},{"type":"event","name":"AdminGranted","inputs":[{"name":"to","type":"address","indexed":true,"internalType":"address"}],"anonymous":false},{"type":"event","name":"AdminRevoked","inputs":[{"name":"to","type":"address","indexed":true,"internalType":"address"}],"anonymous":false},{"type":"event","name":"Approval","inputs":[{"name":"owner","type":"address","indexed":true,"internalType":"address"},{"name":"spender","type":"address","indexed":true,"internalType":"address"},{"name":"value","type":"uint256","indexed":false,"internalType":"uint256"}],"anonymous":false},{"type":"event","name":"Blacklisted","inputs":[{"name":"account","type":"address","indexed":true,"internalType":"address"},{"name":"status","type":"bool","indexed":false,"internalType":"bool"}],"anonymous":false},{"type":"event","name":"Burn","inputs":[{"name":"from","type":"address","indexed":true,"internalType":"address"},{"name":"amount","type":"uint256","indexed":false,"internalType":"uint256"}],"anonymous":false},{"type":"event","name":"Mint","inputs":[{"name":"to","type":"address","indexed":true,"internalType":"address"},{"name":"amount","type":"uint256","indexed":false,"internalType":"uint256"}],"anonymous":false},{"type":"event","name":"OwnershipTransferred","inputs":[{"name":"previousOwner","type":"address","indexed":true,"internalType":"address"},{"name":"newOwner","type":"address","indexed":true,"internalType":"address"}],"anonymous":false},{"type":"event","name":"Paused","inputs":[{"name":"status","type":"bool","indexed":false,"internalType":"bool"}],"anonymous":false},{"type":"event","name":"RoleAdminChanged","inputs":[{"name":"role","type":"bytes32","indexed":true,"internalType":"bytes32"},{"name":"previousAdminRole","type":"bytes32","indexed":true,"internalType":"bytes32"},{"name":"newAdminRole","type":"bytes32","indexed":true,"internalType":"bytes32"}],"anonymous":false},{"type":"event","name":"RoleGranted","inputs":[{"name":"role","type":"bytes32","indexed":true,"internalType":"bytes32"},{"name":"account","type":"address","indexed":true,"internalType":"address"},{"name":"sender","type":"address","indexed":true,"internalType":"address"}],"anonymous":false},{"type":"event","name":"RoleRevoked","inputs":[{"name":"role","type":"bytes32","indexed":true,"internalType":"bytes32"},{"name":"account","type":"address","indexed":true,"internalType":"address"},{"name":"sender","type":"address","indexed":true,"internalType":"address"}],"anonymous":false},{"type":"event","name":"Transfer","inputs":[{"name":"from","type":"address","indexed":true,"internalType":"address"},{"name":"to","type":"address","indexed":true,"internalType":"address"},{"name":"value","type":"uint256","indexed":false,"internalType":"uint256"}],"anonymous":false},{"type":"error","name":"AccessControlBadConfirmation","inputs":[]},{"type":"error","name":"AccessControlUnauthorizedAccount","inputs":[{"name":"account","type":"address","internalType":"address"},{"name":"neededRole","type":"bytes32","internalType":"bytes32"}]},{"type":"error","name":"ERC20InsufficientAllowance","inputs":[{"name":"spender","type":"address","internalType":"address"},{"name":"allowance","type":"uint256","internalType":"uint256"},{"name":"needed","type":"uint256","internalType":"uint256"}]},{"type":"error","name":"ERC20InsufficientBalance","inputs":[{"name":"sender","type":"address","internalType":"address"},{"name":"balance","type":"uint256","internalType":"uint256"},{"name":"needed","type":"uint256","internalType":"uint256"}]},{"type":"error","name":"ERC20InvalidApprover","inputs":[{"name":"approver","type":"address","internalType":"address"}]},{"type":"error","name":"ERC20InvalidReceiver","inputs":[{"name":"receiver","type":"address","internalType":"address"}]},{"type":"error","name":"ERC20InvalidSender","inputs":[{"name":"sender","type":"address","internalType":"address"}]},{"type":"error","name":"ERC20InvalidSpender","inputs":[{"name":"spender","type":"address","internalType":"address"}]},{"type":"error","name":"IsBlacklisted","inputs":[]},{"type":"error","name":"IsPaused","inputs":[]},{"type":"error","name":"OwnableInvalidOwner","inputs":[{"name":"owner","type":"address","internalType":"address"}]},{"type":"error","name":"OwnableUnauthorizedAccount","inputs":[{"name":"account","type":"address","internalType":"address"}]},{"type":"error","name":"ZeroAddress","inputs":[]},{"type":"error","name":"ZeroAmount","inputs":[]}],"bytecode":{"object":"0x608060405234801561000f575f5ffd5b506040516115a33803806115a383398101604081905261002e9161023d565b604080518082018252600580825264435952555360d81b60208084018290528451808601909552918452908301528291600361006a8382610302565b5060046100778282610302565b5050506001600160a01b0381166100a757604051631e4fbdf760e01b81525f600482015260240160405180910390fd5b6100b08161013f565b506001600160a01b0381166100d85760405163d92e233d60e01b815260040160405180910390fd5b6100e25f82610190565b5061010d7f9f2df0fed2c77648de5860a4cc508cd0818c85b8b8a1ab4ceeef8d981c8956a682610190565b506101387f65d7a28e3265b37a6474929f336521b332c1681b933f6cb9f3376673440d862a82610190565b50506103bc565b600580546001600160a01b038381166001600160a01b0319831681179093556040519116919082907f8be0079c531659141344cd1fd0a4f28419497f9722a3daafe3b4186f6b6457e0905f90a35050565b5f8281526006602090815260408083206001600160a01b038516845290915281205460ff16610234575f8381526006602090815260408083206001600160a01b03861684529091529020805460ff191660011790556101ec3390565b6001600160a01b0316826001600160a01b0316847f2f8788117e7eff1d82e926ec794901d17c78024a50270940304540a733656f0d60405160405180910390a4506001610237565b505f5b92915050565b5f6020828403121561024d575f5ffd5b81516001600160a01b0381168114610263575f5ffd5b9392505050565b634e487b7160e01b5f52604160045260245ffd5b600181811c9082168061029257607f821691505b6020821081036102b057634e487b7160e01b5f52602260045260245ffd5b50919050565b601f8211156102fd57805f5260205f20601f840160051c810160208510156102db5750805b601f840160051c820191505b818110156102fa575f81556001016102e7565b50505b505050565b81516001600160401b0381111561031b5761031b61026a565b61032f81610329845461027e565b846102b6565b6020601f821160018114610361575f831561034a5750848201515b5f19600385901b1c1916600184901b1784556102fa565b5f84815260208120601f198516915b828110156103905787850151825560209485019460019092019101610370565b50848210156103ad57868401515f19600387901b60f8161c191681555b50505050600190811b01905550565b6111da806103c95f395ff3fe608060405234801561000f575f5ffd5b50600436106101dc575f3560e01c806370a0823111610109578063a9059cbb1161009e578063dbac26e91161006e578063dbac26e9146103e7578063dd62ed3e14610409578063e63ab1e914610441578063f2fde38b14610468575f5ffd5b8063a9059cbb1461039a578063b8b12a1e146103ad578063d5391393146103c0578063d547741f146103d4575f5ffd5b806391d14854116100d957806391d148541461036c57806395d89b411461037f5780639dc29fac14610387578063a217fddf1461034a575f5ffd5b806370a082311461031a578063715018a61461034257806375b238fc1461034a5780638da5cb5b14610351575f5ffd5b8063248a9ca31161017f57806335bb3e161161014f57806335bb3e16146102d457806336568abe146102e757806340c10f19146102fa5780635c975abb1461030d575f5ffd5b8063248a9ca31461027d5780632d3456701461029f5780632f2ff15d146102b2578063313ce567146102c5575f5ffd5b8063153b0d1e116101ba578063153b0d1e1461023057806316c38b3c1461024557806318160ddd1461025857806323b872dd1461026a575f5ffd5b806301ffc9a7146101e057806306fdde0314610208578063095ea7b31461021d575b5f5ffd5b6101f36101ee366004610f7b565b61047b565b60405190151581526020015b60405180910390f35b6102106104b1565b6040516101ff9190610fa9565b6101f361022b366004610ff9565b610541565b61024361023e366004611030565b610558565b005b610243610253366004611061565b6105c2565b6002545b6040519081526020016101ff565b6101f361027836600461107a565b610634565b61025c61028b3660046110b4565b5f9081526006602052604090206001015490565b6102436102ad3660046110cb565b610657565b6102436102c03660046110e4565b6106b9565b604051600681526020016101ff565b6102436102e23660046110cb565b6106e3565b6102436102f53660046110e4565b610745565b610243610308366004610ff9565b61077d565b6007546101f39060ff1681565b61025c6103283660046110cb565b6001600160a01b03165f9081526020819052604090205490565b610243610859565b61025c5f81565b6005546040516001600160a01b0390911681526020016101ff565b6101f361037a3660046110e4565b61086c565b610210610896565b610243610395366004610ff9565b6108a5565b6101f36103a8366004610ff9565b610921565b6102436103bb3660046110b4565b61092e565b61025c5f5160206111855f395f51905f5281565b6102436103e23660046110e4565b610990565b6101f36103f53660046110cb565b60086020525f908152604090205460ff1681565b61025c610417366004611105565b6001600160a01b039182165f90815260016020908152604080832093909416825291909152205490565b61025c7f65d7a28e3265b37a6474929f336521b332c1681b933f6cb9f3376673440d862a81565b6102436104763660046110cb565b6109b4565b5f6001600160e01b03198216637965db0b60e01b14806104ab57506301ffc9a760e01b6001600160e01b03198316145b92915050565b6060600380546104c09061112d565b80601f01602080910402602001604051908101604052809291908181526020018280546104ec9061112d565b80156105375780601f1061050e57610100808354040283529160200191610537565b820191905f5260205f20905b81548152906001019060200180831161051a57829003601f168201915b5050505050905090565b5f3361054e8185856109f6565b5060019392505050565b5f61056281610a03565b6001600160a01b0383165f81815260086020908152604091829020805460ff191686151590811790915591519182527fcf3473b85df1594d47b6958f29a32bea0abff9dd68296f7bf33443646793cfd891015b60405180910390a2505050565b7f65d7a28e3265b37a6474929f336521b332c1681b933f6cb9f3376673440d862a6105ec81610a03565b6007805460ff19168315159081179091556040519081527f0e2fb031ee032dc02d8011dc50b816eb450cf856abd8261680dac74f72165bd29060200160405180910390a15050565b5f33610641858285610a0d565b61064c858585610a82565b506001949350505050565b5f61066181610a03565b61066b5f83610990565b6106825f5160206111855f395f51905f5283610990565b6040516001600160a01b038316907f631ff1c4e1a02c54b480a34b810e03bcee61fe38efcb243930a7f820914923e2905f90a25050565b5f828152600660205260409020600101546106d381610a03565b6106dd8383610adf565b50505050565b5f6106ed81610a03565b6106f75f836106b9565b61070e5f5160206111855f395f51905f52836106b9565b6040516001600160a01b038316907f1c4e23de8d72c94b22992bd4d7b6786b215ba876af214ff63e6a0ca38fc97af4905f90a25050565b6001600160a01b038116331461076e5760405163334bd91960e11b815260040160405180910390fd5b6107788282610b70565b505050565b5f5160206111855f395f51905f5261079481610a03565b6001600160a01b0383166107bb5760405163d92e233d60e01b815260040160405180910390fd5b815f036107db57604051631f2a200560e01b815260040160405180910390fd5b6001600160a01b0383165f9081526008602052604090205460ff16156108145760405163063219d360e31b815260040160405180910390fd5b61081e8383610bdb565b826001600160a01b03167f0f6798a560793a54c3bcfe86a93cde1e73087d944c0ea20544137d4121396885836040516105b591815260200190565b610861610c13565b61086a5f610c40565b565b5f9182526006602090815260408084206001600160a01b0393909316845291905290205460ff1690565b6060600480546104c09061112d565b5f5160206111855f395f51905f526108bc81610a03565b815f036108dc57604051631f2a200560e01b815260040160405180910390fd5b6108e68383610c91565b826001600160a01b03167fcc16f5dbb4873280815c1ee09dbd06736cffcc184412cf7a71a0fdb75d397ca5836040516105b591815260200190565b5f3361054e818585610a82565b805f0361094e57604051631f2a200560e01b815260040160405180910390fd5b6109583382610c91565b60405181815233907fcc16f5dbb4873280815c1ee09dbd06736cffcc184412cf7a71a0fdb75d397ca59060200160405180910390a250565b5f828152600660205260409020600101546109aa81610a03565b6106dd8383610b70565b6109bc610c13565b6001600160a01b0381166109ea57604051631e4fbdf760e01b81525f60048201526024015b60405180910390fd5b6109f381610c40565b50565b6107788383836001610cc5565b6109f38133610d97565b6001600160a01b038381165f908152600160209081526040808320938616835292905220545f1981146106dd5781811015610a7457604051637dc7a0d960e11b81526001600160a01b038416600482015260248101829052604481018390526064016109e1565b6106dd84848484035f610cc5565b6001600160a01b038316610aab57604051634b637e8f60e11b81525f60048201526024016109e1565b6001600160a01b038216610ad45760405163ec442f0560e01b81525f60048201526024016109e1565b610778838383610dd0565b5f610aea838361086c565b610b69575f8381526006602090815260408083206001600160a01b03861684529091529020805460ff19166001179055610b213390565b6001600160a01b0316826001600160a01b0316847f2f8788117e7eff1d82e926ec794901d17c78024a50270940304540a733656f0d60405160405180910390a45060016104ab565b505f6104ab565b5f610b7b838361086c565b15610b69575f8381526006602090815260408083206001600160a01b0386168085529252808320805460ff1916905551339286917ff6391f5c32d9c69d2a47ea670b442974b53935d1edc7fd64eb21e047a839171b9190a45060016104ab565b6001600160a01b038216610c045760405163ec442f0560e01b81525f60048201526024016109e1565b610c0f5f8383610dd0565b5050565b6005546001600160a01b0316331461086a5760405163118cdaa760e01b81523360048201526024016109e1565b600580546001600160a01b038381166001600160a01b0319831681179093556040519116919082907f8be0079c531659141344cd1fd0a4f28419497f9722a3daafe3b4186f6b6457e0905f90a35050565b6001600160a01b038216610cba57604051634b637e8f60e11b81525f60048201526024016109e1565b610c0f825f83610dd0565b6001600160a01b038416610cee5760405163e602df0560e01b81525f60048201526024016109e1565b6001600160a01b038316610d1757604051634a1406b160e11b81525f60048201526024016109e1565b6001600160a01b038085165f90815260016020908152604080832093871683529290522082905580156106dd57826001600160a01b0316846001600160a01b03167f8c5be1e5ebec7d5bd14f71427d1e84f3dd0314c0f7b2291e5b200ac8c7c3b92584604051610d8991815260200190565b60405180910390a350505050565b610da1828261086c565b610c0f5760405163e2517d3f60e01b81526001600160a01b0382166004820152602481018390526044016109e1565b60075460ff1615610df457604051631309a56360e01b815260040160405180910390fd5b6001600160a01b0383165f9081526008602052604090205460ff1680610e3157506001600160a01b0382165f9081526008602052604090205460ff165b15610e4f5760405163063219d360e31b815260040160405180910390fd5b6107788383836001600160a01b038316610e7f578060025f828254610e749190611165565b90915550610eef9050565b6001600160a01b0383165f9081526020819052604090205481811015610ed15760405163391434e360e21b81526001600160a01b038516600482015260248101829052604481018390526064016109e1565b6001600160a01b0384165f9081526020819052604090209082900390555b6001600160a01b038216610f0b57600280548290039055610f29565b6001600160a01b0382165f9081526020819052604090208054820190555b816001600160a01b0316836001600160a01b03167fddf252ad1be2c89b69c2b068fc378daa952ba7f163c4a11628f55a4df523b3ef83604051610f6e91815260200190565b60405180910390a3505050565b5f60208284031215610f8b575f5ffd5b81356001600160e01b031981168114610fa2575f5ffd5b9392505050565b602081525f82518060208401528060208501604085015e5f604082850101526040601f19601f83011684010191505092915050565b80356001600160a01b0381168114610ff4575f5ffd5b919050565b5f5f6040838503121561100a575f5ffd5b61101383610fde565b946020939093013593505050565b80358015158114610ff4575f5ffd5b5f5f60408385031215611041575f5ffd5b61104a83610fde565b915061105860208401611021565b90509250929050565b5f60208284031215611071575f5ffd5b610fa282611021565b5f5f5f6060848603121561108c575f5ffd5b61109584610fde565b92506110a360208501610fde565b929592945050506040919091013590565b5f602082840312156110c4575f5ffd5b5035919050565b5f602082840312156110db575f5ffd5b610fa282610fde565b5f5f604083850312156110f5575f5ffd5b8235915061105860208401610fde565b5f5f60408385031215611116575f5ffd5b61111f83610fde565b915061105860208401610fde565b600181811c9082168061114157607f821691505b60208210810361115f57634e487b7160e01b5f52602260045260245ffd5b50919050565b808201808211156104ab57634e487b7160e01b5f52601160045260245ffdfe9f2df0fed2c77648de5860a4cc508cd0818c85b8b8a1ab4ceeef8d981c8956a6a2646970667358221220d911df49ff2ba66ea7fdc146c21e3fc259d05257d4ad8c0214007a1d74d4705964736f6c634300081f0033","linkReferences":{}},"methodIdentifiers":{"ADMIN_ROLE()":"75b238fc","DEFAULT_ADMIN_ROLE()":"a217fddf","MINTER_ROLE()":"d5391393","PAUSER_ROLE()":"e63ab1e9","allowance(address,address)":"dd62ed3e","approve(address,uint256)":"095ea7b3","balanceOf(address)":"70a08231","blacklisted(address)":"dbac26e9","burn(address,uint256)":"9dc29fac","burnSelf(uint256)":"b8b12a1e","decimals()":"313ce567","getRoleAdmin(bytes32)":"248a9ca3","grantAdmin(address)":"35bb3e16","grantRole(bytes32,address)":"2f2ff15d","hasRole(bytes32,address)":"91d14854","mint(address,uint256)":"40c10f19","name()":"06fdde03","owner()":"8da5cb5b","paused()":"5c975abb","renounceOwnership()":"715018a6","renounceRole(bytes32,address)":"36568abe","revokeAdmin(address)":"2d345670","revokeRole(bytes32,address)":"d547741f","setBlacklist(address,bool)":"153b0d1e","setPaused(bool)":"16c38b3c","supportsInterface(bytes4)":"01ffc9a7","symbol()":"95d89b41","totalSupply()":"18160ddd","transfer(address,uint256)":"a9059cbb","transferFrom(address,address,uint256)":"23b872dd","transferOwnership(address)":"f2fde38b"},"id":152}