{"abi":[{"type":"constructor","inputs":[],"stateMutability":"nonpayable"},{"type":"function","name":"BASIS_DENOMINATOR","inputs":[],"outputs":[{"name":"","type":"uint256","internalType":"uint256"}],"stateMutability":"view"},{"type":"function","name":"addAuthorizedFreezeVoter","inputs":[{"name":"freezeVoterContract","type":"address","internalType":"address"}],"outputs":[],"stateMutability":"nonpayable"},{"type":"function","name":"addFreezeVoter","inputs":[{"name":"freezeVoter","type":"address","internalType":"address"}],"outputs":[],"stateMutability":"nonpayable"},{"type":"function","name":"admin","inputs":[],"outputs":[{"name":"","type":"address","internalType":"address"}],"stateMutability":"view"},{"type":"function","name":"authorizedFreezeVoters","inputs":[],"outputs":[{"name":"","type":"address[]","internalType":"address[]"}],"stateMutability":"view"},{"type":"function","name":"basisNumerator","inputs":[],"outputs":[{"name":"","type":"uint256","internalType":"uint256"}],"stateMutability":"view"},{"type":"function","name":"castVote","inputs":[{"name":"proposalId","type":"uint32","internalType":"uint32"},{"name":"voteType","type":"uint8","internalType":"uint8"},{"name":"votingConfigsData","type":"tuple[]","internalType":"struct IVotingTypes.VotingConfigVoteData[]","components":[{"name":"configIndex","type":"uint256","internalType":"uint256"},{"name":"voteData","type":"bytes","internalType":"bytes"}]},{"name":"lightAccountIndex","type":"uint256","internalType":"uint256"}],"outputs":[],"stateMutability":"nonpayable"},{"type":"function","name":"freezeVoters","inputs":[],"outputs":[{"name":"","type":"address[]","internalType":"address[]"}],"stateMutability":"view"},{"type":"function","name":"getVotingStartBlock","inputs":[{"name":"proposalId","type":"uint32","internalType":"uint32"}],"outputs":[{"name":"","type":"uint32","internalType":"uint32"}],"stateMutability":"view"},{"type":"function","name":"getVotingTimestamps","inputs":[{"name":"proposalId","type":"uint32","internalType":"uint32"}],"outputs":[{"name":"","type":"uint48","internalType":"uint48"},{"name":"","type":"uint48","internalType":"uint48"}],"stateMutability":"view"},{"type":"function","name":"initialize","inputs":[{"name":"votingPeriod_","type":"uint32","internalType":"uint32"},{"name":"quorumThreshold_","type":"uint256","internalType":"uint256"},{"name":"basisNumerator_","type":"uint256","internalType":"uint256"},{"name":"proposerAdapters_","type":"address[]","internalType":"address[]"},{"name":"lightAccountFactory_","type":"address","internalType":"address"}],"outputs":[],"stateMutability":"nonpayable"},{"type":"function","name":"initialize2","inputs":[{"name":"admin_","type":"address","internalType":"address"},{"name":"votingConfigs_","type":"tuple[]","internalType":"struct IVotingTypes.VotingConfig[]","components":[{"name":"votingWeight","type":"address","internalType":"address"},{"name":"voteTracker","type":"address","internalType":"address"}]}],"outputs":[],"stateMutability":"nonpayable"},{"type":"function","name":"initializeProposal","inputs":[{"name":"proposalId","type":"uint32","internalType":"uint32"}],"outputs":[],"stateMutability":"nonpayable"},{"type":"function","name":"isAuthorizedFreezeVoter","inputs":[{"name":"freezeVoter","type":"address","internalType":"address"}],"outputs":[{"name":"","type":"bool","internalType":"bool"}],"stateMutability":"view"},{"type":"function","name":"isBasisMet","inputs":[{"name":"proposalId","type":"uint32","internalType":"uint32"}],"outputs":[{"name":"","type":"bool","internalType":"bool"}],"stateMutability":"view"},{"type":"function","name":"isPassed","inputs":[{"name":"proposalId","type":"uint32","internalType":"uint32"}],"outputs":[{"name":"","type":"bool","internalType":"bool"}],"stateMutability":"view"},{"type":"function","name":"isProposer","inputs":[{"name":"proposer","type":"address","internalType":"address"},{"name":"adapter","type":"address","internalType":"address"},{"name":"adapterData","type":"bytes","internalType":"bytes"}],"outputs":[{"name":"","type":"bool","internalType":"bool"}],"stateMutability":"view"},{"type":"function","name":"isProposerAdapter","inputs":[{"name":"adapter","type":"address","internalType":"address"}],"outputs":[{"name":"","type":"bool","internalType":"bool"}],"stateMutability":"view"},{"type":"function","name":"isQuorumMet","inputs":[{"name":"proposalId","type":"uint32","internalType":"uint32"}],"outputs":[{"name":"","type":"bool","internalType":"bool"}],"stateMutability":"view"},{"type":"function","name":"lateVoteCast","inputs":[{"name":"proposalId","type":"uint32","internalType":"uint32"}],"outputs":[{"name":"","type":"bool","internalType":"bool"}],"stateMutability":"view"},{"type":"function","name":"proposalVoting","inputs":[{"name":"proposalId","type":"uint32","internalType":"uint32"}],"outputs":[{"name":"","type":"tuple","internalType":"struct Strategy.ProposalVoting","components":[{"name":"votingStartTimestamp","type":"uint48","internalType":"uint48"},{"name":"votingEndTimestamp","type":"uint48","internalType":"uint48"},{"name":"votingStartBlock","type":"uint32","internalType":"uint32"},{"name":"yesVotes","type":"uint256","internalType":"uint256"},{"name":"noVotes","type":"uint256","internalType":"uint256"},{"name":"abstainVotes","type":"uint256","internalType":"uint256"}]}],"stateMutability":"view"},{"type":"function","name":"proposalVotingDetails","inputs":[{"name":"proposalId","type":"uint32","internalType":"uint32"}],"outputs":[{"name":"","type":"tuple","internalType":"struct IStrategy.ProposalVotingDetails","components":[{"name":"votingStartTimestamp","type":"uint48","internalType":"uint48"},{"name":"votingEndTimestamp","type":"uint48","internalType":"uint48"},{"name":"votingStartBlock","type":"uint32","internalType":"uint32"},{"name":"yesVotes","type":"uint256","internalType":"uint256"},{"name":"noVotes","type":"uint256","internalType":"uint256"},{"name":"abstainVotes","type":"uint256","internalType":"uint256"}]}],"stateMutability":"view"},{"type":"function","name":"proposerAdapters","inputs":[],"outputs":[{"name":"","type":"address[]","internalType":"address[]"}],"stateMutability":"view"},{"type":"function","name":"quorumThreshold","inputs":[],"outputs":[{"name":"","type":"uint256","internalType":"uint256"}],"stateMutability":"view"},{"type":"function","name":"removeAuthorizedFreezeVoter","inputs":[{"name":"freezeVoterContract","type":"address","internalType":"address"}],"outputs":[],"stateMutability":"nonpayable"},{"type":"function","name":"removeFreezeVoter","inputs":[{"name":"freezeVoter","type":"address","internalType":"address"}],"outputs":[],"stateMutability":"nonpayable"},{"type":"function","name":"strategyAdmin","inputs":[],"outputs":[{"name":"","type":"address","internalType":"address"}],"stateMutability":"view"},{"type":"function","name":"supportsInterface","inputs":[{"name":"interfaceId","type":"bytes4","internalType":"bytes4"}],"outputs":[{"name":"","type":"bool","internalType":"bool"}],"stateMutability":"view"},{"type":"function","name":"validStrategyVote","inputs":[{"name":"voter","type":"address","internalType":"address"},{"name":"proposalId","type":"uint32","internalType":"uint32"},{"name":"voteType","type":"uint8","internalType":"uint8"},{"name":"votingConfigsData","type":"tuple[]","internalType":"struct IVotingTypes.VotingConfigVoteData[]","components":[{"name":"configIndex","type":"uint256","internalType":"uint256"},{"name":"voteData","type":"bytes","internalType":"bytes"}]}],"outputs":[{"name":"","type":"bool","internalType":"bool"}],"stateMutability":"view"},{"type":"function","name":"validVote","inputs":[{"name":"voter","type":"address","internalType":"address"},{"name":"proposalId","type":"uint32","internalType":"uint32"},{"name":"voteType","type":"uint8","internalType":"uint8"},{"name":"votingConfigsData","type":"tuple[]","internalType":"struct IVotingTypes.VotingConfigVoteData[]","components":[{"name":"configIndex","type":"uint256","internalType":"uint256"},{"name":"voteData","type":"bytes","internalType":"bytes"}]}],"outputs":[{"name":"","type":"bool","internalType":"bool"}],"stateMutability":"view"},{"type":"function","name":"voteCastedAfterVotingPeriodEnded","inputs":[{"name":"proposalId","type":"uint32","internalType":"uint32"}],"outputs":[{"name":"","type":"bool","internalType":"bool"}],"stateMutability":"view"},{"type":"function","name":"votingConfig","inputs":[{"name":"configIndex","type":"uint256","internalType":"uint256"}],"outputs":[{"name":"","type":"tuple","internalType":"struct IVotingTypes.VotingConfig","components":[{"name":"votingWeight","type":"address","internalType":"address"},{"name":"voteTracker","type":"address","internalType":"address"}]}],"stateMutability":"view"},{"type":"function","name":"votingConfigs","inputs":[],"outputs":[{"name":"","type":"tuple[]","internalType":"struct IVotingTypes.VotingConfig[]","components":[{"name":"votingWeight","type":"address","internalType":"address"},{"name":"voteTracker","type":"address","internalType":"address"}]}],"stateMutability":"view"},{"type":"function","name":"votingPeriod","inputs":[],"outputs":[{"name":"","type":"uint32","internalType":"uint32"}],"stateMutability":"view"},{"type":"event","name":"FreezeVoterAuthorizationChanged","inputs":[{"name":"freezeVoterContract","type":"address","indexed":true,"internalType":"address"},{"name":"isAuthorized","type":"bool","indexed":false,"internalType":"bool"}],"anonymous":false},{"type":"event","name":"Initialized","inputs":[{"name":"version","type":"uint64","indexed":false,"internalType":"uint64"}],"anonymous":false},{"type":"event","name":"ProposalInitialized","inputs":[{"name":"proposalId","type":"uint32","indexed":true,"internalType":"uint32"},{"name":"votingStartTimestamp","type":"uint48","indexed":false,"internalType":"uint48"},{"name":"votingEndTimestamp","type":"uint48","indexed":false,"internalType":"uint48"},{"name":"votingStartBlock","type":"uint32","indexed":false,"internalType":"uint32"}],"anonymous":false},{"type":"event","name":"Voted","inputs":[{"name":"voter","type":"address","indexed":true,"internalType":"address"},{"name":"proposalId","type":"uint32","indexed":true,"internalType":"uint32"},{"name":"voteType","type":"uint8","indexed":false,"internalType":"enum IStrategy.VoteType"},{"name":"totalWeightCastedInTx","type":"uint256","indexed":false,"internalType":"uint256"}],"anonymous":false},{"type":"event","name":"VotingPeriodEnded","inputs":[{"name":"proposalId","type":"uint32","indexed":true,"internalType":"uint32"}],"anonymous":false},{"type":"error","name":"InvalidAddress","inputs":[]},{"type":"error","name":"InvalidBasisNumerator","inputs":[]},{"type":"error","name":"InvalidInitialization","inputs":[]},{"type":"error","name":"InvalidProposerAdapter","inputs":[]},{"type":"error","name":"InvalidStrategyAdmin","inputs":[]},{"type":"error","name":"InvalidVoteType","inputs":[]},{"type":"error","name":"InvalidVotingConfig","inputs":[{"name":"configIndex","type":"uint256","internalType":"uint256"}]},{"type":"error","name":"NoProposerAdapters","inputs":[]},{"type":"error","name":"NoVotingConfigs","inputs":[]},{"type":"error","name":"NoVotingWeight","inputs":[{"name":"configIndex","type":"uint256","internalType":"uint256"}]},{"type":"error","name":"NotInitializing","inputs":[]},{"type":"error","name":"ProposalNotActive","inputs":[]},{"type":"error","name":"ProposalNotInitialized","inputs":[]}],"bytecode":{"object":"0x6080604052348015600e575f5ffd5b5060156019565b60c9565b7ff0c57e16840df040f15088dc2f81fe391c3923bec73e23a9662efc9c229c6a00805468010000000000000000900460ff161560685760405163f92ee8a960e01b815260040160405180910390fd5b80546001600160401b039081161460c65780546001600160401b0319166001600160401b0390811782556040519081527fc7f505b2f371ae2175ee4913f4499e1f2633a7b5936321eed1cdaeb6115181d29060200160405180910390a15b50565b612593806100d65f395ff3fe608060405234801561000f575f5ffd5b50600436106101fd575f3560e01c80638081be9111610114578063bf7e2c7f116100a9578063d4bf857f11610079578063d4bf857f1461045f578063e16e82561461047f578063e8c643c314610492578063f851a440146104a5578063fb21fe4e146104ad575f5ffd5b8063bf7e2c7f1461041e578063c298bd1514610426578063cd4e423514610439578063cf863cb01461044c575f5ffd5b8063b0a7b6e9116100e4578063b0a7b6e9146103dd578063b50c0c11146103f0578063b8ec35f014610403578063bf16370014610416575f5ffd5b80638081be911461038d5780638934517b14610397578063922fcb0a146103aa5780639726f7bd146103bd575f5ffd5b806353a8b3201161019557806368cde22d1161016557806368cde22d1461030a578063726e53161461031d578063728eacf4146103305780637b7a91dd146103455780637bac5a781461035b575f5ffd5b806353a8b320146102be57806357fe8fa1146102d15780635ecc8206146102e457806361e362a1146102f7575f5ffd5b80632a0b5082116101d05780632a0b50821461027b5780633b21c3f2146102835780634781d1b4146102985780635326b4a6146102ab575f5ffd5b806301ffc9a71461020157806302a251a3146102295780630b750f76146102465780631ffc08ea1461025b575b5f5ffd5b61021461020f366004611cd3565b6104c0565b60405190151581526020015b60405180910390f35b6102316104f6565b60405163ffffffff9091168152602001610220565b61024e610512565b6040516102209190611d01565b61026e610269366004611d64565b61057b565b6040516102209190611d7d565b61024e610627565b610296610291366004611d64565b61068e565b005b6102146102a6366004611dea565b6107cc565b6102966102b9366004611dea565b6107f9565b6102146102cc366004611d64565b610805565b61026e6102df366004611d64565b61089a565b6102966102f2366004611dea565b610938565b610296610305366004611dea565b610a52565b610296610318366004611e5c565b610a5b565b61021461032b366004611d64565b610e3a565b610338610ecd565b6040516102209190611ebf565b61034d610f4c565b604051908152602001610220565b61036e610369366004611d64565b610f5e565b6040805165ffffffffffff938416815292909116602083015201610220565b61034d620f424081565b6102316103a5366004611d64565b610fd0565b6102146103b8366004611f17565b611039565b6103d06103cb366004611f89565b611306565b6040516102209190611fa0565b6102146103eb366004611f17565b61139e565b6102146103fe366004611d64565b6113b6565b610296610411366004611fc4565b611431565b61024e6115a5565b61034d6115b4565b610296610434366004612045565b6115c6565b610214610447366004611d64565b6117f5565b61029661045a366004611dea565b6117ff565b6104676119db565b6040516001600160a01b039091168152602001610220565b61021461048d366004611dea565b6119e4565b6102146104a0366004611d64565b611a11565b610467611a3b565b6102146104bb3660046120b9565b611a53565b5f6001600160e01b03198216634904448960e01b14806104f057506301ffc9a760e01b6001600160e01b03198316145b92915050565b5f6104ff611b09565b54600160a01b900463ffffffff16919050565b606061051c611b09565b60050180548060200260200160405190810160405280929190818152602001828054801561057157602002820191905f5260205f20905b81546001600160a01b03168152600190910190602001808311610553575b5050505050905090565b6040805160c0810182525f80825260208201819052918101829052606081018290526080810182905260a08101919091526105b4611b09565b63ffffffff9283165f90815260039182016020908152604091829020825160c081018452815465ffffffffffff8082168352600160301b82041693820193909352600160601b90920490951691810191909152600184015460608201526002840154608082015292015460a08301525090565b6060610631611b09565b60080180548060200260200160405190810160405280929190818152602001828054801561057157602002820191905f5260205f209081546001600160a01b03168152600190910190602001808311610553575050505050905090565b5f610697611b09565b80549091506001600160a01b031633146106c3576040516263016560e71b815260040160405180910390fd5b5f6106cc611b09565b63ffffffff8481165f9081526003830160205260409020805465ffffffffffff19164265ffffffffffff81169190911782558354939450909261071892600160a01b9091041690612159565b81546fffffffffffffffffffff0000000000001916600160301b65ffffffffffff928316810263ffffffff60601b191691909117600160601b4363ffffffff9081168202929092178086555f60018701819055600287018190556003870155604080518287168152948204909516602085015204811692820192909252908516907f7fa2eafb1052bc5d1d657d713f213ccea7c391fa66b0ec6b7d67cb1edb428afb9060600160405180910390a250505050565b5f6107d5611b09565b6001600160a01b039092165f90815260069290920160205250604090205460ff1690565b610802816117ff565b50565b5f5f61080f611b09565b63ffffffff84165f9081526003820160205260408120805492935091600160301b900465ffffffffffff16900361085957604051632390f0b760e01b815260040160405180910390fd5b8054600160301b900465ffffffffffff16421161087957505f9392505050565b610882846113b6565b8015610892575061089284610e3a565b949350505050565b6040805160c0810182525f80825260208201819052918101829052606081018290526080810182905260a08101829052906108d48361057b565b90506040518060c00160405280825f015165ffffffffffff168152602001826020015165ffffffffffff168152602001826040015163ffffffff16815260200182606001518152602001826080015181526020018260a00151815250915050919050565b5f610941611b09565b80549091506001600160a01b0316331461096d576040516263016560e71b815260040160405180910390fd5b6001600160a01b0382166109945760405163e6c4247b60e01b815260040160405180910390fd5b5f61099d611b09565b6001600160a01b0384165f90815260078201602052604090205490915060ff166109f1576008810180546001810182555f91825260209091200180546001600160a01b0319166001600160a01b0385161790555b6001600160a01b0383165f818152600783016020908152604091829020805460ff1916600190811790915591519182527f5f67f1ff8c05ab13f729a285bec42f79b12cb54a2e5430dcf6b3b9e1fe17b98a91015b60405180910390a2505050565b61080281610938565b5f829003610a7c57604051631423c0bd60e21b815260040160405180910390fd5b5f610a873383611b2d565b90505f610a92611b09565b63ffffffff88165f9081526003820160205260408120805492935091600160301b900465ffffffffffff169003610adc57604051632390f0b760e01b815260040160405180910390fd5b8054600160301b900465ffffffffffff16421115610b7a5763ffffffff88165f90815260098301602052604090205460ff16610b615763ffffffff88165f818152600984016020526040808220805460ff19166001179055517fcb2e9038e8780b5a84630b33939e8a92d0ed911844133a72f5f2d04a3ac4890f9190a2505050610e33565b604051637becc13f60e01b815260040160405180910390fd5b5f805b86811015610d53575f888883818110610b9857610b9861216c565b9050602002810190610baa9190612180565b610bb390612230565b6004860154815191925011610be5578051604051623321af60e31b815260048101919091526024015b60405180910390fd5b5f85600401825f015181548110610bfe57610bfe61216c565b5f9182526020808320604080518082018252600290940290910180546001600160a01b03908116808652600190920154168484015289549287015191516324aab5c360e01b8152939550849390926324aab5c392610c6a928e9265ffffffffffff1691906004016122e7565b5f60405180830381865afa158015610c84573d5f5f3e3d5ffd5b505050506040513d5f823e601f3d908101601f19168201604052610cab9190810190612318565b91509150815f03610cd5578351604051633bdcb9e560e11b81526004810191909152602401610bdc565b82602001516001600160a01b031663fb5f56588f8b846040518463ffffffff1660e01b8152600401610d0993929190612397565b5f604051808303815f87803b158015610d20575f5ffd5b505af1158015610d32573d5f5f3e3d5ffd5b505050508186610d429190612159565b955084600101945050505050610b7d565b505f1960ff891601610d7d5780826001015f828254610d729190612159565b90915550610dd09050565b60ff8816610d985780826002015f828254610d729190612159565b60011960ff891601610db75780826003015f828254610d729190612159565b604051638eed55d160e01b815260040160405180910390fd5b8863ffffffff16846001600160a01b03167fe82b577bd384111662dd034b9114cbe59b26ea201f009d385006518ed28bed818a60ff166002811115610e1757610e176123c6565b84604051610e269291906123da565b60405180910390a3505050505b5050505050565b5f5f610e44611b09565b63ffffffff84165f9081526003820160205260408120805492935091600160301b900465ffffffffffff169003610e8e57604051632390f0b760e01b815260040160405180910390fd5b816002015481600201548260010154610ea79190612159565b610eb19190612404565b620f42408260010154610ec49190612404565b11949350505050565b6060610ed7611b09565b600401805480602002602001604051908101604052809291908181526020015f905b82821015610f43575f848152602090819020604080518082019091526002850290910180546001600160a01b03908116835260019182015416828401529083529092019101610ef9565b50505050905090565b5f610f55611b09565b60010154905090565b5f5f5f610f69611b09565b63ffffffff85165f9081526003820160205260408120805492935091600160301b900465ffffffffffff169003610fb357604051632390f0b760e01b815260040160405180910390fd5b5465ffffffffffff80821696600160301b90920416945092505050565b5f5f610fda611b09565b63ffffffff84165f9081526003820160205260408120805492935091600160301b900465ffffffffffff16900361102457604051632390f0b760e01b815260040160405180910390fd5b54600160601b900463ffffffff169392505050565b5f81810361104857505f6112fd565b5f611051611b09565b63ffffffff87165f9081526003820160205260408120805492935091600160301b900465ffffffffffff16900361108c575f925050506112fd565b63ffffffff87165f90815260098301602052604090205460ff16156110b5575f925050506112fd565b60028660ff1611156110cb575f925050506112fd565b5f805b858110156112f5575f8787838181106110e9576110e961216c565b90506020028101906110fb9190612180565b61110490612230565b6004860154815191925011611120575f955050505050506112fd565b5f85600401825f0151815481106111395761113961216c565b905f5260205f2090600202016040518060400160405290815f82015f9054906101000a90046001600160a01b03166001600160a01b03166001600160a01b03168152602001600182015f9054906101000a90046001600160a01b03166001600160a01b03166001600160a01b03168152505090505f815f01516001600160a01b03166377827f698e885f015f9054906101000a900465ffffffffffff1686602001516040518463ffffffff1660e01b81526004016111f9939291906122e7565b602060405180830381865afa158015611214573d5f5f3e3d5ffd5b505050506040513d601f19601f82011682018060405250810190611238919061241b565b9050805f03611250575f9750505050505050506112fd565b81602001516001600160a01b0316630ee1bc028d8f86602001516040518463ffffffff1660e01b815260040161128893929190612397565b602060405180830381865afa1580156112a3573d5f5f3e3d5ffd5b505050506040513d601f19601f820116820180604052508101906112c79190612432565b156112db575f9750505050505050506112fd565b6112e58186612159565b94508360010193505050506110ce565b501515925050505b95945050505050565b604080518082019091525f80825260208201525f611322611b09565b6004810154909150831061134b57604051623321af60e31b815260048101849052602401610bdc565b8060040183815481106113605761136061216c565b5f9182526020918290206040805180820190915260029092020180546001600160a01b03908116835260019091015416918101919091529392505050565b5f6113ac8686868686611039565b9695505050505050565b5f5f6113c0611b09565b63ffffffff84165f9081526003820160205260408120805492935091600160301b900465ffffffffffff16900361140a57604051632390f0b760e01b815260040160405180910390fd5b5f8160030154826001015461141f9190612159565b60019093015490921015949350505050565b7ff0c57e16840df040f15088dc2f81fe391c3923bec73e23a9662efc9c229c6a00805460029190600160401b900460ff168061147a575080546001600160401b03808416911610155b156114985760405163f92ee8a960e01b815260040160405180910390fd5b805468ffffffffffffffffff19166001600160401b03831617600160401b1781555f8390036114da57604051631423c0bd60e21b815260040160405180910390fd5b5f6114e3611b09565b80546001600160a01b0319166001600160a01b03881617815590505f5b84811015611555578160040186868381811061151e5761151e61216c565b83546001810185555f948552602090942060409091029290920192600202909101905061154b8282612471565b5050600101611500565b5050805460ff60401b191681556040516001600160401b03831681527fc7f505b2f371ae2175ee4913f4499e1f2633a7b5936321eed1cdaeb6115181d29060200160405180910390a15050505050565b60606115af610627565b905090565b5f6115bd611b09565b60020154905090565b7ff0c57e16840df040f15088dc2f81fe391c3923bec73e23a9662efc9c229c6a008054600160401b810460ff1615906001600160401b03165f8115801561160a5750825b90505f826001600160401b031660011480156116255750303b155b905081158015611633575080155b156116515760405163f92ee8a960e01b815260040160405180910390fd5b845467ffffffffffffffff19166001178555831561167b57845460ff60401b1916600160401b1785555b5f87900361169c57604051633c467bf760e11b815260040160405180910390fd5b620f4240891015806116ba57506116b76002620f42406124a7565b89105b156116d8576040516302396b6b60e61b815260040160405180910390fd5b5f6116e1611b09565b805463ffffffff60a01b1916600160a01b63ffffffff8f1602178155600181018c9055600281018b9055905061171b600582018a8a611c5e565b50600a810180546001600160a01b0319166001600160a01b0389161790555f5b888110156117a0576001826006015f8c8c8581811061175c5761175c61216c565b90506020020160208101906117719190611dea565b6001600160a01b0316815260208101919091526040015f20805460ff191691151591909117905560010161173b565b505083156117e857845460ff60401b19168555604051600181527fc7f505b2f371ae2175ee4913f4499e1f2633a7b5936321eed1cdaeb6115181d29060200160405180910390a15b5050505050505050505050565b5f6104f082611a11565b5f611808611b09565b80549091506001600160a01b03163314611834576040516263016560e71b815260040160405180910390fd5b6001600160a01b03821661185b5760405163e6c4247b60e01b815260040160405180910390fd5b5f611864611b09565b6001600160a01b0384165f90815260078201602052604090205490915060ff161561198b575f5b600882015481101561198957836001600160a01b03168260080182815481106118b6576118b661216c565b5f918252602090912001546001600160a01b031603611981576008820180546118e1906001906124c6565b815481106118f1576118f161216c565b5f918252602090912001546008830180546001600160a01b03909216918390811061191e5761191e61216c565b905f5260205f20015f6101000a8154816001600160a01b0302191690836001600160a01b031602179055508160080180548061195c5761195c6124d9565b5f8281526020902081015f1990810180546001600160a01b0319169055019055611989565b60010161188b565b505b6001600160a01b0383165f8181526007830160209081526040808320805460ff19169055519182527f5f67f1ff8c05ab13f729a285bec42f79b12cb54a2e5430dcf6b3b9e1fe17b98a9101610a45565b5f6115af611a3b565b5f6119ed611b09565b6001600160a01b039092165f90815260079290920160205250604090205460ff1690565b5f611a1a611b09565b63ffffffff9092165f90815260099290920160205250604090205460ff1690565b5f611a44611b09565b546001600160a01b0316919050565b5f5f611a5d611b09565b6001600160a01b0386165f90815260068201602052604090205490915060ff16611a9a5760405163fefb97a960e01b815260040160405180910390fd5b6040516321cc22df60e11b81526001600160a01b0386169063439845be90611aca908990889088906004016124ed565b602060405180830381865afa158015611ae5573d5f5f3e3d5ffd5b505050506040513d601f19601f820116820180604052508101906113ac9190612432565b7f95295deadfd7c71125b4fbd75b5d49605029b50806f286522633fd9c072a470090565b5f815f03611b3c5750816104f0565b5f611b45611b09565b600a8101549091506001600160a01b0316611b6357839150506104f0565b600a8101546040516001600160a01b038681166024830152604482018690525f92839291169060640160408051601f198184030181529181526020820180516001600160e01b031663119709c360e31b17905251611bc1919061252c565b5f60405180830381855afa9150503d805f8114611bf9576040519150601f19603f3d011682016040523d82523d5f602084013e611bfe565b606091505b5091509150818015611c11575080516020145b15611c54575f81806020019051810190611c2b9190612542565b9050866001600160a01b0316816001600160a01b031603611c5257869450505050506104f0565b505b5093949350505050565b828054828255905f5260205f20908101928215611caf579160200282015b82811115611caf5781546001600160a01b0319166001600160a01b03843516178255602090920191600190910190611c7c565b50611cbb929150611cbf565b5090565b5b80821115611cbb575f8155600101611cc0565b5f60208284031215611ce3575f5ffd5b81356001600160e01b031981168114611cfa575f5ffd5b9392505050565b602080825282518282018190525f918401906040840190835b81811015611d415783516001600160a01b0316835260209384019390920191600101611d1a565b509095945050505050565b803563ffffffff81168114611d5f575f5ffd5b919050565b5f60208284031215611d74575f5ffd5b611cfa82611d4c565b60c081016104f0828465ffffffffffff815116825265ffffffffffff602082015116602083015263ffffffff6040820151166040830152606081015160608301526080810151608083015260a081015160a08301525050565b6001600160a01b0381168114610802575f5ffd5b5f60208284031215611dfa575f5ffd5b8135611cfa81611dd6565b803560ff81168114611d5f575f5ffd5b5f5f83601f840112611e25575f5ffd5b5081356001600160401b03811115611e3b575f5ffd5b6020830191508360208260051b8501011115611e55575f5ffd5b9250929050565b5f5f5f5f5f60808688031215611e70575f5ffd5b611e7986611d4c565b9450611e8760208701611e05565b935060408601356001600160401b03811115611ea1575f5ffd5b611ead88828901611e15565b96999598509660600135949350505050565b602080825282518282018190525f918401906040840190835b81811015611d4157611f0183855180516001600160a01b03908116835260209182015116910152565b6020939093019260409290920191600101611ed8565b5f5f5f5f5f60808688031215611f2b575f5ffd5b8535611f3681611dd6565b9450611f4460208701611d4c565b9350611f5260408701611e05565b925060608601356001600160401b03811115611f6c575f5ffd5b611f7888828901611e15565b969995985093965092949392505050565b5f60208284031215611f99575f5ffd5b5035919050565b604081016104f0828480516001600160a01b03908116835260209182015116910152565b5f5f5f60408486031215611fd6575f5ffd5b8335611fe181611dd6565b925060208401356001600160401b03811115611ffb575f5ffd5b8401601f8101861361200b575f5ffd5b80356001600160401b03811115612020575f5ffd5b8660208260061b8401011115612034575f5ffd5b939660209190910195509293505050565b5f5f5f5f5f5f60a0878903121561205a575f5ffd5b61206387611d4c565b9550602087013594506040870135935060608701356001600160401b0381111561208b575f5ffd5b61209789828a01611e15565b90945092505060808701356120ab81611dd6565b809150509295509295509295565b5f5f5f5f606085870312156120cc575f5ffd5b84356120d781611dd6565b935060208501356120e781611dd6565b925060408501356001600160401b03811115612101575f5ffd5b8501601f81018713612111575f5ffd5b80356001600160401b03811115612126575f5ffd5b876020828401011115612137575f5ffd5b949793965060200194505050565b634e487b7160e01b5f52601160045260245ffd5b808201808211156104f0576104f0612145565b634e487b7160e01b5f52603260045260245ffd5b5f8235603e19833603018112612194575f5ffd5b9190910192915050565b634e487b7160e01b5f52604160045260245ffd5b604080519081016001600160401b03811182821017156121d4576121d461219e565b60405290565b604051601f8201601f191681016001600160401b03811182821017156122025761220261219e565b604052919050565b5f6001600160401b038211156122225761222261219e565b50601f01601f191660200190565b5f60408236031215612240575f5ffd5b6122486121b2565b8235815260208301356001600160401b03811115612264575f5ffd5b830136601f820112612274575f5ffd5b80356122876122828261220a565b6121da565b81815236602083850101111561229b575f5ffd5b816020840160208301375f6020928201830152908301525092915050565b5f81518084528060208401602086015e5f602082860101526020601f19601f83011685010191505092915050565b6001600160a01b038416815265ffffffffffff831660208201526060604082018190525f906112fd908301846122b9565b5f5f60408385031215612329575f5ffd5b825160208401519092506001600160401b03811115612346575f5ffd5b8301601f81018513612356575f5ffd5b80516123646122828261220a565b818152866020838501011115612378575f5ffd5b8160208401602083015e5f602083830101528093505050509250929050565b63ffffffff841681526001600160a01b03831660208201526060604082018190525f906112fd908301846122b9565b634e487b7160e01b5f52602160045260245ffd5b60408101600384106123fa57634e487b7160e01b5f52602160045260245ffd5b9281526020015290565b80820281158282048414176104f0576104f0612145565b5f6020828403121561242b575f5ffd5b5051919050565b5f60208284031215612442575f5ffd5b81518015158114611cfa575f5ffd5b80546001600160a01b0319166001600160a01b0392909216919091179055565b813561247c81611dd6565b6124868183612451565b50602082013561249581611dd6565b6124a28160018401612451565b505050565b5f826124c157634e487b7160e01b5f52601260045260245ffd5b500490565b818103818111156104f0576104f0612145565b634e487b7160e01b5f52603160045260245ffd5b6001600160a01b03841681526040602082018190528101829052818360608301375f818301606090810191909152601f909201601f1916010192915050565b5f82518060208501845e5f920191825250919050565b5f60208284031215612552575f5ffd5b8151611cfa81611dd656fea26469706673582212201105bca4e902ab8ca7996044d0db00b581db06d4b1585268c6aaa4897e77ebd464736f6c634300081f0033","linkReferences":{}},"methodIdentifiers":{"BASIS_DENOMINATOR()":"8081be91","addAuthorizedFreezeVoter(address)":"61e362a1","addFreezeVoter(address)":"5ecc8206","admin()":"f851a440","authorizedFreezeVoters()":"bf163700","basisNumerator()":"bf7e2c7f","castVote(uint32,uint8,(uint256,bytes)[],uint256)":"68cde22d","freezeVoters()":"2a0b5082","getVotingStartBlock(uint32)":"8934517b","getVotingTimestamps(uint32)":"7bac5a78","initialize(uint32,uint256,uint256,address[],address)":"c298bd15","initialize2(address,(address,address)[])":"b8ec35f0","initializeProposal(uint32)":"3b21c3f2","isAuthorizedFreezeVoter(address)":"e16e8256","isBasisMet(uint32)":"726e5316","isPassed(uint32)":"53a8b320","isProposer(address,address,bytes)":"fb21fe4e","isProposerAdapter(address)":"4781d1b4","isQuorumMet(uint32)":"b50c0c11","lateVoteCast(uint32)":"e8c643c3","proposalVoting(uint32)":"1ffc08ea","proposalVotingDetails(uint32)":"57fe8fa1","proposerAdapters()":"0b750f76","quorumThreshold()":"7b7a91dd","removeAuthorizedFreezeVoter(address)":"5326b4a6","removeFreezeVoter(address)":"cf863cb0","strategyAdmin()":"d4bf857f","supportsInterface(bytes4)":"01ffc9a7","validStrategyVote(address,uint32,uint8,(uint256,bytes)[])":"b0a7b6e9","validVote(address,uint32,uint8,(uint256,bytes)[])":"922fcb0a","voteCastedAfterVotingPeriodEnded(uint32)":"cd4e4235","votingConfig(uint256)":"9726f7bd","votingConfigs()":"728eacf4","votingPeriod()":"02a251a3"},"id":22}