{"abi":[{"type":"constructor","inputs":[{"name":"_vePARS","type":"address","internalType":"address"},{"name":"_multiplier","type":"uint256","internalType":"uint256"}],"stateMutability":"nonpayable"},{"type":"function","name":"calculateWeight","inputs":[{"name":"voter_","type":"address","internalType":"address"},{"name":"timestamp_","type":"uint256","internalType":"uint256"},{"name":"voteData_","type":"bytes","internalType":"bytes"}],"outputs":[{"name":"weight","type":"uint256","internalType":"uint256"},{"name":"processedData","type":"bytes","internalType":"bytes"}],"stateMutability":"view"},{"type":"function","name":"getVotingPower","inputs":[{"name":"voter","type":"address","internalType":"address"}],"outputs":[{"name":"votingPower","type":"uint256","internalType":"uint256"}],"stateMutability":"view"},{"type":"function","name":"getVotingWeightForPaymaster","inputs":[{"name":"voter_","type":"address","internalType":"address"},{"name":"timestamp_","type":"uint256","internalType":"uint256"},{"name":"voteData_","type":"bytes","internalType":"bytes"}],"outputs":[{"name":"weight","type":"uint256","internalType":"uint256"}],"stateMutability":"view"},{"type":"function","name":"supportsInterface","inputs":[{"name":"interfaceId","type":"bytes4","internalType":"bytes4"}],"outputs":[{"name":"","type":"bool","internalType":"bool"}],"stateMutability":"pure"},{"type":"function","name":"vePARS","inputs":[],"outputs":[{"name":"","type":"address","internalType":"address"}],"stateMutability":"view"},{"type":"function","name":"weightMultiplier","inputs":[],"outputs":[{"name":"","type":"uint256","internalType":"uint256"}],"stateMutability":"view"}],"bytecode":{"object":"0x60c060405234801561000f575f5ffd5b506040516107c03803806107c083398101604081905261002e916100d5565b6001600160a01b03821661007b5760405162461bcd60e51b815260206004820152600f60248201526e496e76616c6964206164647265737360881b60448201526064015b60405180910390fd5b5f81116100bf5760405162461bcd60e51b815260206004820152601260248201527124b73b30b634b21036bab63a34b83634b2b960711b6044820152606401610072565b6001600160a01b0390911660805260a05261010c565b5f5f604083850312156100e6575f5ffd5b82516001600160a01b03811681146100fc575f5ffd5b6020939093015192949293505050565b60805160a05161067f6101415f395f818161011201528181610199015261027401525f8181609101526102a8015261067f5ff3fe608060405234801561000f575f5ffd5b5060043610610060575f3560e01c806301ffc9a71461006457806312e0a70a1461008c57806324aab5c3146100cb57806377827f69146100ec578063b50968561461010d578063bb4d443614610134575b5f5ffd5b6100776100723660046103a0565b610147565b60405190151581526020015b60405180910390f35b6100b37f000000000000000000000000000000000000000000000000000000000000000081565b6040516001600160a01b039091168152602001610083565b6100de6100d93660046103e9565b61017d565b60405161008392919061046c565b6100ff6100fa3660046103e9565b6101e4565b604051908152602001610083565b6100ff7f000000000000000000000000000000000000000000000000000000000000000081565b6100ff6101423660046104a8565b61025a565b5f6001600160e01b03198216632994655560e11b148061017757506001600160e01b031982166301ffc9a760e01b145b92915050565b5f6060610189866102a3565b9150670de0b6b3a76400006101be7f0000000000000000000000000000000000000000000000000000000000000000846104c1565b6101c891906104e4565b915060405180602001604052805f815250905094509492505050565b6040516324aab5c360e01b81525f9030906324aab5c39061020f908890889088908890600401610503565b5f60405180830381865afa158015610229573d5f5f3e3d5ffd5b505050506040513d5f823e601f3d908101601f19168201604052610250919081019061055e565b5095945050505050565b5f610264826102a3565b9050670de0b6b3a76400006102997f0000000000000000000000000000000000000000000000000000000000000000836104c1565b61017791906104e4565b5f5f5f7f00000000000000000000000000000000000000000000000000000000000000006001600160a01b0316846040516024016102f091906001600160a01b0391909116815260200190565b60408051601f198184030181529181526020820180516001600160e01b03166370a0823160e01b17905251610325919061061c565b5f60405180830381855afa9150503d805f811461035d576040519150601f19603f3d011682016040523d82523d5f602084013e610362565b606091505b509150915081801561037657506020815110155b15610397578080602001905181019061038f9190610632565b949350505050565b505f9392505050565b5f602082840312156103b0575f5ffd5b81356001600160e01b0319811681146103c7575f5ffd5b9392505050565b80356001600160a01b03811681146103e4575f5ffd5b919050565b5f5f5f5f606085870312156103fc575f5ffd5b610405856103ce565b935060208501359250604085013567ffffffffffffffff811115610427575f5ffd5b8501601f81018713610437575f5ffd5b803567ffffffffffffffff81111561044d575f5ffd5b87602082840101111561045e575f5ffd5b949793965060200194505050565b828152604060208201525f82518060408401528060208501606085015e5f606082850101526060601f19601f8301168401019150509392505050565b5f602082840312156104b8575f5ffd5b6103c7826103ce565b808202811582820484141761017757634e487b7160e01b5f52601160045260245ffd5b5f826104fe57634e487b7160e01b5f52601260045260245ffd5b500490565b6001600160a01b0385168152602081018490526060604082018190528101829052818360808301375f818301608090810191909152601f909201601f191601019392505050565b634e487b7160e01b5f52604160045260245ffd5b5f5f6040838503121561056f575f5ffd5b8251602084015190925067ffffffffffffffff81111561058d575f5ffd5b8301601f8101851361059d575f5ffd5b805167ffffffffffffffff8111156105b7576105b761054a565b604051601f8201601f19908116603f0116810167ffffffffffffffff811182821017156105e6576105e661054a565b6040528181528282016020018710156105fd575f5ffd5b8160208401602083015e5f602083830101528093505050509250929050565b5f82518060208501845e5f920191825250919050565b5f60208284031215610642575f5ffd5b505191905056fea2646970667358221220775a26de4470b0f8c61ea50a11cd685de261a1d5fd360cec65a7ab7c70ae9a0264736f6c634300081f0033","linkReferences":{}},"methodIdentifiers":{"calculateWeight(address,uint256,bytes)":"24aab5c3","getVotingPower(address)":"bb4d4436","getVotingWeightForPaymaster(address,uint256,bytes)":"77827f69","supportsInterface(bytes4)":"01ffc9a7","vePARS()":"12e0a70a","weightMultiplier()":"b5096856"},"id":157}