{"abi":[{"type":"constructor","inputs":[],"stateMutability":"nonpayable"},{"type":"function","name":"computeSafeAddress","inputs":[{"name":"owners","type":"address[]","internalType":"address[]"},{"name":"threshold","type":"uint256","internalType":"uint256"},{"name":"saltNonce","type":"uint256","internalType":"uint256"}],"outputs":[{"name":"predicted","type":"address","internalType":"address"}],"stateMutability":"view"},{"type":"function","name":"createSafe","inputs":[{"name":"owners","type":"address[]","internalType":"address[]"},{"name":"threshold","type":"uint256","internalType":"uint256"},{"name":"saltNonce","type":"uint256","internalType":"uint256"}],"outputs":[{"name":"safe","type":"address","internalType":"address"}],"stateMutability":"nonpayable"},{"type":"function","name":"fallbackHandler","inputs":[],"outputs":[{"name":"","type":"address","internalType":"contract CompatibilityFallbackHandler"}],"stateMutability":"view"},{"type":"function","name":"getInfrastructure","inputs":[],"outputs":[{"name":"singleton","type":"address","internalType":"address"},{"name":"factory","type":"address","internalType":"address"},{"name":"handler","type":"address","internalType":"address"},{"name":"multi","type":"address","internalType":"address"},{"name":"multiCallOnly","type":"address","internalType":"address"}],"stateMutability":"view"},{"type":"function","name":"multiSend","inputs":[],"outputs":[{"name":"","type":"address","internalType":"contract MultiSend"}],"stateMutability":"view"},{"type":"function","name":"multiSendCallOnly","inputs":[],"outputs":[{"name":"","type":"address","internalType":"contract MultiSendCallOnly"}],"stateMutability":"view"},{"type":"function","name":"safeProxyFactory","inputs":[],"outputs":[{"name":"","type":"address","internalType":"contract SafeProxyFactory"}],"stateMutability":"view"},{"type":"function","name":"safeSingleton","inputs":[],"outputs":[{"name":"","type":"address","internalType":"contract SafeL2"}],"stateMutability":"view"},{"type":"event","name":"InfrastructureDeployed","inputs":[{"name":"singleton","type":"address","indexed":true,"internalType":"address"},{"name":"factory","type":"address","indexed":true,"internalType":"address"},{"name":"fallbackHandler","type":"address","indexed":true,"internalType":"address"},{"name":"multiSend","type":"address","indexed":false,"internalType":"address"},{"name":"multiSendCallOnly","type":"address","indexed":false,"internalType":"address"}],"anonymous":false},{"type":"event","name":"SafeCreated","inputs":[{"name":"safe","type":"address","indexed":true,"internalType":"address"},{"name":"owners","type":"address[]","indexed":false,"internalType":"address[]"},{"name":"threshold","type":"uint256","indexed":false,"internalType":"uint256"}],"anonymous":false}],"bytecode":{"object":"0x608060405234801561000f575f5ffd5b5060405161001c906101c3565b604051809103905ff080158015610035573d5f5f3e3d5ffd5b505f80546001600160a01b0319166001600160a01b0392909216919091179055604051610061906101d0565b604051809103905ff08015801561007a573d5f5f3e3d5ffd5b50600180546001600160a01b0319166001600160a01b03929092169190911790556040516100a7906101dd565b604051809103905ff0801580156100c0573d5f5f3e3d5ffd5b50600280546001600160a01b0319166001600160a01b03929092169190911790556040516100ed906101ea565b604051809103905ff080158015610106573d5f5f3e3d5ffd5b50600380546001600160a01b0319166001600160a01b0392909216919091179055604051610133906101f7565b604051809103905ff08015801561014c573d5f5f3e3d5ffd5b50600480546001600160a01b0319166001600160a01b039283169081179091556002546001545f54600354604080519187168252602082019590955292851694918216939116917f545a20389576ed4dfaf9228ed3cffd18af195ba16e57b1d8ed028071d3f64ef8910160405180910390a4610204565b612efa80610a1183390190565b6107d48061390b83390190565b6110cb806140df83390190565b610284806151aa83390190565b6101d38061542e83390190565b610800806102115f395ff3fe608060405234801561000f575f5ffd5b5060043610610085575f3560e01c8063ac7d146b11610058578063ac7d146b14610128578063acb242f41461013a578063e49cda081461014d578063eed2f25214610160575f5ffd5b806319964501146100895780632c1aae55146100b957806339205bb2146100cc5780637213ab6314610115575b5f5ffd5b60015461009c906001600160a01b031681565b6040516001600160a01b0390911681526020015b60405180910390f35b61009c6100c7366004610524565b610173565b5f54600154600254600354600454604080516001600160a01b0396871681529486166020860152928516928401929092528316606083015291909116608082015260a0016100b0565b60045461009c906001600160a01b031681565b5f5461009c906001600160a01b031681565b61009c610148366004610524565b610325565b60035461009c906001600160a01b031681565b60025461009c906001600160a01b031681565b5f5f8451116101b55760405162461bcd60e51b81526020600482015260096024820152684e6f206f776e65727360b81b60448201526064015b60405180910390fd5b5f831180156101c5575083518311155b6102055760405162461bcd60e51b8152602060048201526011602482015270125b9d985b1a59081d1a1c995cda1bdb19607a1b60448201526064016101ac565b6002546040515f9161022f918791879185916001600160a01b03169082908190819060240161062b565b60408051601f198184030181529181526020820180516001600160e01b031663b63e800d60e01b1790526001545f80549251631688f0b960e01b8152939450926001600160a01b0391821692631688f0b992610294929116908690899060040161068e565b6020604051808303815f875af11580156102b0573d5f5f3e3d5ffd5b505050506040513d601f19601f820116820180604052508101906102d491906106d9565b9050809250826001600160a01b03167f41207aff95bbc089c92aec25d9e700518a46c1cc36c8d058c40e44018188a3fe87876040516103149291906106fb565b60405180910390a250509392505050565b6002546040515f918291610353918791879185916001600160a01b039091169082908190819060240161062b565b60408051601f19818403018152918152602080830180516001600160e01b031663b63e800d60e01b178152835190208251918201529081018590529091505f906060016040516020818303038152906040528051906020012090505f60015f9054906101000a90046001600160a01b03166001600160a01b03166353e5d9356040518163ffffffff1660e01b81526004015f60405180830381865afa1580156103fe573d5f5f3e3d5ffd5b505050506040513d5f823e601f3d908101601f19168201604052610425919081019061071c565b5f8054604051929350909161044a9184916001600160a01b03909116906020016107b0565b60408051601f198184030181529082905260015481516020808401919091206001600160f81b03199185019190915260609190911b6bffffffffffffffffffffffff19166021840152603583018690526055830152915060750160408051601f19818403018152919052805160209091012098975050505050505050565b634e487b7160e01b5f52604160045260245ffd5b604051601f8201601f1916810167ffffffffffffffff81118282101715610505576105056104c8565b604052919050565b6001600160a01b0381168114610521575f5ffd5b50565b5f5f5f60608486031215610536575f5ffd5b833567ffffffffffffffff81111561054c575f5ffd5b8401601f8101861361055c575f5ffd5b803567ffffffffffffffff811115610576576105766104c8565b8060051b610586602082016104dc565b918252602081840181019290810190898411156105a1575f5ffd5b6020850194505b838510156105cf57843592506105bd8361050d565b828252602094850194909101906105a8565b9960208901359950604090980135979650505050505050565b5f8151808452602084019350602083015f5b828110156106215781516001600160a01b03168652602095860195909101906001016105fa565b5093949350505050565b61010081525f61063f61010083018a6105e8565b6020838101999099526001600160a01b03978816604084015282810360608401525f815295871660808301525092851660a084015260c083019190915290921660e09092019190915201919050565b60018060a01b0384168152606060208201525f83518060608401528060208601608085015e5f608082850101526080601f19601f830116840101915050826040830152949350505050565b5f602082840312156106e9575f5ffd5b81516106f48161050d565b9392505050565b604081525f61070d60408301856105e8565b90508260208301529392505050565b5f6020828403121561072c575f5ffd5b815167ffffffffffffffff811115610742575f5ffd5b8201601f81018413610752575f5ffd5b805167ffffffffffffffff81111561076c5761076c6104c8565b61077f601f8201601f19166020016104dc565b818152856020838501011115610793575f5ffd5b8160208401602083015e5f91810160200191909152949350505050565b5f83518060208601845e919091019182525060200191905056fea26469706673582212205af2ca2a7b988d7d41f01897d5d57e3e2d6803a1f53aed1c2de34e7901f593da64736f6c634300081f00336080604052348015600e575f5ffd5b506001600455612ed9806100215f395ff3fe6080604052600436106101db575f3560e01c8063affed0e011610101578063e19a9dd911610094578063f698da2511610063578063f698da2514610610578063f855438b1461065a578063f8dc5dd914610679578063ffa1ad741461069857610217565b8063e19a9dd91461059f578063e318b52b146105be578063e75235b8146105dd578063f08a0323146105f157610217565b8063d4d9bdcd116100d0578063d4d9bdcd14610523578063d8d11f7814610542578063e009cfde14610561578063e068df371461058057610217565b8063affed0e0146104a3578063b4faba09146104b8578063b63e800d146104d7578063cc2f8452146104f657610217565b80635624b25b116101795780636a761202116101485780636a7612021461041a5780637d8329741461042d578063934f3a1114610463578063a0e67e2b1461048257610217565b80635624b25b146103775780635ae6bd37146103a3578063610b5925146103dc578063694e80c3146103fb57610217565b80632d9ad53d116101b55780632d9ad53d146102d85780632f54bf6e1461030c578063468721a71461032b5780635229073f1461034a57610217565b80630d582f131461027957806312fb68e01461029a5780631fcac7f3146102b957610217565b366102175760405134815233907f3d0ce9bfc3ed7d6862dbb28b2dea94561fe714a1b4d019aa8af39730d1ad7c3d9060200160405180910390a2005b348015610222575f5ffd5b507f6c9a6c4a39284e37ed1cf53d337577d14212a4870fb976a4366c693b939918d5548061024c57005b604051365f82373360601b368201525f5f60143601835f865af191503d5f823e81610275573d81fd5b3d81f35b348015610284575f5ffd5b50610298610293366004612316565b6106c8565b005b3480156102a5575f5ffd5b506102986102b4366004612421565b610794565b3480156102c4575f5ffd5b506102986102d3366004612499565b6107a7565b3480156102e3575f5ffd5b506102f76102f23660046124f5565b610a38565b60405190151581526020015b60405180910390f35b348015610317575f5ffd5b506102f76103263660046124f5565b610a71565b348015610336575f5ffd5b506102f761034536600461251e565b610aa8565b348015610355575f5ffd5b5061036961036436600461251e565b610ae0565b6040516103039291906125b1565b348015610382575f5ffd5b506103966103913660046125d3565b610b33565b60405161030391906125f3565b3480156103ae575f5ffd5b506103ce6103bd366004612605565b60076020525f908152604090205481565b604051908152602001610303565b3480156103e7575f5ffd5b506102986103f63660046124f5565b610ba6565b348015610406575f5ffd5b50610298610415366004612605565b610c9d565b6102f761042836600461261c565b610d13565b348015610438575f5ffd5b506103ce610447366004612316565b600860209081525f928352604080842090915290825290205481565b34801561046e575f5ffd5b5061029861047d3660046126ec565b611009565b34801561048d575f5ffd5b5061049661101a565b60405161030391906127a0565b3480156104ae575f5ffd5b506103ce60055481565b3480156104c3575f5ffd5b506102986104d23660046127b2565b611105565b3480156104e2575f5ffd5b506102986104f13660046127fe565b61112a565b348015610501575f5ffd5b50610515610510366004612316565b611228565b6040516103039291906128ed565b34801561052e575f5ffd5b5061029861053d366004612605565b6113a4565b34801561054d575f5ffd5b506103ce61055c366004612916565b611418565b34801561056c575f5ffd5b5061029861057b3660046129d3565b6114ed565b34801561058b575f5ffd5b5061029861059a3660046124f5565b6115cd565b3480156105aa575f5ffd5b506102986105b93660046124f5565b6116c7565b3480156105c9575f5ffd5b506102986105d8366004612a0a565b6117c1565b3480156105e8575f5ffd5b506004546103ce565b3480156105fc575f5ffd5b5061029861060b3660046124f5565b611890565b34801561061b575f5ffd5b50604080517f47e79534a245952e8b16893a336b85a3d9ea9fa8c573f3d803afb92a7946921881524660208201523091810191909152606090206103ce565b348015610665575f5ffd5b50610298610674366004612a52565b6118d7565b348015610684575f5ffd5b50610298610693366004612aa6565b6118ff565b3480156106a3575f5ffd5b50610396604051806040016040528060058152602001640312e352e360dc1b81525081565b6106d06119be565b6106d9826119d8565b60026020527fe90b7bceb6e7df5418fb78d8ee546e97c83a08bbccc01a0644d599ccd2a7c2e080546001600160a01b038481165f818152604081208054939094166001600160a01b031993841617909355600183528354909116179091556003805490919061074790612af8565b909155506040516001600160a01b038316907f9465fa0c962cc76958e6373a993326400c1c94f8be2fe3a952adfa7f60b2ea26905f90a280600454146107905761079081610c9d565b5050565b6107a0338684846107a7565b5050505050565b6107b2816041611a14565b825110156107cb576107cb64047533032360dc1b611a4b565b5f80808080805b86811015610a2c57604181028801602081015160408201516060909201515f90811a965090945090925084900361083c579193508391610813876041611a14565b82101561082b5761082b64475330323160d81b611a4b565b610837858a8a85611a70565b6109bd565b836001036108a157825f1c9450846001600160a01b03168a6001600160a01b03161415801561088b57506001600160a01b0385165f9081526008602090815260408083208c8452909152902054155b156108375761083764475330323560d81b611a4b565b601e841115610960576040517f19457468657265756d205369676e6564204d6573736167653a0a3332000000006020820152603c81018a9052600190605c01604051602081830303815290604052805190602001206004866109039190612b10565b604080515f8152602081018083529390935260ff90911690820152606081018590526080810184905260a0016020604051602081039080840390855afa15801561094f573d5f5f3e3d5ffd5b5050506020604051035194506109bd565b604080515f8152602081018083528b905260ff861691810191909152606081018490526080810183905260019060a0016020604051602081039080840390855afa1580156109b0573d5f5f3e3d5ffd5b5050506020604051035194505b856001600160a01b0316856001600160a01b03161115806109f557506001600160a01b038581165f9081526002602052604090205416155b80610a0957506001600160a01b0385166001145b15610a1f57610a1f6423a998191b60d91b611a4b565b93945084936001016107d2565b50505050505050505050565b5f60016001600160a01b03831614801590610a6b57506001600160a01b038281165f908152600160205260409020541615155b92915050565b5f6001600160a01b03821660011480610aa157506001600160a01b038281165f9081526002602052604090205416155b1592915050565b5f5f5f610ab787878787611b72565b91509150610ac9878787875f19611c6d565b9250610ad6828285611cb1565b5050949350505050565b5f60605f5f610af188888888611b72565b91509150610b03888888885f19611c6d565b9350604051925060203d0183016040523d83523d5f602085013e610b28828286611cb1565b505094509492505050565b60605f600583901b6001600160401b03811115610b5257610b52612384565b6040519080825280601f01601f191660200182016040528015610b7c576020820181803683370190505b5090505f5b83811015610b9e5784810154602080830284010152600101610b81565b509392505050565b610bae6119be565b6001600160a01b0381161580610bcd57506001600160a01b0381166001145b15610be357610be364475331303160d81b611a4b565b6001600160a01b038181165f908152600160205260409020541615610c1357610c136423a998981960d91b611a4b565b600160208190527fcc69885fda6bcc1a4ace058b4a62bf5e179ea78fd58a1ccd71c22cc9b688792f80546001600160a01b038481165f81815260408082208054949095166001600160a01b031994851617909455948552835490911681179092555190917fecdf3a3effea5783a3c4c2140e677577666428d44ed9d474a0b3a4c9943f844091a250565b610ca56119be565b600354811115610cc057610cc064475332303160d81b611a4b565b805f03610cd857610cd86423a999181960d91b611a4b565b60048190556040518181527f610f7ff2b304ae8903c3de74c60c6ab1f7d6226b3f52c5161905bb5ad4039c939060200160405180910390a150565b5f610d278c8c8c8c8c8c8c8c8c8c8c611d82565b5f610d508d8d8d8d8d8d8d8d8d8d60055f815480929190610d4790612af8565b91905055611418565b9050610d5d3382856118d7565b5f610d867f4a204f620c8c5ccdca3fd54d003badd85ba500436a431f0cbda4f558c93c34c85490565b90506001600160a01b03811615610e0757806001600160a01b03166375f0bb528f8f8f8f8f8f8f8f8f8f8f336040518d63ffffffff1660e01b8152600401610dd99c9b9a99989796959493929190612b7f565b5f604051808303815f87803b158015610df0575f5ffd5b505af1158015610e02573d5f5f3e3d5ffd5b505050505b610e2b610e168a6109c4612c18565b610e25603f60068d901b612c2b565b90611e12565b610e37906101f4612c18565b5a1015610e4f57610e4f64047533031360dc1b611a4b565b5f5a9050610ebd8f8f8f8f8080601f0160208091040260200160405190810160405280939291908181526020018383808284375f81840152601f19601f820116905080830192505050505050508e8c5f14610eaa578e611c6d565b6109c45a610eb89190612b10565b611c6d565b9350610eca5a8290611e28565b905083158015610ed8575089155b8015610ee2575087155b15610ef2576040513d5f823e3d81fd5b5f8815610f0957610f06828b8b8b8b611e3f565b90505b8415610f4e57837f442e715f626346e8c54381002da614f62bee8d27386535b2521ec8540898556e82604051610f4191815260200190565b60405180910390a2610f89565b837f23428b18acfb3ea64b08dc0c1d296ea9c09702c09083ca5272e64d115b687d2382604051610f8091815260200190565b60405180910390a25b50506001600160a01b03811615610ff857604051631264e26d60e31b81526004810183905283151560248201526001600160a01b038216906393271368906044015f604051808303815f87803b158015610fe1575f5ffd5b505af1158015610ff3573d5f5f3e3d5ffd5b505050505b50509b9a5050505050505050505050565b6110143385836118d7565b50505050565b60605f6003546001600160401b0381111561103757611037612384565b604051908082528060200260200182016040528015611060578160200160208202803683370190505b5060015f90815260026020527fe90b7bceb6e7df5418fb78d8ee546e97c83a08bbccc01a0644d599ccd2a7c2e054919250906001600160a01b03165b6001600160a01b0381166001146110fd57808383815181106110c0576110c0612c4a565b6001600160a01b039283166020918202929092018101919091529181165f9081526002909252604090912054166110f682612af8565b915061109c565b509092915050565b5f5f825160208401855af46040518181523d60208201523d5f604083013e60403d0181fd5b336001600160a01b03167f141df868a6331af528e38c83b7aa03edc19be66e37ae67f9285bf4f8e3c6a1a88b8b8b8b8960405161116b959493929190612c5e565b60405180910390a26111b08a8a808060200260200160405190810160405280939291908181526020018383602002808284375f920191909152508c9250611f34915050565b6001600160a01b038416156111c8576111c884612047565b6112078787878080601f0160208091040260200160405190810160405280939291908181526020018383808284375f9201919091525061208c92505050565b8115610a2c5761121b825f60018685611e3f565b5050505050505050505050565b60605f6001600160a01b03841660011480159061124b575061124984610a38565b155b156112615761126164475331303560d81b611a4b565b825f03611279576112796423a998981b60d91b611a4b565b826001600160401b0381111561129157611291612384565b6040519080825280602002602001820160405280156112ba578160200160208202803683370190505b506001600160a01b038086165f90815260016020526040812054929450911691505b6001600160a01b038216158015906112fe57506001600160a01b038216600114155b801561130957508381105b15611361578183828151811061132157611321612c4a565b6001600160a01b039283166020918202929092018101919091529281165f90815260019093526040909220549091169061135a81612af8565b90506112dc565b6001600160a01b038216600114611399578261137e600183612b10565b8151811061138e5761138e612c4a565b602002602001015191505b808352509250929050565b335f908152600260205260409020546001600160a01b03166113d1576113d164047533033360dc1b611a4b565b335f818152600860209081526040808320858452909152808220600190555183917ff2a0eb156472d1440255b0d7c1e19cc07115d1051fe605b0dce69acfec884d9c91a350565b5f5f61145a5f6040517f47e79534a245952e8b16893a336b85a3d9ea9fa8c573f3d803afb92a7946921881524660208201523060408201526060812091505090565b90506040518a8c8237998a207fbb8310d486368db6bd6f849402fdd73ad53d316b5a4b2644ad6efe0f941286d88b5260208b019d8e5260408b019c8d5260608b015260808a01989098525060a088019590955260c087019390935260e086019190915261010085015261012084015261014083015261016082209093526119018152919092526042601e90910120919050565b6114f56119be565b6001600160a01b038116158061151457506001600160a01b0381166001145b1561152a5761152a64475331303160d81b611a4b565b6001600160a01b038281165f9081526001602052604090205481169082161461155e5761155e64475331303360d81b611a4b565b6001600160a01b038181165f81815260016020526040808220805487861684528284208054919096166001600160a01b0319918216179095558383528054909416909355915190917faab4fa2b463f581b2b32cb3b7e3b704b9ce37cc209b5fb4d77e593ace405427691a25050565b6115d56119be565b6001600160a01b0381161580159061165757506040516301ffc9a760e01b8152630b0803db60e31b60048201526001600160a01b038216906301ffc9a790602401602060405180830381865afa158015611631573d5f5f3e3d5ffd5b505050506040513d601f19601f820116820180604052508101906116559190612cc9565b155b1561166d5761166d64475333303160d81b611a4b565b7fb104e0b93118902c651344349b610029d694cfdec91c589c91ebafbcd02899478190556040516001600160a01b038216907fcd1966d6be16bc0c030cc741a06c6e0efaf8d00de2c8b6a9e11827e125de8bb8905f90a250565b6116cf6119be565b6001600160a01b0381161580159061175157506040516301ffc9a760e01b815263736bd41d60e11b60048201526001600160a01b038216906301ffc9a790602401602060405180830381865afa15801561172b573d5f5f3e3d5ffd5b505050506040513d601f19601f8201168201806040525081019061174f9190612cc9565b155b156117675761176764047533330360dc1b611a4b565b7f4a204f620c8c5ccdca3fd54d003badd85ba500436a431f0cbda4f558c93c34c88190556040516001600160a01b038216907f1151116914515bc0891ff9047a6cb32cf902546f83066499bcf8ba33d2353fa2905f90a250565b6117c96119be565b6117d2816119d8565b6117dc838361215d565b6001600160a01b038281165f81815260026020526040808220805486861680855283852080549288166001600160a01b03199384161790559589168452828420805482169096179095558383528054909416909355915190917ff8d49fc529812e9a7c5c50e69c20f0dccc0db8fa95c98bc58cc9a4f1c1299eaf91a26040516001600160a01b038216907f9465fa0c962cc76958e6373a993326400c1c94f8be2fe3a952adfa7f60b2ea26905f90a2505050565b6118986119be565b6118a181612047565b6040516001600160a01b038216907f5ac6c46c93c8d0e53714ba3b53db3e7c046da994313d7ed0d192028bc7c228b0905f90a250565b6004545f8190036118f3576118f364475330303160d81b611a4b565b611014848484846107a7565b6119076119be565b8060035f815461191690612ce8565b918290555010156119325761193264475332303160d81b611a4b565b61193c838361215d565b6001600160a01b038281165f81815260026020526040808220805488861684528284208054919096166001600160a01b0319918216179095558383528054909416909355915190917ff8d49fc529812e9a7c5c50e69c20f0dccc0db8fa95c98bc58cc9a4f1c1299eaf91a280600454146119b9576119b981610c9d565b505050565b3330146119d6576119d664475330333160d81b611a4b565b565b6119e18161219a565b6001600160a01b038181165f908152600260205260409020541615611a1157611a116411d4cc8c0d60da1b611a4b565b50565b5f825f03611a2357505f610a6b565b5f611a2e8385612cfd565b905082611a3b8583612c2b565b14611a44575f5ffd5b9392505050565b60405162461bcd60e51b81526020600482015260056024820152816044820152606481fd5b8151611a7d8260206121f2565b1115611a9457611a946423a998191960d91b611a4b565b5f6020828401015190508251611abe82611ab86020866121f290919063ffffffff16565b906121f2565b1115611ad557611ad564475330323360d81b611a4b565b604051630b135d3f60e11b808252848401602001916001600160a01b03881690631626ba7e90611b0b9089908690600401612d14565b602060405180830381865afa158015611b26573d5f5f3e3d5ffd5b505050506040513d601f19601f82011682018060405250810190611b4a9190612d2c565b6001600160e01b03191614611b6a57611b6a6411d4cc0c8d60da1b611a4b565b505050505050565b5f5f611b808686868661220c565b7fb104e0b93118902c651344349b610029d694cfdec91c589c91ebafbcd02899475491503360011480611bc85750335f908152600160205260409020546001600160a01b0316155b15611bde57611bde6411d4cc4c0d60da1b611a4b565b6001600160a01b03821615611c645760405163394614b960e11b81526001600160a01b0383169063728c297290611c219089908990899089903390600401612d53565b6020604051808303815f875af1158015611c3d573d5f5f3e3d5ffd5b505050506040513d601f19601f82011682018060405250810190611c619190612da3565b90505b94509492505050565b5f6001836001811115611c8257611c82612b4b565b03611c99575f5f8551602087018986f49050611ca8565b5f5f855160208701888a87f190505b95945050505050565b6001600160a01b03831615611d1e576040516315661bd560e11b81526004810183905281151560248201526001600160a01b03841690632acc37aa906044015f604051808303815f87803b158015611d07575f5ffd5b505af1158015611d19573d5f5f3e3d5ffd5b505050505b8015611d535760405133907f6895c13664aa4f67288b25d7a21d7aaa34916e355fb9b6fae0a139a9085becb8905f90a2505050565b60405133907facd2c8702804128fdb0db2bb49f6d127dd0181c13fd45dbfe16de0930e2bd375905f90a2505050565b60055460045460408051602081019390935233908301526060828101919091529060800160405160208183030381529060405290507f66753cd2356569ee081232e3be8909b950e0a76c1f8460c3a5e3c2be32b11bed8c8c8c8c8c8c8c8c8c8c8c8c604051611dfc9c9b9a99989796959493929190612dba565b60405180910390a1505050505050505050505050565b5f81831015611e215781611a44565b5090919050565b5f82821115611e35575f5ffd5b611a448284612b10565b5f806001600160a01b03831615611e565782611e58565b325b90506001600160a01b038416611efa57611e8a3a8610611e78573a611e7a565b855b611e8489896121f2565b90611a14565b91505f816001600160a01b0316836040515f6040518083038185875af1925050503d805f8114611ed5576040519150601f19603f3d011682016040523d82523d5f602084013e611eda565b606091505b5050905080611ef457611ef464475330313160d81b611a4b565b50611f2a565b611f0885611e8489896121f2565b9150611f15848284612251565b611f2a57611f2a6423a998189960d91b611a4b565b5095945050505050565b60045415611f4d57611f4d64047533230360dc1b611a4b565b8151811115611f6757611f6764475332303160d81b611a4b565b805f03611f7f57611f7f6423a999181960d91b611a4b565b81516001905f5b81811015612014575f858281518110611fa157611fa1612c4a565b60200260200101519050836001600160a01b0316816001600160a01b031603611fd557611fd56411d4cc8c0d60da1b611a4b565b611fde816119d8565b6001600160a01b039384165f90815260026020526040902080546001600160a01b03191694821694909417909355600101611f86565b506001600160a01b039091165f90815260026020526040902080546001600160a01b031916600117905560035560045550565b306001600160a01b038216036120685761206864047533430360dc1b611a4b565b7f6c9a6c4a39284e37ed1cf53d337577d14212a4870fb976a4366c693b939918d555565b60015f8190526020527fcc69885fda6bcc1a4ace058b4a62bf5e179ea78fd58a1ccd71c22cc9b688792f546001600160a01b0316156120d6576120d664047533130360dc1b611a4b565b60015f81905260208190527fcc69885fda6bcc1a4ace058b4a62bf5e179ea78fd58a1ccd71c22cc9b688792f80546001600160a01b03191690911790556001600160a01b0382161561079057813b612139576121396423a998181960d91b611a4b565b612148825f8360015f19611c6d565b6107905761079064047533030360dc1b611a4b565b6121668161219a565b6001600160a01b038281165f908152600260205260409020548116908216146107905761079064475332303560d81b611a4b565b6001600160a01b03811615806121b957506001600160a01b0381166001145b806121dc57506001600160a01b038116301480156121dc57506121da6122dd565b155b15611a1157611a1164475332303360d81b611a4b565b5f806121fe8385612c18565b905083811015611a44575f5ffd5b7fb648d3644f584ed1c2232d53c46d87e693586486ad0d1175f8656013110b714e3385858585604051612243959493929190612e58565b60405180910390a150505050565b604080516001600160a01b03841660248201526044808201849052825180830390910181526064909101909152602080820180516001600160e01b031663a9059cbb60e01b17815282515f93929184919082896127105a03f13d80156122c157602081146122c9575f93506122d3565b8193506122d3565b5f51158215171593505b5050509392505050565b5f60035f5f303c505f5160e81c62ef01001490565b6001600160a01b0381168114611a11575f5ffd5b8035612311816122f2565b919050565b5f5f60408385031215612327575f5ffd5b8235612332816122f2565b946020939093013593505050565b5f5f83601f840112612350575f5ffd5b5081356001600160401b03811115612366575f5ffd5b60208301915083602082850101111561237d575f5ffd5b9250929050565b634e487b7160e01b5f52604160045260245ffd5b5f82601f8301126123a7575f5ffd5b81356001600160401b038111156123c0576123c0612384565b604051601f8201601f19908116603f011681016001600160401b03811182821017156123ee576123ee612384565b604052818152838201602001851015612405575f5ffd5b816020850160208301375f918101602001919091529392505050565b5f5f5f5f5f60808688031215612435575f5ffd5b8535945060208601356001600160401b03811115612451575f5ffd5b61245d88828901612340565b90955093505060408601356001600160401b0381111561247b575f5ffd5b61248788828901612398565b95989497509295606001359392505050565b5f5f5f5f608085870312156124ac575f5ffd5b84356124b7816122f2565b93506020850135925060408501356001600160401b038111156124d8575f5ffd5b6124e487828801612398565b949793965093946060013593505050565b5f60208284031215612505575f5ffd5b8135611a44816122f2565b803560028110612311575f5ffd5b5f5f5f5f60808587031215612531575f5ffd5b843561253c816122f2565b93506020850135925060408501356001600160401b0381111561255d575f5ffd5b61256987828801612398565b92505061257860608601612510565b905092959194509250565b5f81518084528060208401602086015e5f602082860101526020601f19601f83011685010191505092915050565b8215158152604060208201525f6125cb6040830184612583565b949350505050565b5f5f604083850312156125e4575f5ffd5b50508035926020909101359150565b602081525f611a446020830184612583565b5f60208284031215612615575f5ffd5b5035919050565b5f5f5f5f5f5f5f5f5f5f5f6101408c8e031215612637575f5ffd5b6126408c612306565b9a5060208c0135995060408c01356001600160401b03811115612661575f5ffd5b61266d8e828f01612340565b909a509850612680905060608d01612510565b965060808c0135955060a08c0135945060c08c013593506126a360e08d01612306565b92506126b26101008d01612306565b91506101208c01356001600160401b038111156126cd575f5ffd5b6126d98e828f01612398565b9150509295989b509295989b9093969950565b5f5f5f5f606085870312156126ff575f5ffd5b8435935060208501356001600160401b0381111561271b575f5ffd5b61272787828801612340565b90945092505060408501356001600160401b03811115612745575f5ffd5b61275187828801612398565b91505092959194509250565b5f8151808452602084019350602083015f5b828110156127965781516001600160a01b031686526020958601959091019060010161276f565b5093949350505050565b602081525f611a44602083018461275d565b5f5f604083850312156127c3575f5ffd5b82356127ce816122f2565b915060208301356001600160401b038111156127e8575f5ffd5b6127f485828601612398565b9150509250929050565b5f5f5f5f5f5f5f5f5f5f6101008b8d031215612818575f5ffd5b8a356001600160401b0381111561282d575f5ffd5b8b01601f81018d1361283d575f5ffd5b80356001600160401b03811115612852575f5ffd5b8d60208260051b8401011115612866575f5ffd5b60209182019b5099508b0135975061288060408c01612306565b965060608b01356001600160401b0381111561289a575f5ffd5b6128a68d828e01612340565b90975095506128b9905060808c01612306565b93506128c760a08c01612306565b925060c08b013591506128dc60e08c01612306565b90509295989b9194979a5092959850565b604081525f6128ff604083018561275d565b905060018060a01b03831660208301529392505050565b5f5f5f5f5f5f5f5f5f5f5f6101408c8e031215612931575f5ffd5b8b3561293c816122f2565b9a5060208c0135995060408c01356001600160401b0381111561295d575f5ffd5b6129698e828f01612340565b909a50985061297c905060608d01612510565b965060808c0135955060a08c0135945060c08c0135935060e08c01356129a1816122f2565b92506101008c01356129b2816122f2565b809250505f6101208d01359050809150509295989b509295989b9093969950565b5f5f604083850312156129e4575f5ffd5b82356129ef816122f2565b915060208301356129ff816122f2565b809150509250929050565b5f5f5f60608486031215612a1c575f5ffd5b8335612a27816122f2565b92506020840135612a37816122f2565b91506040840135612a47816122f2565b809150509250925092565b5f5f5f60608486031215612a64575f5ffd5b8335612a6f816122f2565b92506020840135915060408401356001600160401b03811115612a90575f5ffd5b612a9c86828701612398565b9150509250925092565b5f5f5f60608486031215612ab8575f5ffd5b8335612ac3816122f2565b92506020840135612ad3816122f2565b929592945050506040919091013590565b634e487b7160e01b5f52601160045260245ffd5b5f60018201612b0957612b09612ae4565b5060010190565b81810381811115610a6b57610a6b612ae4565b81835281816020850137505f828201602090810191909152601f909101601f19169091010190565b634e487b7160e01b5f52602160045260245ffd5b60028110612b7b57634e487b7160e01b5f52602160045260245ffd5b9052565b60018060a01b038d1681528b602082015261016060408201525f612ba861016083018c8e612b23565b612bb5606084018c612b5f565b608083018a905260a0830189905260c083018890526001600160a01b0387811660e08501528616610100840152828103610120840152612bf58186612583565b91505060018060a01b0383166101408301529d9c50505050505050505050505050565b80820180821115610a6b57610a6b612ae4565b5f82612c4557634e487b7160e01b5f52601260045260245ffd5b500490565b634e487b7160e01b5f52603260045260245ffd5b608080825281018590525f8660a08301825b88811015612ca0578235612c83816122f2565b6001600160a01b0316825260209283019290910190600101612c70565b50602084019690965250506001600160a01b039283166040820152911660609091015292915050565b5f60208284031215612cd9575f5ffd5b81518015158114611a44575f5ffd5b5f81612cf657612cf6612ae4565b505f190190565b8082028115828204841417610a6b57610a6b612ae4565b828152604060208201525f6125cb6040830184612583565b5f60208284031215612d3c575f5ffd5b81516001600160e01b031981168114611a44575f5ffd5b60018060a01b038616815284602082015260a060408201525f612d7960a0830186612583565b9050612d886060830185612b5f565b6001600160a01b039290921660809190910152949350505050565b5f60208284031215612db3575f5ffd5b5051919050565b60018060a01b038d1681528b602082015261016060408201525f612de361016083018c8e612b23565b612df0606084018c612b5f565b608083018a905260a0830189905260c083018890526001600160a01b0387811660e08501528616610100840152828103610120840152612e308186612583565b9050828103610140840152612e458185612583565b9f9e505050505050505050505050505050565b6001600160a01b038681168252851660208201526040810184905260a0606082018190525f90612e8a90830185612583565b9050612e996080830184612b5f565b969550505050505056fea264697066735822122094ebd1909ebbac10f86f8227c639cc83e57d3776c8885107ec9a12f6cba3ca2a64736f6c634300081f00336080604052348015600e575f5ffd5b506107b88061001c5f395ff3fe608060405234801561000f575f5ffd5b506004361061007a575f3560e01c80633408e470116100585780633408e470146100e25780634662f9d6146100e857806353e5d935146100fb578063ec9e80bb14610110575f5ffd5b80631688f0b91461007e5780631a334b0b146100ae5780631fdac6c5146100c1575b5f5ffd5b61009161008c366004610474565b610123565b6040516001600160a01b0390911681526020015b60405180910390f35b6100916100bc366004610474565b6101b7565b6100d46100cf366004610541565b610213565b6040519081526020016100a5565b466100d4565b6100916100f6366004610474565b61026e565b6101036102b9565b6040516100a5919061058f565b61009161011e366004610474565b6102e3565b5f5f838051906020012083604051602001610148929190918252602082015260400190565b60405160208183030381529060405280519060200120905061016b858583610314565b6040516001600160a01b038781168252919350908316907f4f51faf6c4561ff95f067657e43439f0f856d97c04d9ec9070a6199ad418e2359060200160405180910390a2509392505050565b5f6101c38484846102e3565b90506001600160a01b0381167f7a1c96f74273709828c0e67ab96189772005d3b4948bc6902693eb21e4e2cc6a8585854660405161020494939291906105a1565b60405180910390a29392505050565b5f6040518060200161022490610438565b601f1982820381018352601f90910116604081905261025191906001600160a01b038516906020016105d7565b604051602081830303815290604052805190602001209050919050565b5f61027a848484610123565b9050806001600160a01b03167f6e78ae8c51534f0b801d7aa7cce5a2113f3c3368c61b06fa61415f361d400431858585604051610204939291906105f1565b6060604051806020016102cb90610438565b601f1982820381018352601f90910116604052919050565b5f5f8380519060200120836102f54690565b6040805160208101949094528301919091526060820152608001610148565b5f833b6103685760405162461bcd60e51b815260206004820152601f60248201527f53696e676c65746f6e20636f6e7472616374206e6f74206465706c6f7965640060448201526064015b60405180910390fd5b5f6040518060200161037990610438565b601f1982820381018352601f9091011660408190526103a691906001600160a01b038816906020016105d7565b6040516020818303038152906040529050828151826020015ff591506001600160a01b03821661040e5760405162461bcd60e51b815260206004820152601360248201527210dc99585d194c8818d85b1b0819985a5b1959606a1b604482015260640161035f565b835115610430575f5f8551602087015f865af1610430576040513d5f823e3d81fd5b509392505050565b61015e8061062583390190565b80356001600160a01b038116811461045b575f5ffd5b919050565b634e487b7160e01b5f52604160045260245ffd5b5f5f5f60608486031215610486575f5ffd5b61048f84610445565b9250602084013567ffffffffffffffff8111156104aa575f5ffd5b8401601f810186136104ba575f5ffd5b803567ffffffffffffffff8111156104d4576104d4610460565b604051601f8201601f19908116603f0116810167ffffffffffffffff8111828210171561050357610503610460565b60405281815282820160200188101561051a575f5ffd5b816020840160208301375f9181016020019190915293969395505050506040919091013590565b5f60208284031215610551575f5ffd5b61055a82610445565b9392505050565b5f81518084528060208401602086015e5f602082860101526020601f19601f83011685010191505092915050565b602081525f61055a6020830184610561565b6001600160a01b03851681526080602082018190525f906105c490830186610561565b6040830194909452506060015292915050565b5f83518060208601845e9190910191825250602001919050565b6001600160a01b03841681526060602082018190525f9061061490830185610561565b905082604083015294935050505056fe6080604052348015600e575f5ffd5b5060405161015e38038061015e833981016040819052602b9160b2565b6001600160a01b038116608f5760405162461bcd60e51b815260206004820152602260248201527f496e76616c69642073696e676c65746f6e20616464726573732070726f766964604482015261195960f21b606482015260840160405180910390fd5b5f80546001600160a01b0319166001600160a01b039290921691909117905560dd565b5f6020828403121560c1575f5ffd5b81516001600160a01b038116811460d6575f5ffd5b9392505050565b6075806100e95f395ff3fe60806040525f5463a619486e5f3560e01c036021578060601b606c5260206060f35b365f5f375f5f365f845af490503d5f5f3e80603a573d5ffd5b503d5ff3fea2646970667358221220d1529ff7cc2f356d8f273ce3355a8398121b553e47a51b4901f9c61dcb8c167164736f6c634300081f0033a264697066735822122002d84328f354bf1dafd2b5d686474fc5f6417e0977e772e7957b897ca588ed4964736f6c634300081f00336080604052348015600e575f5ffd5b506110af8061001c5f395ff3fe608060405234801561000f575f5ffd5b50600436106100b0575f3560e01c80636ac247841161006e5780636ac2478414610176578063b2494df314610189578063bc197c811461019e578063bd61951d146101b1578063e86637db146101c4578063f23a6e61146101d7575f5ffd5b806223de29146100b457806301ffc9a7146100ce5780630a1028c4146100f6578063150b7a02146101175780631626ba7e146101435780632303164014610156575b5f5ffd5b6100cc6100c2366004610882565b5050505050505050565b005b6100e16100dc36600461092f565b6101ea565b60405190151581526020015b60405180910390f35b610109610104366004610a19565b61023b565b6040519081526020016100ed565b61012a610125366004610a52565b610246565b6040516001600160e01b031990911681526020016100ed565b61012a610151366004610abf565b610261565b610169610164366004610b06565b6103c9565b6040516100ed9190610b52565b610109610184366004610b06565b6104d7565b6101916104f1565b6040516100ed9190610b87565b61012a6101ac366004610c12565b610567565b6101696101bf366004610cb2565b610585565b6101696101d2366004610ce9565b6105db565b61012a6101e5366004610da4565b610708565b5f6001600160e01b03198216630271189760e51b148061021a57506001600160e01b03198216630a85bd0160e11b145b8061023557506001600160e01b031982166301ffc9a760e01b145b92915050565b5f61023533836104d7565b5f61024f610724565b50630a85bd0160e11b95945050505050565b5f5f3390505f610292828760405160200161027e91815260200190565b6040516020818303038152906040526103c9565b805160208201209091505f85900361035757604051635ae6bd3760e01b8152600481018290526001600160a01b03841690635ae6bd3790602401602060405180830381865afa1580156102e7573d5f5f3e3d5ffd5b505050506040513d601f19601f8201168201806040525081019061030b9190610e1a565b5f036103525760405162461bcd60e51b815260206004820152601160248201527012185cda081b9bdd08185c1c1c9bdd9959607a1b60448201526064015b60405180910390fd5b6103b6565b60405163f855438b60e01b81526001600160a01b0384169063f855438b90610389905f9085908b908b90600401610e31565b5f6040518083038186803b15801561039f575f5ffd5b505afa1580156103b1573d5f5f3e3d5ffd5b505050505b50630b135d3f60e11b9695505050505050565b60605f7f60b3cbf8b4a223d68d641b3b6ddf9a298e7f33710cf3d3a9d1146b5a6150fbca5f1b8380519060200120604051602001610411929190918252602082015260400190565b604051602081830303815290604052805190602001209050601960f81b600160f81b856001600160a01b031663f698da256040518163ffffffff1660e01b8152600401602060405180830381865afa15801561046f573d5f5f3e3d5ffd5b505050506040513d601f19601f820116820180604052508101906104939190610e1a565b6040516001600160f81b0319938416602082015292909116602183015260228201526042810182905260620160405160208183030381529060405291505092915050565b5f6104e283836103c9565b80519060200120905092915050565b604051636617c22960e11b815260016004820152600a602482015260609033905f90829063cc2f8452906044015f60405180830381865afa158015610538573d5f5f3e3d5ffd5b505050506040513d5f823e601f3d908101601f1916820160405261055f9190810190610e83565b509392505050565b5f610570610724565b5063bc197c8160e01b98975050505050505050565b606060405163b4faba0960e01b81526004360360048083013760405f36835f335af1905060403d108117156105b8575f5ffd5b5060208051016040519150808201604052806020833e5f5161055f578060208301fd5b60605f3390505f816001600160a01b031663f698da256040518163ffffffff1660e01b8152600401602060405180830381865afa15801561061e573d5f5f3e3d5ffd5b505050506040513d601f19601f820116820180604052508101906106429190610e1a565b90505f7fbb8310d486368db6bd6f849402fdd73ad53d316b5a4b2644ad6efe0f941286d85f1b8f8f8f8f60405161067a929190610f48565b60405180910390208e8e8e8e8e8e8e6040516020016106a39b9a99989796959493929190610f57565b60408051808303601f19018152908290528051602091820120601960f81b91830191909152600160f81b60218301526022820184905260428201819052915060620160405160208183030381529060405293505050509b9a5050505050505050505050565b5f610711610724565b5063f23a6e6160e01b9695505050505050565b604051635624b25b60e01b81527f6c9a6c4a39284e37ed1cf53d337577d14212a4870fb976a4366c693b939918d56004820152600160248201525f903390635624b25b906044015f60405180830381865afa158015610785573d5f5f3e3d5ffd5b505050506040513d5f823e601f3d908101601f191682016040526107ac9190810190610fea565b90505f818060200190518101906107c3919061105e565b90506001600160a01b03811630146108135760405162461bcd60e51b81526020600482015260136024820152721b9bdd08184819985b1b189858dac818d85b1b606a1b6044820152606401610349565b5050565b6001600160a01b038116811461082b575f5ffd5b50565b803561083981610817565b919050565b5f5f83601f84011261084e575f5ffd5b5081356001600160401b03811115610864575f5ffd5b60208301915083602082850101111561087b575f5ffd5b9250929050565b5f5f5f5f5f5f5f5f60c0898b031215610899575f5ffd5b88356108a481610817565b975060208901356108b481610817565b965060408901356108c481610817565b95506060890135945060808901356001600160401b038111156108e5575f5ffd5b6108f18b828c0161083e565b90955093505060a08901356001600160401b0381111561090f575f5ffd5b61091b8b828c0161083e565b999c989b5096995094979396929594505050565b5f6020828403121561093f575f5ffd5b81356001600160e01b031981168114610956575f5ffd5b9392505050565b634e487b7160e01b5f52604160045260245ffd5b604051601f8201601f191681016001600160401b03811182821017156109995761099961095d565b604052919050565b5f6001600160401b038211156109b9576109b961095d565b50601f01601f191660200190565b5f82601f8301126109d6575f5ffd5b81356109e96109e4826109a1565b610971565b8181528460208386010111156109fd575f5ffd5b816020850160208301375f918101602001919091529392505050565b5f60208284031215610a29575f5ffd5b81356001600160401b03811115610a3e575f5ffd5b610a4a848285016109c7565b949350505050565b5f5f5f5f5f60808688031215610a66575f5ffd5b8535610a7181610817565b94506020860135610a8181610817565b93506040860135925060608601356001600160401b03811115610aa2575f5ffd5b610aae8882890161083e565b969995985093965092949392505050565b5f5f5f60408486031215610ad1575f5ffd5b8335925060208401356001600160401b03811115610aed575f5ffd5b610af98682870161083e565b9497909650939450505050565b5f5f60408385031215610b17575f5ffd5b8235610b2281610817565b915060208301356001600160401b03811115610b3c575f5ffd5b610b48858286016109c7565b9150509250929050565b602081525f82518060208401528060208501604085015e5f604082850101526040601f19601f83011684010191505092915050565b602080825282518282018190525f918401906040840190835b81811015610bc75783516001600160a01b0316835260209384019390920191600101610ba0565b509095945050505050565b5f5f83601f840112610be2575f5ffd5b5081356001600160401b03811115610bf8575f5ffd5b6020830191508360208260051b850101111561087b575f5ffd5b5f5f5f5f5f5f5f5f60a0898b031215610c29575f5ffd5b8835610c3481610817565b97506020890135610c4481610817565b965060408901356001600160401b03811115610c5e575f5ffd5b610c6a8b828c01610bd2565b90975095505060608901356001600160401b03811115610c88575f5ffd5b610c948b828c01610bd2565b90955093505060808901356001600160401b0381111561090f575f5ffd5b5f5f5f60408486031215610cc4575f5ffd5b8335610ccf81610817565b925060208401356001600160401b03811115610aed575f5ffd5b5f5f5f5f5f5f5f5f5f5f5f6101408c8e031215610d04575f5ffd5b8b35610d0f81610817565b9a5060208c0135995060408c01356001600160401b03811115610d30575f5ffd5b610d3c8e828f0161083e565b909a5098505060608c013560028110610d53575f5ffd5b965060808c0135955060a08c0135945060c08c01359350610d7660e08d0161082e565b9250610d856101008d0161082e565b91505f6101208d01359050809150509295989b509295989b9093969950565b5f5f5f5f5f5f60a08789031215610db9575f5ffd5b8635610dc481610817565b95506020870135610dd481610817565b9450604087013593506060870135925060808701356001600160401b03811115610dfc575f5ffd5b610e0889828a0161083e565b979a9699509497509295939492505050565b5f60208284031215610e2a575f5ffd5b5051919050565b6001600160a01b0385168152602081018490526060604082018190528101829052818360808301375f818301608090810191909152601f909201601f191601019392505050565b805161083981610817565b5f5f60408385031215610e94575f5ffd5b82516001600160401b03811115610ea9575f5ffd5b8301601f81018513610eb9575f5ffd5b80516001600160401b03811115610ed257610ed261095d565b8060051b610ee260208201610971565b91825260208184018101929081019088841115610efd575f5ffd5b6020850194505b83851015610f2b5784519250610f1983610817565b82825260209485019490910190610f04565b8096505050505050610f3f60208401610e78565b90509250929050565b818382375f9101908152919050565b8b81526001600160a01b038b166020820152604081018a905260608101899052610160810160028910610f9857634e487b7160e01b5f52602160045260245ffd5b8860808301528760a08301528660c08301528560e0830152610fc66101008301866001600160a01b03169052565b6001600160a01b039390931661012082015261014001529998505050505050505050565b5f60208284031215610ffa575f5ffd5b81516001600160401b0381111561100f575f5ffd5b8201601f8101841361101f575f5ffd5b805161102d6109e4826109a1565b818152856020838501011115611041575f5ffd5b8160208401602083015e5f91810160200191909152949350505050565b5f6020828403121561106e575f5ffd5b81516109568161081756fea26469706673582212200aa8d06283a979f9c0eb1cd18ac4940372226108424a77d5603e4633c98a379364736f6c634300081f003360a0604052348015600e575f5ffd5b503060805260805161025a61002a5f395f6040015261025a5ff3fe60806040526004361061001d575f3560e01c80638d80ff0a14610021575b5f5ffd5b61003461002f366004610171565b610036565b005b6001600160a01b037f00000000000000000000000000000000000000000000000000000000000000001630036100cb5760405162461bcd60e51b815260206004820152603060248201527f4d756c746953656e642073686f756c64206f6e6c792062652063616c6c65642060448201526f1d9a584819195b1959d85d1958d85b1b60821b606482015260840160405180910390fd5b805160205b8181101561015857828101805160018201516015830151603584015160f89390931c9360609290921c80153002179290916055015f858015610119576001811461012857610132565b5f5f8585888a5af19150610132565b5f5f8585895af491505b50806101455760405195503d5f873e3d86fd5b50508060550185019450505050506100d0565b505050565b634e487b7160e01b5f52604160045260245ffd5b5f60208284031215610181575f5ffd5b813567ffffffffffffffff811115610197575f5ffd5b8201601f810184136101a7575f5ffd5b803567ffffffffffffffff8111156101c1576101c161015d565b604051601f8201601f19908116603f0116810167ffffffffffffffff811182821017156101f0576101f061015d565b604052818152828201602001861015610207575f5ffd5b816020840160208301375f9181016020019190915294935050505056fea26469706673582212202e790d7a155aca3c70fee8fe5042956f8600f2ab700db141e15fae1c5de630a464736f6c634300081f00336080604052348015600e575f5ffd5b506101b78061001c5f395ff3fe60806040526004361061001d575f3560e01c80638d80ff0a14610021575b5f5ffd5b61003461002f3660046100ce565b610036565b005b805160205b818110156100b557828101805160018201516015830151603584015160f89390931c9360609290921c80153002179290916055015f858015610084576001811461001d5761008f565b5f5f8585888a5af191505b50806100a25760405195503d5f873e3d86fd5b505080605501850194505050505061003b565b505050565b634e487b7160e01b5f52604160045260245ffd5b5f602082840312156100de575f5ffd5b813567ffffffffffffffff8111156100f4575f5ffd5b8201601f81018413610104575f5ffd5b803567ffffffffffffffff81111561011e5761011e6100ba565b604051601f8201601f19908116603f0116810167ffffffffffffffff8111828210171561014d5761014d6100ba565b604052818152828201602001861015610164575f5ffd5b816020840160208301375f9181016020019190915294935050505056fea264697066735822122030b698367dfff5b72617699013b3eb1f15586a79dc92abd346f0a9d9ee00307064736f6c634300081f0033","linkReferences":{}},"methodIdentifiers":{"computeSafeAddress(address[],uint256,uint256)":"acb242f4","createSafe(address[],uint256,uint256)":"2c1aae55","fallbackHandler()":"eed2f252","getInfrastructure()":"39205bb2","multiSend()":"e49cda08","multiSendCallOnly()":"7213ab63","safeProxyFactory()":"19964501","safeSingleton()":"ac7d146b"},"id":154}