{"abi":[{"type":"constructor","inputs":[{"name":"_pars","type":"address","internalType":"address"}],"stateMutability":"nonpayable"},{"type":"function","name":"MAX_LOCK_TIME","inputs":[],"outputs":[{"name":"","type":"uint256","internalType":"uint256"}],"stateMutability":"view"},{"type":"function","name":"MIN_LOCK_TIME","inputs":[],"outputs":[{"name":"","type":"uint256","internalType":"uint256"}],"stateMutability":"view"},{"type":"function","name":"WEEK","inputs":[],"outputs":[{"name":"","type":"uint256","internalType":"uint256"}],"stateMutability":"view"},{"type":"function","name":"balanceOf","inputs":[{"name":"user","type":"address","internalType":"address"}],"outputs":[{"name":"","type":"uint256","internalType":"uint256"}],"stateMutability":"view"},{"type":"function","name":"balanceOfAt","inputs":[{"name":"user","type":"address","internalType":"address"},{"name":"ts","type":"uint256","internalType":"uint256"}],"outputs":[{"name":"","type":"uint256","internalType":"uint256"}],"stateMutability":"view"},{"type":"function","name":"createLock","inputs":[{"name":"amount","type":"uint256","internalType":"uint256"},{"name":"unlockTime","type":"uint256","internalType":"uint256"}],"outputs":[],"stateMutability":"nonpayable"},{"type":"function","name":"decimals","inputs":[],"outputs":[{"name":"","type":"uint8","internalType":"uint8"}],"stateMutability":"view"},{"type":"function","name":"epoch","inputs":[],"outputs":[{"name":"","type":"uint256","internalType":"uint256"}],"stateMutability":"view"},{"type":"function","name":"getLocked","inputs":[{"name":"user","type":"address","internalType":"address"}],"outputs":[{"name":"amount","type":"uint256","internalType":"uint256"},{"name":"end","type":"uint256","internalType":"uint256"}],"stateMutability":"view"},{"type":"function","name":"increaseAmount","inputs":[{"name":"amount","type":"uint256","internalType":"uint256"}],"outputs":[],"stateMutability":"nonpayable"},{"type":"function","name":"increaseUnlockTime","inputs":[{"name":"newUnlockTime","type":"uint256","internalType":"uint256"}],"outputs":[],"stateMutability":"nonpayable"},{"type":"function","name":"locked","inputs":[{"name":"","type":"address","internalType":"address"}],"outputs":[{"name":"amount","type":"uint256","internalType":"uint256"},{"name":"end","type":"uint256","internalType":"uint256"}],"stateMutability":"view"},{"type":"function","name":"name","inputs":[],"outputs":[{"name":"","type":"string","internalType":"string"}],"stateMutability":"view"},{"type":"function","name":"pars","inputs":[],"outputs":[{"name":"","type":"address","internalType":"contract IERC20"}],"stateMutability":"view"},{"type":"function","name":"pointHistory","inputs":[{"name":"","type":"uint256","internalType":"uint256"}],"outputs":[{"name":"bias","type":"int128","internalType":"int128"},{"name":"slope","type":"int128","internalType":"int128"},{"name":"ts","type":"uint256","internalType":"uint256"},{"name":"blk","type":"uint256","internalType":"uint256"}],"stateMutability":"view"},{"type":"function","name":"slopeChanges","inputs":[{"name":"","type":"uint256","internalType":"uint256"}],"outputs":[{"name":"","type":"int128","internalType":"int128"}],"stateMutability":"view"},{"type":"function","name":"symbol","inputs":[],"outputs":[{"name":"","type":"string","internalType":"string"}],"stateMutability":"view"},{"type":"function","name":"totalLocked","inputs":[],"outputs":[{"name":"","type":"uint256","internalType":"uint256"}],"stateMutability":"view"},{"type":"function","name":"totalSupply","inputs":[],"outputs":[{"name":"","type":"uint256","internalType":"uint256"}],"stateMutability":"view"},{"type":"function","name":"totalSupplyAt","inputs":[{"name":"ts","type":"uint256","internalType":"uint256"}],"outputs":[{"name":"","type":"uint256","internalType":"uint256"}],"stateMutability":"view"},{"type":"function","name":"userPointEpoch","inputs":[{"name":"","type":"address","internalType":"address"}],"outputs":[{"name":"","type":"uint256","internalType":"uint256"}],"stateMutability":"view"},{"type":"function","name":"userPointHistory","inputs":[{"name":"","type":"address","internalType":"address"},{"name":"","type":"uint256","internalType":"uint256"}],"outputs":[{"name":"bias","type":"int128","internalType":"int128"},{"name":"slope","type":"int128","internalType":"int128"},{"name":"ts","type":"uint256","internalType":"uint256"},{"name":"blk","type":"uint256","internalType":"uint256"}],"stateMutability":"view"},{"type":"function","name":"withdraw","inputs":[],"outputs":[],"stateMutability":"nonpayable"},{"type":"event","name":"Deposit","inputs":[{"name":"user","type":"address","indexed":true,"internalType":"address"},{"name":"amount","type":"uint256","indexed":false,"internalType":"uint256"},{"name":"lockTime","type":"uint256","indexed":false,"internalType":"uint256"},{"name":"lockEnd","type":"uint256","indexed":true,"internalType":"uint256"},{"name":"ts","type":"uint256","indexed":false,"internalType":"uint256"}],"anonymous":false},{"type":"event","name":"Supply","inputs":[{"name":"prevSupply","type":"uint256","indexed":false,"internalType":"uint256"},{"name":"newSupply","type":"uint256","indexed":false,"internalType":"uint256"}],"anonymous":false},{"type":"event","name":"Withdraw","inputs":[{"name":"user","type":"address","indexed":true,"internalType":"address"},{"name":"amount","type":"uint256","indexed":false,"internalType":"uint256"},{"name":"ts","type":"uint256","indexed":false,"internalType":"uint256"}],"anonymous":false},{"type":"error","name":"CanOnlyIncreaseLockEnd","inputs":[]},{"type":"error","name":"LockExpired","inputs":[]},{"type":"error","name":"LockNotExpired","inputs":[]},{"type":"error","name":"LockTooLong","inputs":[]},{"type":"error","name":"LockTooShort","inputs":[]},{"type":"error","name":"NoExistingLock","inputs":[]},{"type":"error","name":"ReentrancyGuardReentrantCall","inputs":[]},{"type":"error","name":"SafeERC20FailedOperation","inputs":[{"name":"token","type":"address","internalType":"address"}]},{"type":"error","name":"VotingPowerTooHigh","inputs":[]},{"type":"error","name":"WithdrawOldTokensFirst","inputs":[]},{"type":"error","name":"ZeroAmount","inputs":[]}],"bytecode":{"object":"0x60a060405234801561000f575f5ffd5b5060405161152d38038061152d83398101604081905261002e916100f7565b60015f9081556001600160a01b03909116608090815260408051918201815282825260208083018481524292840192835243606085019081529480526004909152915191516001600160801b03908116600160801b029216919091177f17ef568e3e12ab5b9c7254a8d58478811de00f9e6eb34345acd53bf8fd09d3ec55517f17ef568e3e12ab5b9c7254a8d58478811de00f9e6eb34345acd53bf8fd09d3ed55517f17ef568e3e12ab5b9c7254a8d58478811de00f9e6eb34345acd53bf8fd09d3ee55610124565b5f60208284031215610107575f5ffd5b81516001600160a01b038116811461011d575f5ffd5b9392505050565b6080516113e361014a5f395f818161033e015281816105cc015261090a01526113e35ff3fe608060405234801561000f575f5ffd5b5060043610610148575f3560e01c806381fc83bb116100bf578063b52c05fe11610079578063b52c05fe14610378578063bc22fd1b1461038b578063cbf9fe5f146103e5578063f4359ce514610250578063f52a36f71461040b578063fa78668f14610440575f5ffd5b806381fc83bb1461029c5780638ad4c447146102bb578063900cf0cf146102f857806395d89b4114610301578063981b24d014610326578063b526d75314610339575f5ffd5b80633ccfd60b116101105780633ccfd60b146102485780633ff03207146102505780634ee2cd7e1461025a578063568914121461026d57806370a08231146102765780637c616fe614610289575f5ffd5b806306fdde031461014c57806315456eba1461019357806318160ddd146101a8578063313ce567146101be57806334d901a4146101d8575b5f5ffd5b61017d60405180604001604052806012815260200171566f74652d457363726f776564205041525360701b81525081565b60405161018a91906111f5565b60405180910390f35b6101a66101a136600461122a565b61044b565b005b6101b06104fc565b60405190815260200161018a565b6101c6600681565b60405160ff909116815260200161018a565b6102206101e636600461125c565b600560209081525f9283526040808420909152908252902080546001820154600290920154600f82810b93600160801b909304900b919084565b60408051600f95860b81529390940b602084015292820152606081019190915260800161018a565b6101a661050b565b6101b062093a8081565b6101b061026836600461125c565b610678565b6101b060015481565b6101b0610284366004611284565b61068c565b6101a661029736600461122a565b610697565b6101b06102aa366004611284565b60066020525f908152604090205481565b6102206102c936600461122a565b60046020525f9081526040902080546001820154600290920154600f82810b93600160801b909304900b919084565b6101b060035481565b61017d6040518060400160405280600681526020016576655041525360d01b81525081565b6101b061033436600461122a565b610793565b6103607f000000000000000000000000000000000000000000000000000000000000000081565b6040516001600160a01b03909116815260200161018a565b6101a661038636600461129d565b61079d565b6103d0610399366004611284565b6001600160a01b03165f90815260026020908152604091829020825180840190935280548084526001909101549290910182905291565b6040805192835260208301919091520161018a565b6103d06103f3366004611284565b60026020525f90815260409020805460019091015482565b61042d61041936600461122a565b60076020525f9081526040902054600f0b81565b604051600f9190910b815260200161018a565b6101b0630784ce0081565b6104536108cc565b805f0361047357604051631f2a200560e01b815260040160405180910390fd5b335f908152600260209081526040808320815180830190925280548083526001909101549282019290925291036104bd5760405163ad9f423f60e01b815260040160405180910390fd5b428160200151116104e1576040516307b7d7dd60e51b815260040160405180910390fd5b6104ef33835f8460016108f4565b506104f960015f55565b50565b5f61050642610a53565b905090565b6105136108cc565b335f908152600260209081526040918290208251808401909352805483526001015490820181905242101561055b5760405163342ad40160e11b815260040160405180910390fd5b80516040805180820182525f8082526020808301828152338352600290915292812091518255915160019182015580549183919061059983856112d1565b925050819055506105bf338460405180604001604052805f81526020015f815250610ae7565b6105f36001600160a01b037f0000000000000000000000000000000000000000000000000000000000000000163384611013565b6040805183815242602082015233917ff279e6a1f5e320cca91135676d9cb6e44ca8a08c0b88342bcdb1144f6511b568910160405180910390a26001546040805183815260208101929092527f5e2aa66efd74cce82b21852e317e5490d9ecc9e6bb953ae24d90851258cc2f5c910160405180910390a150505061067660015f55565b565b5f6106838383611077565b90505b92915050565b5f6106868242611077565b61069f6108cc565b335f908152600260209081526040808320815180830190925280548083526001909101549282019290925291036106e95760405163ad9f423f60e01b815260040160405180910390fd5b4281602001511161070d576040516307b7d7dd60e51b815260040160405180910390fd5b5f62093a8061071c81856112e4565b6107269190611303565b90508160200151811161074c57604051637c679a2760e01b815260040160405180910390fd5b61075a630784ce004261131a565b81111561077a5760405163d6946a4360e01b815260040160405180910390fd5b610788335f838560026108f4565b50506104f960015f55565b5f61068682610a53565b6107a56108cc565b815f036107c557604051631f2a200560e01b815260040160405180910390fd5b335f90815260026020526040902054156107f25760405163c1338bff60e01b815260040160405180910390fd5b5f62093a8061080181846112e4565b61080b9190611303565b905042811161082d5760405163d400571560e01b815260040160405180910390fd5b61083a62093a804261131a565b81101561085a5760405163d400571560e01b815260040160405180910390fd5b610868630784ce004261131a565b8111156108885760405163d6946a4360e01b815260040160405180910390fd5b335f81815260026020908152604080832081518083019092528054825260010154918101919091526108be9291869185916108f4565b506108c860015f55565b5050565b60025f54036108ee57604051633ee5aeb560e01b815260040160405180910390fd5b60025f55565b6001548415610932576109326001600160a01b037f000000000000000000000000000000000000000000000000000000000000000016333088611146565b5f604051806040016040528087865f015161094d919061131a565b8152602001861561095e5786610964565b85602001515b90526001600160a01b0388165f90815260026020908152604082208351815590830151600191820155805492935088929091906109a290849061131a565b909155506109b39050878583610ae7565b60208101516001600160a01b0388167f7162984403f6c73c8639375d45a9187dfd04602231bd8e587c415718b5f7e5f9886109ee42856112d1565b604080519283526020830191909152429082015260600160405180910390a36001546040805184815260208101929092527f5e2aa66efd74cce82b21852e317e5490d9ecc9e6bb953ae24d90851258cc2f5c910160405180910390a150505050505050565b6003545f90815260046020908152604080832081516080810183528154600f81810b8352600160801b909104900b938101939093526001810154918301829052600201546060830152610aa690846112d1565b8160200151610ab5919061132d565b81518290610ac4908390611353565b600f90810b90915282515f910b12159050610add575f81525b51600f0b92915050565b604080516080810182525f808252602082018190529181018290526060810191909152604080516080810182525f8082526020820181905291810182905260608101919091525f806001600160a01b03871615610c4157428660200151118015610b515750855115155b15610b96578551610b6790630784ce00906112e4565b600f0b602080860191909152860151610b819042906112d1565b8460200151610b90919061132d565b600f0b84525b428560200151118015610ba95750845115155b15610bee578451610bbf90630784ce00906112e4565b600f0b602080850191909152850151610bd99042906112d1565b8360200151610be8919061132d565b600f0b83525b6020808701515f90815260078252604090205490860151600f9190910b925015610c41578560200151856020015103610c28575080610c41565b506020808501515f90815260079091526040902054600f0b5b6003545f90815260046020908152604080832081516080810183528154600f81810b8352600160801b909104900b938101939093526001810154918301829052600201546060830152909162093a80610c9a81846112e4565b610ca49190611303565b90505f5b60ff811015610de357610cbe62093a808361131a565b91505f42831115610cd157429250610ce4565b505f82815260076020526040902054600f0b5b610cee84846112d1565b8560200151610cfd919061132d565b85518690610d0c908390611353565b600f0b905250602085018051829190610d26908390611380565b600f90810b90915286515f910b12159050610d3f575f85525b5f8560200151600f0b1215610d55575f60208601525b60408501839052436060860152600380549394508493600191905f90610d7c90849061131a565b9091555050428303610d8e5750610de3565b506003545f908152600460209081526040918290208651918701516001600160801b03908116600160801b02921691909117815590850151600180830191909155606086015160029092019190915501610ca8565b5086602001518660200151610df89190611353565b83602001818151610e099190611380565b600f0b90525086518651610e1d9190611353565b83518490610e2c908390611380565b600f90810b90915260208501515f910b12159050610e4b575f60208401525b5f835f0151600f0b1215610e5d575f83525b6003545f908152600460209081526040918290208551828701516001600160801b03908116600160801b0291161781559185015160018301556060850151600290920191909155890151421015610f0d576020870151610ebd9086611380565b94508860200151886020015103610ee0576020860151610edd9086611353565b94505b6020898101515f90815260079091526040902080546001600160801b0319166001600160801b0387161790555b4288602001511115610f6757886020015188602001511115610f67576020860151610f389085611353565b6020898101515f90815260079091526040902080546001600160801b0319166001600160801b03831617905593505b6001600160a01b038a1615611007576001600160a01b038a165f90815260066020526040812054610f9990600161131a565b6001600160a01b038c165f818152600660209081526040808320859055428c82019081524360608e01908152948452600583528184209584529482529091208a51918b01516001600160801b03908116600160801b0292169190911781559151600183015551600290910155505b50505050505050505050565b6040516001600160a01b0383811660248301526044820183905261107291859182169063a9059cbb906064015b604051602081830303815290604052915060e01b6020820180516001600160e01b038381831617835250505050611185565b505050565b6001600160a01b0382165f9081526006602052604081205480820361109f575f915050610686565b6001600160a01b0384165f90815260056020908152604080832084845282529182902082516080810184528154600f81810b8352600160801b909104900b9281019290925260018101549282018390526002015460608201529061110390856112d1565b8160200151611112919061132d565b81518290611121908390611353565b600f90810b90915282515f910b1215905061113a575f81525b51600f0b949350505050565b6040516001600160a01b03848116602483015283811660448301526064820183905261117f9186918216906323b872dd90608401611040565b50505050565b5f5f60205f8451602086015f885af1806111a4576040513d5f823e3d81fd5b50505f513d915081156111bb5780600114156111c8565b6001600160a01b0384163b155b1561117f57604051635274afe760e01b81526001600160a01b038516600482015260240160405180910390fd5b602081525f82518060208401528060208501604085015e5f604082850101526040601f19601f83011684010191505092915050565b5f6020828403121561123a575f5ffd5b5035919050565b80356001600160a01b0381168114611257575f5ffd5b919050565b5f5f6040838503121561126d575f5ffd5b61127683611241565b946020939093013593505050565b5f60208284031215611294575f5ffd5b61068382611241565b5f5f604083850312156112ae575f5ffd5b50508035926020909101359150565b634e487b7160e01b5f52601160045260245ffd5b81810381811115610686576106866112bd565b5f826112fe57634e487b7160e01b5f52601260045260245ffd5b500490565b8082028115828204841417610686576106866112bd565b80820180821115610686576106866112bd565b5f82600f0b82600f0b0280600f0b915080821461134c5761134c6112bd565b5092915050565b600f82810b9082900b0360016001607f1b0319811260016001607f1b0382131715610686576106866112bd565b600f81810b9083900b0160016001607f1b03811360016001607f1b031982121715610686576106866112bd56fea26469706673582212207beb0b84fc219905dcb07c38729c5db37d34bcfe91bd29b2985808da6e006b8664736f6c634300081f0033","linkReferences":{}},"methodIdentifiers":{"MAX_LOCK_TIME()":"fa78668f","MIN_LOCK_TIME()":"3ff03207","WEEK()":"f4359ce5","balanceOf(address)":"70a08231","balanceOfAt(address,uint256)":"4ee2cd7e","createLock(uint256,uint256)":"b52c05fe","decimals()":"313ce567","epoch()":"900cf0cf","getLocked(address)":"bc22fd1b","increaseAmount(uint256)":"15456eba","increaseUnlockTime(uint256)":"7c616fe6","locked(address)":"cbf9fe5f","name()":"06fdde03","pars()":"b526d753","pointHistory(uint256)":"8ad4c447","slopeChanges(uint256)":"f52a36f7","symbol()":"95d89b41","totalLocked()":"56891412","totalSupply()":"18160ddd","totalSupplyAt(uint256)":"981b24d0","userPointEpoch(address)":"81fc83bb","userPointHistory(address,uint256)":"34d901a4","withdraw()":"3ccfd60b"},"id":158}