{"abi":[{"type":"function","name":"createChainSpecificProxyWithNonce","inputs":[{"name":"_singleton","type":"address","internalType":"address"},{"name":"initializer","type":"bytes","internalType":"bytes"},{"name":"saltNonce","type":"uint256","internalType":"uint256"}],"outputs":[{"name":"proxy","type":"address","internalType":"contract SafeProxy"}],"stateMutability":"nonpayable"},{"type":"function","name":"createChainSpecificProxyWithNonceL2","inputs":[{"name":"_singleton","type":"address","internalType":"address"},{"name":"initializer","type":"bytes","internalType":"bytes"},{"name":"saltNonce","type":"uint256","internalType":"uint256"}],"outputs":[{"name":"proxy","type":"address","internalType":"contract SafeProxy"}],"stateMutability":"nonpayable"},{"type":"function","name":"createProxyWithNonce","inputs":[{"name":"_singleton","type":"address","internalType":"address"},{"name":"initializer","type":"bytes","internalType":"bytes"},{"name":"saltNonce","type":"uint256","internalType":"uint256"}],"outputs":[{"name":"proxy","type":"address","internalType":"contract SafeProxy"}],"stateMutability":"nonpayable"},{"type":"function","name":"createProxyWithNonceL2","inputs":[{"name":"_singleton","type":"address","internalType":"address"},{"name":"initializer","type":"bytes","internalType":"bytes"},{"name":"saltNonce","type":"uint256","internalType":"uint256"}],"outputs":[{"name":"proxy","type":"address","internalType":"contract SafeProxy"}],"stateMutability":"nonpayable"},{"type":"function","name":"getChainId","inputs":[],"outputs":[{"name":"","type":"uint256","internalType":"uint256"}],"stateMutability":"view"},{"type":"function","name":"proxyCreationCode","inputs":[],"outputs":[{"name":"","type":"bytes","internalType":"bytes"}],"stateMutability":"pure"},{"type":"function","name":"proxyCreationCodehash","inputs":[{"name":"singleton","type":"address","internalType":"address"}],"outputs":[{"name":"","type":"bytes32","internalType":"bytes32"}],"stateMutability":"pure"},{"type":"event","name":"ChainSpecificProxyCreationL2","inputs":[{"name":"proxy","type":"address","indexed":true,"internalType":"contract SafeProxy"},{"name":"singleton","type":"address","indexed":false,"internalType":"address"},{"name":"initializer","type":"bytes","indexed":false,"internalType":"bytes"},{"name":"saltNonce","type":"uint256","indexed":false,"internalType":"uint256"},{"name":"chainId","type":"uint256","indexed":false,"internalType":"uint256"}],"anonymous":false},{"type":"event","name":"ProxyCreation","inputs":[{"name":"proxy","type":"address","indexed":true,"internalType":"contract SafeProxy"},{"name":"singleton","type":"address","indexed":false,"internalType":"address"}],"anonymous":false},{"type":"event","name":"ProxyCreationL2","inputs":[{"name":"proxy","type":"address","indexed":true,"internalType":"contract SafeProxy"},{"name":"singleton","type":"address","indexed":false,"internalType":"address"},{"name":"initializer","type":"bytes","indexed":false,"internalType":"bytes"},{"name":"saltNonce","type":"uint256","indexed":false,"internalType":"uint256"}],"anonymous":false}],"bytecode":{"object":"0x6080604052348015600e575f5ffd5b506107b88061001c5f395ff3fe608060405234801561000f575f5ffd5b506004361061007a575f3560e01c80633408e470116100585780633408e470146100e25780634662f9d6146100e857806353e5d935146100fb578063ec9e80bb14610110575f5ffd5b80631688f0b91461007e5780631a334b0b146100ae5780631fdac6c5146100c1575b5f5ffd5b61009161008c366004610474565b610123565b6040516001600160a01b0390911681526020015b60405180910390f35b6100916100bc366004610474565b6101b7565b6100d46100cf366004610541565b610213565b6040519081526020016100a5565b466100d4565b6100916100f6366004610474565b61026e565b6101036102b9565b6040516100a5919061058f565b61009161011e366004610474565b6102e3565b5f5f838051906020012083604051602001610148929190918252602082015260400190565b60405160208183030381529060405280519060200120905061016b858583610314565b6040516001600160a01b038781168252919350908316907f4f51faf6c4561ff95f067657e43439f0f856d97c04d9ec9070a6199ad418e2359060200160405180910390a2509392505050565b5f6101c38484846102e3565b90506001600160a01b0381167f7a1c96f74273709828c0e67ab96189772005d3b4948bc6902693eb21e4e2cc6a8585854660405161020494939291906105a1565b60405180910390a29392505050565b5f6040518060200161022490610438565b601f1982820381018352601f90910116604081905261025191906001600160a01b038516906020016105d7565b604051602081830303815290604052805190602001209050919050565b5f61027a848484610123565b9050806001600160a01b03167f6e78ae8c51534f0b801d7aa7cce5a2113f3c3368c61b06fa61415f361d400431858585604051610204939291906105f1565b6060604051806020016102cb90610438565b601f1982820381018352601f90910116604052919050565b5f5f8380519060200120836102f54690565b6040805160208101949094528301919091526060820152608001610148565b5f833b6103685760405162461bcd60e51b815260206004820152601f60248201527f53696e676c65746f6e20636f6e7472616374206e6f74206465706c6f7965640060448201526064015b60405180910390fd5b5f6040518060200161037990610438565b601f1982820381018352601f9091011660408190526103a691906001600160a01b038816906020016105d7565b6040516020818303038152906040529050828151826020015ff591506001600160a01b03821661040e5760405162461bcd60e51b815260206004820152601360248201527210dc99585d194c8818d85b1b0819985a5b1959606a1b604482015260640161035f565b835115610430575f5f8551602087015f865af1610430576040513d5f823e3d81fd5b509392505050565b61015e8061062583390190565b80356001600160a01b038116811461045b575f5ffd5b919050565b634e487b7160e01b5f52604160045260245ffd5b5f5f5f60608486031215610486575f5ffd5b61048f84610445565b9250602084013567ffffffffffffffff8111156104aa575f5ffd5b8401601f810186136104ba575f5ffd5b803567ffffffffffffffff8111156104d4576104d4610460565b604051601f8201601f19908116603f0116810167ffffffffffffffff8111828210171561050357610503610460565b60405281815282820160200188101561051a575f5ffd5b816020840160208301375f9181016020019190915293969395505050506040919091013590565b5f60208284031215610551575f5ffd5b61055a82610445565b9392505050565b5f81518084528060208401602086015e5f602082860101526020601f19601f83011685010191505092915050565b602081525f61055a6020830184610561565b6001600160a01b03851681526080602082018190525f906105c490830186610561565b6040830194909452506060015292915050565b5f83518060208601845e9190910191825250602001919050565b6001600160a01b03841681526060602082018190525f9061061490830185610561565b905082604083015294935050505056fe6080604052348015600e575f5ffd5b5060405161015e38038061015e833981016040819052602b9160b2565b6001600160a01b038116608f5760405162461bcd60e51b815260206004820152602260248201527f496e76616c69642073696e676c65746f6e20616464726573732070726f766964604482015261195960f21b606482015260840160405180910390fd5b5f80546001600160a01b0319166001600160a01b039290921691909117905560dd565b5f6020828403121560c1575f5ffd5b81516001600160a01b038116811460d6575f5ffd5b9392505050565b6075806100e95f395ff3fe60806040525f5463a619486e5f3560e01c036021578060601b606c5260206060f35b365f5f375f5f365f845af490503d5f5f3e80603a573d5ffd5b503d5ff3fea2646970667358221220d1529ff7cc2f356d8f273ce3355a8398121b553e47a51b4901f9c61dcb8c167164736f6c634300081f0033a264697066735822122002d84328f354bf1dafd2b5d686474fc5f6417e0977e772e7957b897ca588ed4964736f6c634300081f0033","linkReferences":{}},"methodIdentifiers":{"createChainSpecificProxyWithNonce(address,bytes,uint256)":"ec9e80bb","createChainSpecificProxyWithNonceL2(address,bytes,uint256)":"1a334b0b","createProxyWithNonce(address,bytes,uint256)":"1688f0b9","createProxyWithNonceL2(address,bytes,uint256)":"4662f9d6","getChainId()":"3408e470","proxyCreationCode()":"53e5d935","proxyCreationCodehash(address)":"1fdac6c5"},"id":151}