{"abi":[{"type":"constructor","inputs":[{"name":"_vePARS","type":"address","internalType":"address"},{"name":"_proposerThreshold","type":"uint256","internalType":"uint256"}],"stateMutability":"nonpayable"},{"type":"function","name":"isProposer","inputs":[{"name":"proposer","type":"address","internalType":"address"},{"name":"data","type":"bytes","internalType":"bytes"}],"outputs":[{"name":"","type":"bool","internalType":"bool"}],"stateMutability":"view"},{"type":"function","name":"proposerThreshold","inputs":[],"outputs":[{"name":"","type":"uint256","internalType":"uint256"}],"stateMutability":"view"},{"type":"function","name":"supportsInterface","inputs":[{"name":"interfaceId","type":"bytes4","internalType":"bytes4"}],"outputs":[{"name":"","type":"bool","internalType":"bool"}],"stateMutability":"view"},{"type":"function","name":"vePARS","inputs":[],"outputs":[{"name":"","type":"address","internalType":"address"}],"stateMutability":"view"}],"bytecode":{"object":"0x60c060405234801561000f575f5ffd5b5060405161047038038061047083398101604081905261002e9161009e565b6001600160a01b0382166100885760405162461bcd60e51b815260206004820152601660248201527f496e76616c696420766550415253206164647265737300000000000000000000604482015260640160405180910390fd5b6001600160a01b0390911660805260a0526100d5565b5f5f604083850312156100af575f5ffd5b82516001600160a01b03811681146100c5575f5ffd5b6020939093015192949293505050565b60805160a05161036e6101025f395f818160cd015261022b01525f8181607b0152610138015261036e5ff3fe608060405234801561000f575f5ffd5b506004361061004a575f3560e01c806301ffc9a71461004e57806312e0a70a14610076578063439845be146100b5578063d877ee1d146100c8575b5f5ffd5b61006161005c366004610259565b6100fd565b60405190151581526020015b60405180910390f35b61009d7f000000000000000000000000000000000000000000000000000000000000000081565b6040516001600160a01b03909116815260200161006d565b6100616100c3366004610280565b610133565b6100ef7f000000000000000000000000000000000000000000000000000000000000000081565b60405190815260200161006d565b5f6001600160e01b031982166321cc22df60e11b148061012d57506301ffc9a760e01b6001600160e01b03198316145b92915050565b5f5f5f7f00000000000000000000000000000000000000000000000000000000000000006001600160a01b03168660405160240161018091906001600160a01b0391909116815260200190565b60408051601f198184030181529181526020820180516001600160e01b03166370a0823160e01b179052516101b5919061030b565b5f60405180830381855afa9150503d805f81146101ed576040519150601f19603f3d011682016040523d82523d5f602084013e6101f2565b606091505b5091509150811580610205575060208151105b15610214575f92505050610252565b5f818060200190518101906102299190610321565b7f0000000000000000000000000000000000000000000000000000000000000000111593505050505b9392505050565b5f60208284031215610269575f5ffd5b81356001600160e01b031981168114610252575f5ffd5b5f5f5f60408486031215610292575f5ffd5b83356001600160a01b03811681146102a8575f5ffd5b9250602084013567ffffffffffffffff8111156102c3575f5ffd5b8401601f810186136102d3575f5ffd5b803567ffffffffffffffff8111156102e9575f5ffd5b8660208284010111156102fa575f5ffd5b939660209190910195509293505050565b5f82518060208501845e5f920191825250919050565b5f60208284031215610331575f5ffd5b505191905056fea2646970667358221220bf85072d11f91e93795f6614544e7a8bb37279c5e837c77f7a01360f7bb84a1f64736f6c634300081f0033","linkReferences":{}},"methodIdentifiers":{"isProposer(address,bytes)":"439845be","proposerThreshold()":"d877ee1d","supportsInterface(bytes4)":"01ffc9a7","vePARS()":"12e0a70a"},"id":156}