{"abi":[{"type":"constructor","inputs":[],"stateMutability":"nonpayable"},{"type":"fallback","stateMutability":"nonpayable"},{"type":"receive","stateMutability":"payable"},{"type":"function","name":"VERSION","inputs":[],"outputs":[{"name":"","type":"string","internalType":"string"}],"stateMutability":"view"},{"type":"function","name":"addOwnerWithThreshold","inputs":[{"name":"owner","type":"address","internalType":"address"},{"name":"_threshold","type":"uint256","internalType":"uint256"}],"outputs":[],"stateMutability":"nonpayable"},{"type":"function","name":"approveHash","inputs":[{"name":"hashToApprove","type":"bytes32","internalType":"bytes32"}],"outputs":[],"stateMutability":"nonpayable"},{"type":"function","name":"approvedHashes","inputs":[{"name":"","type":"address","internalType":"address"},{"name":"","type":"bytes32","internalType":"bytes32"}],"outputs":[{"name":"","type":"uint256","internalType":"uint256"}],"stateMutability":"view"},{"type":"function","name":"changeThreshold","inputs":[{"name":"_threshold","type":"uint256","internalType":"uint256"}],"outputs":[],"stateMutability":"nonpayable"},{"type":"function","name":"checkNSignatures","inputs":[{"name":"dataHash","type":"bytes32","internalType":"bytes32"},{"name":"data","type":"bytes","internalType":"bytes"},{"name":"signatures","type":"bytes","internalType":"bytes"},{"name":"requiredSignatures","type":"uint256","internalType":"uint256"}],"outputs":[],"stateMutability":"view"},{"type":"function","name":"checkNSignatures","inputs":[{"name":"executor","type":"address","internalType":"address"},{"name":"dataHash","type":"bytes32","internalType":"bytes32"},{"name":"signatures","type":"bytes","internalType":"bytes"},{"name":"requiredSignatures","type":"uint256","internalType":"uint256"}],"outputs":[],"stateMutability":"view"},{"type":"function","name":"checkSignatures","inputs":[{"name":"dataHash","type":"bytes32","internalType":"bytes32"},{"name":"data","type":"bytes","internalType":"bytes"},{"name":"signatures","type":"bytes","internalType":"bytes"}],"outputs":[],"stateMutability":"view"},{"type":"function","name":"checkSignatures","inputs":[{"name":"executor","type":"address","internalType":"address"},{"name":"dataHash","type":"bytes32","internalType":"bytes32"},{"name":"signatures","type":"bytes","internalType":"bytes"}],"outputs":[],"stateMutability":"view"},{"type":"function","name":"disableModule","inputs":[{"name":"prevModule","type":"address","internalType":"address"},{"name":"module","type":"address","internalType":"address"}],"outputs":[],"stateMutability":"nonpayable"},{"type":"function","name":"domainSeparator","inputs":[],"outputs":[{"name":"domainHash","type":"bytes32","internalType":"bytes32"}],"stateMutability":"view"},{"type":"function","name":"enableModule","inputs":[{"name":"module","type":"address","internalType":"address"}],"outputs":[],"stateMutability":"nonpayable"},{"type":"function","name":"execTransaction","inputs":[{"name":"to","type":"address","internalType":"address"},{"name":"value","type":"uint256","internalType":"uint256"},{"name":"data","type":"bytes","internalType":"bytes"},{"name":"operation","type":"uint8","internalType":"enum Enum.Operation"},{"name":"safeTxGas","type":"uint256","internalType":"uint256"},{"name":"baseGas","type":"uint256","internalType":"uint256"},{"name":"gasPrice","type":"uint256","internalType":"uint256"},{"name":"gasToken","type":"address","internalType":"address"},{"name":"refundReceiver","type":"address","internalType":"address payable"},{"name":"signatures","type":"bytes","internalType":"bytes"}],"outputs":[{"name":"success","type":"bool","internalType":"bool"}],"stateMutability":"payable"},{"type":"function","name":"execTransactionFromModule","inputs":[{"name":"to","type":"address","internalType":"address"},{"name":"value","type":"uint256","internalType":"uint256"},{"name":"data","type":"bytes","internalType":"bytes"},{"name":"operation","type":"uint8","internalType":"enum Enum.Operation"}],"outputs":[{"name":"success","type":"bool","internalType":"bool"}],"stateMutability":"nonpayable"},{"type":"function","name":"execTransactionFromModuleReturnData","inputs":[{"name":"to","type":"address","internalType":"address"},{"name":"value","type":"uint256","internalType":"uint256"},{"name":"data","type":"bytes","internalType":"bytes"},{"name":"operation","type":"uint8","internalType":"enum Enum.Operation"}],"outputs":[{"name":"success","type":"bool","internalType":"bool"},{"name":"returnData","type":"bytes","internalType":"bytes"}],"stateMutability":"nonpayable"},{"type":"function","name":"getModulesPaginated","inputs":[{"name":"start","type":"address","internalType":"address"},{"name":"pageSize","type":"uint256","internalType":"uint256"}],"outputs":[{"name":"array","type":"address[]","internalType":"address[]"},{"name":"next","type":"address","internalType":"address"}],"stateMutability":"view"},{"type":"function","name":"getOwners","inputs":[],"outputs":[{"name":"","type":"address[]","internalType":"address[]"}],"stateMutability":"view"},{"type":"function","name":"getStorageAt","inputs":[{"name":"offset","type":"uint256","internalType":"uint256"},{"name":"length","type":"uint256","internalType":"uint256"}],"outputs":[{"name":"","type":"bytes","internalType":"bytes"}],"stateMutability":"view"},{"type":"function","name":"getThreshold","inputs":[],"outputs":[{"name":"","type":"uint256","internalType":"uint256"}],"stateMutability":"view"},{"type":"function","name":"getTransactionHash","inputs":[{"name":"to","type":"address","internalType":"address"},{"name":"value","type":"uint256","internalType":"uint256"},{"name":"data","type":"bytes","internalType":"bytes"},{"name":"operation","type":"uint8","internalType":"enum Enum.Operation"},{"name":"safeTxGas","type":"uint256","internalType":"uint256"},{"name":"baseGas","type":"uint256","internalType":"uint256"},{"name":"gasPrice","type":"uint256","internalType":"uint256"},{"name":"gasToken","type":"address","internalType":"address"},{"name":"refundReceiver","type":"address","internalType":"address"},{"name":"_nonce","type":"uint256","internalType":"uint256"}],"outputs":[{"name":"txHash","type":"bytes32","internalType":"bytes32"}],"stateMutability":"view"},{"type":"function","name":"isModuleEnabled","inputs":[{"name":"module","type":"address","internalType":"address"}],"outputs":[{"name":"","type":"bool","internalType":"bool"}],"stateMutability":"view"},{"type":"function","name":"isOwner","inputs":[{"name":"owner","type":"address","internalType":"address"}],"outputs":[{"name":"","type":"bool","internalType":"bool"}],"stateMutability":"view"},{"type":"function","name":"nonce","inputs":[],"outputs":[{"name":"","type":"uint256","internalType":"uint256"}],"stateMutability":"view"},{"type":"function","name":"removeOwner","inputs":[{"name":"prevOwner","type":"address","internalType":"address"},{"name":"owner","type":"address","internalType":"address"},{"name":"_threshold","type":"uint256","internalType":"uint256"}],"outputs":[],"stateMutability":"nonpayable"},{"type":"function","name":"setFallbackHandler","inputs":[{"name":"handler","type":"address","internalType":"address"}],"outputs":[],"stateMutability":"nonpayable"},{"type":"function","name":"setGuard","inputs":[{"name":"guard","type":"address","internalType":"address"}],"outputs":[],"stateMutability":"nonpayable"},{"type":"function","name":"setModuleGuard","inputs":[{"name":"moduleGuard","type":"address","internalType":"address"}],"outputs":[],"stateMutability":"nonpayable"},{"type":"function","name":"setup","inputs":[{"name":"_owners","type":"address[]","internalType":"address[]"},{"name":"_threshold","type":"uint256","internalType":"uint256"},{"name":"to","type":"address","internalType":"address"},{"name":"data","type":"bytes","internalType":"bytes"},{"name":"fallbackHandler","type":"address","internalType":"address"},{"name":"paymentToken","type":"address","internalType":"address"},{"name":"payment","type":"uint256","internalType":"uint256"},{"name":"paymentReceiver","type":"address","internalType":"address payable"}],"outputs":[],"stateMutability":"nonpayable"},{"type":"function","name":"signedMessages","inputs":[{"name":"","type":"bytes32","internalType":"bytes32"}],"outputs":[{"name":"","type":"uint256","internalType":"uint256"}],"stateMutability":"view"},{"type":"function","name":"simulateAndRevert","inputs":[{"name":"targetContract","type":"address","internalType":"address"},{"name":"calldataPayload","type":"bytes","internalType":"bytes"}],"outputs":[],"stateMutability":"nonpayable"},{"type":"function","name":"swapOwner","inputs":[{"name":"prevOwner","type":"address","internalType":"address"},{"name":"oldOwner","type":"address","internalType":"address"},{"name":"newOwner","type":"address","internalType":"address"}],"outputs":[],"stateMutability":"nonpayable"},{"type":"event","name":"AddedOwner","inputs":[{"name":"owner","type":"address","indexed":true,"internalType":"address"}],"anonymous":false},{"type":"event","name":"ApproveHash","inputs":[{"name":"approvedHash","type":"bytes32","indexed":true,"internalType":"bytes32"},{"name":"owner","type":"address","indexed":true,"internalType":"address"}],"anonymous":false},{"type":"event","name":"ChangedFallbackHandler","inputs":[{"name":"handler","type":"address","indexed":true,"internalType":"address"}],"anonymous":false},{"type":"event","name":"ChangedGuard","inputs":[{"name":"guard","type":"address","indexed":true,"internalType":"address"}],"anonymous":false},{"type":"event","name":"ChangedModuleGuard","inputs":[{"name":"moduleGuard","type":"address","indexed":true,"internalType":"address"}],"anonymous":false},{"type":"event","name":"ChangedThreshold","inputs":[{"name":"threshold","type":"uint256","indexed":false,"internalType":"uint256"}],"anonymous":false},{"type":"event","name":"DisabledModule","inputs":[{"name":"module","type":"address","indexed":true,"internalType":"address"}],"anonymous":false},{"type":"event","name":"EnabledModule","inputs":[{"name":"module","type":"address","indexed":true,"internalType":"address"}],"anonymous":false},{"type":"event","name":"ExecutionFailure","inputs":[{"name":"txHash","type":"bytes32","indexed":true,"internalType":"bytes32"},{"name":"payment","type":"uint256","indexed":false,"internalType":"uint256"}],"anonymous":false},{"type":"event","name":"ExecutionFromModuleFailure","inputs":[{"name":"module","type":"address","indexed":true,"internalType":"address"}],"anonymous":false},{"type":"event","name":"ExecutionFromModuleSuccess","inputs":[{"name":"module","type":"address","indexed":true,"internalType":"address"}],"anonymous":false},{"type":"event","name":"ExecutionSuccess","inputs":[{"name":"txHash","type":"bytes32","indexed":true,"internalType":"bytes32"},{"name":"payment","type":"uint256","indexed":false,"internalType":"uint256"}],"anonymous":false},{"type":"event","name":"RemovedOwner","inputs":[{"name":"owner","type":"address","indexed":true,"internalType":"address"}],"anonymous":false},{"type":"event","name":"SafeReceived","inputs":[{"name":"sender","type":"address","indexed":true,"internalType":"address"},{"name":"value","type":"uint256","indexed":false,"internalType":"uint256"}],"anonymous":false},{"type":"event","name":"SafeSetup","inputs":[{"name":"initiator","type":"address","indexed":true,"internalType":"address"},{"name":"owners","type":"address[]","indexed":false,"internalType":"address[]"},{"name":"threshold","type":"uint256","indexed":false,"internalType":"uint256"},{"name":"initializer","type":"address","indexed":false,"internalType":"address"},{"name":"fallbackHandler","type":"address","indexed":false,"internalType":"address"}],"anonymous":false},{"type":"event","name":"SignMsg","inputs":[{"name":"msgHash","type":"bytes32","indexed":true,"internalType":"bytes32"}],"anonymous":false}],"bytecode":{"object":"0x6080604052348015600e575f5ffd5b506001600455612cff806100215f395ff3fe6080604052600436106101db575f3560e01c8063affed0e011610101578063e19a9dd911610094578063f698da2511610063578063f698da2514610610578063f855438b1461065a578063f8dc5dd914610679578063ffa1ad741461069857610217565b8063e19a9dd91461059f578063e318b52b146105be578063e75235b8146105dd578063f08a0323146105f157610217565b8063d4d9bdcd116100d0578063d4d9bdcd14610523578063d8d11f7814610542578063e009cfde14610561578063e068df371461058057610217565b8063affed0e0146104a3578063b4faba09146104b8578063b63e800d146104d7578063cc2f8452146104f657610217565b80635624b25b116101795780636a761202116101485780636a7612021461041a5780637d8329741461042d578063934f3a1114610463578063a0e67e2b1461048257610217565b80635624b25b146103775780635ae6bd37146103a3578063610b5925146103dc578063694e80c3146103fb57610217565b80632d9ad53d116101b55780632d9ad53d146102d85780632f54bf6e1461030c578063468721a71461032b5780635229073f1461034a57610217565b80630d582f131461027957806312fb68e01461029a5780631fcac7f3146102b957610217565b366102175760405134815233907f3d0ce9bfc3ed7d6862dbb28b2dea94561fe714a1b4d019aa8af39730d1ad7c3d9060200160405180910390a2005b348015610222575f5ffd5b507f6c9a6c4a39284e37ed1cf53d337577d14212a4870fb976a4366c693b939918d5548061024c57005b604051365f82373360601b368201525f5f60143601835f865af191503d5f823e81610275573d81fd5b3d81f35b348015610284575f5ffd5b5061029861029336600461221f565b6106c8565b005b3480156102a5575f5ffd5b506102986102b436600461232a565b610794565b3480156102c4575f5ffd5b506102986102d33660046123a2565b6107a7565b3480156102e3575f5ffd5b506102f76102f23660046123fe565b610a38565b60405190151581526020015b60405180910390f35b348015610317575f5ffd5b506102f76103263660046123fe565b610a71565b348015610336575f5ffd5b506102f7610345366004612427565b610aa8565b348015610355575f5ffd5b50610369610364366004612427565b610ae0565b6040516103039291906124ba565b348015610382575f5ffd5b506103966103913660046124dc565b610b33565b60405161030391906124fc565b3480156103ae575f5ffd5b506103ce6103bd36600461250e565b60076020525f908152604090205481565b604051908152602001610303565b3480156103e7575f5ffd5b506102986103f63660046123fe565b610ba6565b348015610406575f5ffd5b5061029861041536600461250e565b610c9d565b6102f7610428366004612525565b610d13565b348015610438575f5ffd5b506103ce61044736600461221f565b600860209081525f928352604080842090915290825290205481565b34801561046e575f5ffd5b5061029861047d3660046125f5565b610ff6565b34801561048d575f5ffd5b50610496611007565b60405161030391906126a9565b3480156104ae575f5ffd5b506103ce60055481565b3480156104c3575f5ffd5b506102986104d23660046126bb565b6110f2565b3480156104e2575f5ffd5b506102986104f1366004612707565b611117565b348015610501575f5ffd5b5061051561051036600461221f565b611215565b6040516103039291906127f6565b34801561052e575f5ffd5b5061029861053d36600461250e565b611391565b34801561054d575f5ffd5b506103ce61055c36600461281f565b611405565b34801561056c575f5ffd5b5061029861057b3660046128dc565b6114da565b34801561058b575f5ffd5b5061029861059a3660046123fe565b6115ba565b3480156105aa575f5ffd5b506102986105b93660046123fe565b6116b4565b3480156105c9575f5ffd5b506102986105d8366004612913565b6117ae565b3480156105e8575f5ffd5b506004546103ce565b3480156105fc575f5ffd5b5061029861060b3660046123fe565b61187d565b34801561061b575f5ffd5b50604080517f47e79534a245952e8b16893a336b85a3d9ea9fa8c573f3d803afb92a7946921881524660208201523091810191909152606090206103ce565b348015610665575f5ffd5b5061029861067436600461295b565b6118c4565b348015610684575f5ffd5b506102986106933660046129af565b6118ec565b3480156106a3575f5ffd5b50610396604051806040016040528060058152602001640312e352e360dc1b81525081565b6106d06119ab565b6106d9826119c5565b60026020527fe90b7bceb6e7df5418fb78d8ee546e97c83a08bbccc01a0644d599ccd2a7c2e080546001600160a01b038481165f818152604081208054939094166001600160a01b031993841617909355600183528354909116179091556003805490919061074790612a01565b909155506040516001600160a01b038316907f9465fa0c962cc76958e6373a993326400c1c94f8be2fe3a952adfa7f60b2ea26905f90a280600454146107905761079081610c9d565b5050565b6107a0338684846107a7565b5050505050565b6107b2816041611a01565b825110156107cb576107cb64047533032360dc1b611a38565b5f80808080805b86811015610a2c57604181028801602081015160408201516060909201515f90811a965090945090925084900361083c579193508391610813876041611a01565b82101561082b5761082b64475330323160d81b611a38565b610837858a8a85611a5d565b6109bd565b836001036108a157825f1c9450846001600160a01b03168a6001600160a01b03161415801561088b57506001600160a01b0385165f9081526008602090815260408083208c8452909152902054155b156108375761083764475330323560d81b611a38565b601e841115610960576040517f19457468657265756d205369676e6564204d6573736167653a0a3332000000006020820152603c81018a9052600190605c01604051602081830303815290604052805190602001206004866109039190612a19565b604080515f8152602081018083529390935260ff90911690820152606081018590526080810184905260a0016020604051602081039080840390855afa15801561094f573d5f5f3e3d5ffd5b5050506020604051035194506109bd565b604080515f8152602081018083528b905260ff861691810191909152606081018490526080810183905260019060a0016020604051602081039080840390855afa1580156109b0573d5f5f3e3d5ffd5b5050506020604051035194505b856001600160a01b0316856001600160a01b03161115806109f557506001600160a01b038581165f9081526002602052604090205416155b80610a0957506001600160a01b0385166001145b15610a1f57610a1f6423a998191b60d91b611a38565b93945084936001016107d2565b50505050505050505050565b5f60016001600160a01b03831614801590610a6b57506001600160a01b038281165f908152600160205260409020541615155b92915050565b5f6001600160a01b03821660011480610aa157506001600160a01b038281165f9081526002602052604090205416155b1592915050565b5f5f5f610ab787878787611b5f565b91509150610ac9878787875f19611c4b565b9250610ad6828285611c8f565b5050949350505050565b5f60605f5f610af188888888611b5f565b91509150610b03888888885f19611c4b565b9350604051925060203d0183016040523d83523d5f602085013e610b28828286611c8f565b505094509492505050565b60605f600583901b6001600160401b03811115610b5257610b5261228d565b6040519080825280601f01601f191660200182016040528015610b7c576020820181803683370190505b5090505f5b83811015610b9e5784810154602080830284010152600101610b81565b509392505050565b610bae6119ab565b6001600160a01b0381161580610bcd57506001600160a01b0381166001145b15610be357610be364475331303160d81b611a38565b6001600160a01b038181165f908152600160205260409020541615610c1357610c136423a998981960d91b611a38565b600160208190527fcc69885fda6bcc1a4ace058b4a62bf5e179ea78fd58a1ccd71c22cc9b688792f80546001600160a01b038481165f81815260408082208054949095166001600160a01b031994851617909455948552835490911681179092555190917fecdf3a3effea5783a3c4c2140e677577666428d44ed9d474a0b3a4c9943f844091a250565b610ca56119ab565b600354811115610cc057610cc064475332303160d81b611a38565b805f03610cd857610cd86423a999181960d91b611a38565b60048190556040518181527f610f7ff2b304ae8903c3de74c60c6ab1f7d6226b3f52c5161905bb5ad4039c939060200160405180910390a150565b5f5f610d3d8d8d8d8d8d8d8d8d8d8d60055f815480929190610d3490612a01565b91905055611405565b9050610d4a3382856118c4565b5f610d737f4a204f620c8c5ccdca3fd54d003badd85ba500436a431f0cbda4f558c93c34c85490565b90506001600160a01b03811615610df457806001600160a01b03166375f0bb528f8f8f8f8f8f8f8f8f8f8f336040518d63ffffffff1660e01b8152600401610dc69c9b9a99989796959493929190612a60565b5f604051808303815f87803b158015610ddd575f5ffd5b505af1158015610def573d5f5f3e3d5ffd5b505050505b610e18610e038a6109c4612b27565b610e12603f60068d901b612b3a565b90611d60565b610e24906101f4612b27565b5a1015610e3c57610e3c64047533031360dc1b611a38565b5f5a9050610eaa8f8f8f8f8080601f0160208091040260200160405190810160405280939291908181526020018383808284375f81840152601f19601f820116905080830192505050505050508e8c5f14610e97578e611c4b565b6109c45a610ea59190612a19565b611c4b565b9350610eb75a8290611d76565b905083158015610ec5575089155b8015610ecf575087155b15610edf576040513d5f823e3d81fd5b5f8815610ef657610ef3828b8b8b8b611d8d565b90505b8415610f3b57837f442e715f626346e8c54381002da614f62bee8d27386535b2521ec8540898556e82604051610f2e91815260200190565b60405180910390a2610f76565b837f23428b18acfb3ea64b08dc0c1d296ea9c09702c09083ca5272e64d115b687d2382604051610f6d91815260200190565b60405180910390a25b50506001600160a01b03811615610fe557604051631264e26d60e31b81526004810183905283151560248201526001600160a01b038216906393271368906044015f604051808303815f87803b158015610fce575f5ffd5b505af1158015610fe0573d5f5f3e3d5ffd5b505050505b50509b9a5050505050505050505050565b6110013385836118c4565b50505050565b60605f6003546001600160401b038111156110245761102461228d565b60405190808252806020026020018201604052801561104d578160200160208202803683370190505b5060015f90815260026020527fe90b7bceb6e7df5418fb78d8ee546e97c83a08bbccc01a0644d599ccd2a7c2e054919250906001600160a01b03165b6001600160a01b0381166001146110ea57808383815181106110ad576110ad612b59565b6001600160a01b039283166020918202929092018101919091529181165f9081526002909252604090912054166110e382612a01565b9150611089565b509092915050565b5f5f825160208401855af46040518181523d60208201523d5f604083013e60403d0181fd5b336001600160a01b03167f141df868a6331af528e38c83b7aa03edc19be66e37ae67f9285bf4f8e3c6a1a88b8b8b8b89604051611158959493929190612b6d565b60405180910390a261119d8a8a808060200260200160405190810160405280939291908181526020018383602002808284375f920191909152508c9250611e82915050565b6001600160a01b038416156111b5576111b584611f95565b6111f48787878080601f0160208091040260200160405190810160405280939291908181526020018383808284375f92019190915250611fda92505050565b8115610a2c57611208825f60018685611d8d565b5050505050505050505050565b60605f6001600160a01b038416600114801590611238575061123684610a38565b155b1561124e5761124e64475331303560d81b611a38565b825f03611266576112666423a998981b60d91b611a38565b826001600160401b0381111561127e5761127e61228d565b6040519080825280602002602001820160405280156112a7578160200160208202803683370190505b506001600160a01b038086165f90815260016020526040812054929450911691505b6001600160a01b038216158015906112eb57506001600160a01b038216600114155b80156112f657508381105b1561134e578183828151811061130e5761130e612b59565b6001600160a01b039283166020918202929092018101919091529281165f90815260019093526040909220549091169061134781612a01565b90506112c9565b6001600160a01b038216600114611386578261136b600183612a19565b8151811061137b5761137b612b59565b602002602001015191505b808352509250929050565b335f908152600260205260409020546001600160a01b03166113be576113be64047533033360dc1b611a38565b335f818152600860209081526040808320858452909152808220600190555183917ff2a0eb156472d1440255b0d7c1e19cc07115d1051fe605b0dce69acfec884d9c91a350565b5f5f6114475f6040517f47e79534a245952e8b16893a336b85a3d9ea9fa8c573f3d803afb92a7946921881524660208201523060408201526060812091505090565b90506040518a8c8237998a207fbb8310d486368db6bd6f849402fdd73ad53d316b5a4b2644ad6efe0f941286d88b5260208b019d8e5260408b019c8d5260608b015260808a01989098525060a088019590955260c087019390935260e086019190915261010085015261012084015261014083015261016082209093526119018152919092526042601e90910120919050565b6114e26119ab565b6001600160a01b038116158061150157506001600160a01b0381166001145b156115175761151764475331303160d81b611a38565b6001600160a01b038281165f9081526001602052604090205481169082161461154b5761154b64475331303360d81b611a38565b6001600160a01b038181165f81815260016020526040808220805487861684528284208054919096166001600160a01b0319918216179095558383528054909416909355915190917faab4fa2b463f581b2b32cb3b7e3b704b9ce37cc209b5fb4d77e593ace405427691a25050565b6115c26119ab565b6001600160a01b0381161580159061164457506040516301ffc9a760e01b8152630b0803db60e31b60048201526001600160a01b038216906301ffc9a790602401602060405180830381865afa15801561161e573d5f5f3e3d5ffd5b505050506040513d601f19601f820116820180604052508101906116429190612bd8565b155b1561165a5761165a64475333303160d81b611a38565b7fb104e0b93118902c651344349b610029d694cfdec91c589c91ebafbcd02899478190556040516001600160a01b038216907fcd1966d6be16bc0c030cc741a06c6e0efaf8d00de2c8b6a9e11827e125de8bb8905f90a250565b6116bc6119ab565b6001600160a01b0381161580159061173e57506040516301ffc9a760e01b815263736bd41d60e11b60048201526001600160a01b038216906301ffc9a790602401602060405180830381865afa158015611718573d5f5f3e3d5ffd5b505050506040513d601f19601f8201168201806040525081019061173c9190612bd8565b155b156117545761175464047533330360dc1b611a38565b7f4a204f620c8c5ccdca3fd54d003badd85ba500436a431f0cbda4f558c93c34c88190556040516001600160a01b038216907f1151116914515bc0891ff9047a6cb32cf902546f83066499bcf8ba33d2353fa2905f90a250565b6117b66119ab565b6117bf816119c5565b6117c983836120ab565b6001600160a01b038281165f81815260026020526040808220805486861680855283852080549288166001600160a01b03199384161790559589168452828420805482169096179095558383528054909416909355915190917ff8d49fc529812e9a7c5c50e69c20f0dccc0db8fa95c98bc58cc9a4f1c1299eaf91a26040516001600160a01b038216907f9465fa0c962cc76958e6373a993326400c1c94f8be2fe3a952adfa7f60b2ea26905f90a2505050565b6118856119ab565b61188e81611f95565b6040516001600160a01b038216907f5ac6c46c93c8d0e53714ba3b53db3e7c046da994313d7ed0d192028bc7c228b0905f90a250565b6004545f8190036118e0576118e064475330303160d81b611a38565b611001848484846107a7565b6118f46119ab565b8060035f815461190390612bf7565b9182905550101561191f5761191f64475332303160d81b611a38565b61192983836120ab565b6001600160a01b038281165f81815260026020526040808220805488861684528284208054919096166001600160a01b0319918216179095558383528054909416909355915190917ff8d49fc529812e9a7c5c50e69c20f0dccc0db8fa95c98bc58cc9a4f1c1299eaf91a280600454146119a6576119a681610c9d565b505050565b3330146119c3576119c364475330333160d81b611a38565b565b6119ce816120e8565b6001600160a01b038181165f9081526002602052604090205416156119fe576119fe6411d4cc8c0d60da1b611a38565b50565b5f825f03611a1057505f610a6b565b5f611a1b8385612c0c565b905082611a288583612b3a565b14611a31575f5ffd5b9392505050565b60405162461bcd60e51b81526020600482015260056024820152816044820152606481fd5b8151611a6a826020612140565b1115611a8157611a816423a998191960d91b611a38565b5f6020828401015190508251611aab82611aa560208661214090919063ffffffff16565b90612140565b1115611ac257611ac264475330323360d81b611a38565b604051630b135d3f60e11b808252848401602001916001600160a01b03881690631626ba7e90611af89089908690600401612c23565b602060405180830381865afa158015611b13573d5f5f3e3d5ffd5b505050506040513d601f19601f82011682018060405250810190611b379190612c3b565b6001600160e01b03191614611b5757611b576411d4cc0c8d60da1b611a38565b505050505050565b7fb104e0b93118902c651344349b610029d694cfdec91c589c91ebafbcd0289947545f6001331480611ba65750335f908152600160205260409020546001600160a01b0316155b15611bbc57611bbc6411d4cc4c0d60da1b611a38565b6001600160a01b03821615611c425760405163394614b960e11b81526001600160a01b0383169063728c297290611bff9089908990899089903390600401612c62565b6020604051808303815f875af1158015611c1b573d5f5f3e3d5ffd5b505050506040513d601f19601f82011682018060405250810190611c3f9190612cb2565b90505b94509492505050565b5f6001836001811115611c6057611c60612a2c565b03611c77575f5f8551602087018986f49050611c86565b5f5f855160208701888a87f190505b95945050505050565b6001600160a01b03831615611cfc576040516315661bd560e11b81526004810183905281151560248201526001600160a01b03841690632acc37aa906044015f604051808303815f87803b158015611ce5575f5ffd5b505af1158015611cf7573d5f5f3e3d5ffd5b505050505b8015611d315760405133907f6895c13664aa4f67288b25d7a21d7aaa34916e355fb9b6fae0a139a9085becb8905f90a2505050565b60405133907facd2c8702804128fdb0db2bb49f6d127dd0181c13fd45dbfe16de0930e2bd375905f90a2505050565b5f81831015611d6f5781611a31565b5090919050565b5f82821115611d83575f5ffd5b611a318284612a19565b5f806001600160a01b03831615611da45782611da6565b325b90506001600160a01b038416611e4857611dd83a8610611dc6573a611dc8565b855b611dd28989612140565b90611a01565b91505f816001600160a01b0316836040515f6040518083038185875af1925050503d805f8114611e23576040519150601f19603f3d011682016040523d82523d5f602084013e611e28565b606091505b5050905080611e4257611e4264475330313160d81b611a38565b50611e78565b611e5685611dd28989612140565b9150611e6384828461215a565b611e7857611e786423a998189960d91b611a38565b5095945050505050565b60045415611e9b57611e9b64047533230360dc1b611a38565b8151811115611eb557611eb564475332303160d81b611a38565b805f03611ecd57611ecd6423a999181960d91b611a38565b81516001905f5b81811015611f62575f858281518110611eef57611eef612b59565b60200260200101519050836001600160a01b0316816001600160a01b031603611f2357611f236411d4cc8c0d60da1b611a38565b611f2c816119c5565b6001600160a01b039384165f90815260026020526040902080546001600160a01b03191694821694909417909355600101611ed4565b506001600160a01b039091165f90815260026020526040902080546001600160a01b031916600117905560035560045550565b306001600160a01b03821603611fb657611fb664047533430360dc1b611a38565b7f6c9a6c4a39284e37ed1cf53d337577d14212a4870fb976a4366c693b939918d555565b60015f8190526020527fcc69885fda6bcc1a4ace058b4a62bf5e179ea78fd58a1ccd71c22cc9b688792f546001600160a01b0316156120245761202464047533130360dc1b611a38565b60015f81905260208190527fcc69885fda6bcc1a4ace058b4a62bf5e179ea78fd58a1ccd71c22cc9b688792f80546001600160a01b03191690911790556001600160a01b0382161561079057813b612087576120876423a998181960d91b611a38565b612096825f8360015f19611c4b565b6107905761079064047533030360dc1b611a38565b6120b4816120e8565b6001600160a01b038281165f908152600260205260409020548116908216146107905761079064475332303560d81b611a38565b6001600160a01b038116158061210757506001600160a01b0381166001145b8061212a57506001600160a01b0381163014801561212a57506121286121e6565b155b156119fe576119fe64475332303360d81b611a38565b5f8061214c8385612b27565b905083811015611a31575f5ffd5b604080516001600160a01b03841660248201526044808201849052825180830390910181526064909101909152602080820180516001600160e01b031663a9059cbb60e01b17815282515f93929184919082896127105a03f13d80156121ca57602081146121d2575f93506121dc565b8193506121dc565b5f51158215171593505b5050509392505050565b5f60035f5f303c505f5160e81c62ef01001490565b6001600160a01b03811681146119fe575f5ffd5b803561221a816121fb565b919050565b5f5f60408385031215612230575f5ffd5b823561223b816121fb565b946020939093013593505050565b5f5f83601f840112612259575f5ffd5b5081356001600160401b0381111561226f575f5ffd5b602083019150836020828501011115612286575f5ffd5b9250929050565b634e487b7160e01b5f52604160045260245ffd5b5f82601f8301126122b0575f5ffd5b81356001600160401b038111156122c9576122c961228d565b604051601f8201601f19908116603f011681016001600160401b03811182821017156122f7576122f761228d565b60405281815283820160200185101561230e575f5ffd5b816020850160208301375f918101602001919091529392505050565b5f5f5f5f5f6080868803121561233e575f5ffd5b8535945060208601356001600160401b0381111561235a575f5ffd5b61236688828901612249565b90955093505060408601356001600160401b03811115612384575f5ffd5b612390888289016122a1565b95989497509295606001359392505050565b5f5f5f5f608085870312156123b5575f5ffd5b84356123c0816121fb565b93506020850135925060408501356001600160401b038111156123e1575f5ffd5b6123ed878288016122a1565b949793965093946060013593505050565b5f6020828403121561240e575f5ffd5b8135611a31816121fb565b80356002811061221a575f5ffd5b5f5f5f5f6080858703121561243a575f5ffd5b8435612445816121fb565b93506020850135925060408501356001600160401b03811115612466575f5ffd5b612472878288016122a1565b92505061248160608601612419565b905092959194509250565b5f81518084528060208401602086015e5f602082860101526020601f19601f83011685010191505092915050565b8215158152604060208201525f6124d4604083018461248c565b949350505050565b5f5f604083850312156124ed575f5ffd5b50508035926020909101359150565b602081525f611a31602083018461248c565b5f6020828403121561251e575f5ffd5b5035919050565b5f5f5f5f5f5f5f5f5f5f5f6101408c8e031215612540575f5ffd5b6125498c61220f565b9a5060208c0135995060408c01356001600160401b0381111561256a575f5ffd5b6125768e828f01612249565b909a509850612589905060608d01612419565b965060808c0135955060a08c0135945060c08c013593506125ac60e08d0161220f565b92506125bb6101008d0161220f565b91506101208c01356001600160401b038111156125d6575f5ffd5b6125e28e828f016122a1565b9150509295989b509295989b9093969950565b5f5f5f5f60608587031215612608575f5ffd5b8435935060208501356001600160401b03811115612624575f5ffd5b61263087828801612249565b90945092505060408501356001600160401b0381111561264e575f5ffd5b61265a878288016122a1565b91505092959194509250565b5f8151808452602084019350602083015f5b8281101561269f5781516001600160a01b0316865260209586019590910190600101612678565b5093949350505050565b602081525f611a316020830184612666565b5f5f604083850312156126cc575f5ffd5b82356126d7816121fb565b915060208301356001600160401b038111156126f1575f5ffd5b6126fd858286016122a1565b9150509250929050565b5f5f5f5f5f5f5f5f5f5f6101008b8d031215612721575f5ffd5b8a356001600160401b03811115612736575f5ffd5b8b01601f81018d13612746575f5ffd5b80356001600160401b0381111561275b575f5ffd5b8d60208260051b840101111561276f575f5ffd5b60209182019b5099508b0135975061278960408c0161220f565b965060608b01356001600160401b038111156127a3575f5ffd5b6127af8d828e01612249565b90975095506127c2905060808c0161220f565b93506127d060a08c0161220f565b925060c08b013591506127e560e08c0161220f565b90509295989b9194979a5092959850565b604081525f6128086040830185612666565b905060018060a01b03831660208301529392505050565b5f5f5f5f5f5f5f5f5f5f5f6101408c8e03121561283a575f5ffd5b8b35612845816121fb565b9a5060208c0135995060408c01356001600160401b03811115612866575f5ffd5b6128728e828f01612249565b909a509850612885905060608d01612419565b965060808c0135955060a08c0135945060c08c0135935060e08c01356128aa816121fb565b92506101008c01356128bb816121fb565b809250505f6101208d01359050809150509295989b509295989b9093969950565b5f5f604083850312156128ed575f5ffd5b82356128f8816121fb565b91506020830135612908816121fb565b809150509250929050565b5f5f5f60608486031215612925575f5ffd5b8335612930816121fb565b92506020840135612940816121fb565b91506040840135612950816121fb565b809150509250925092565b5f5f5f6060848603121561296d575f5ffd5b8335612978816121fb565b92506020840135915060408401356001600160401b03811115612999575f5ffd5b6129a5868287016122a1565b9150509250925092565b5f5f5f606084860312156129c1575f5ffd5b83356129cc816121fb565b925060208401356129dc816121fb565b929592945050506040919091013590565b634e487b7160e01b5f52601160045260245ffd5b5f60018201612a1257612a126129ed565b5060010190565b81810381811115610a6b57610a6b6129ed565b634e487b7160e01b5f52602160045260245ffd5b60028110612a5c57634e487b7160e01b5f52602160045260245ffd5b9052565b6001600160a01b038d168152602081018c90526101606040820181905281018a9052898b6101808301375f6101808b830101525f601f19601f8c01168201612aab606084018c612a40565b8960808401528860a08401528760c0840152612ad260e08401886001600160a01b03169052565b6001600160a01b03861661010084015261018083820301610120840152612afd61018082018661248c565b915050612b166101408301846001600160a01b03169052565b9d9c50505050505050505050505050565b80820180821115610a6b57610a6b6129ed565b5f82612b5457634e487b7160e01b5f52601260045260245ffd5b500490565b634e487b7160e01b5f52603260045260245ffd5b608080825281018590525f8660a08301825b88811015612baf578235612b92816121fb565b6001600160a01b0316825260209283019290910190600101612b7f565b50602084019690965250506001600160a01b039283166040820152911660609091015292915050565b5f60208284031215612be8575f5ffd5b81518015158114611a31575f5ffd5b5f81612c0557612c056129ed565b505f190190565b8082028115828204841417610a6b57610a6b6129ed565b828152604060208201525f6124d4604083018461248c565b5f60208284031215612c4b575f5ffd5b81516001600160e01b031981168114611a31575f5ffd5b60018060a01b038616815284602082015260a060408201525f612c8860a083018661248c565b9050612c976060830185612a40565b6001600160a01b039290921660809190910152949350505050565b5f60208284031215612cc2575f5ffd5b505191905056fea264697066735822122008060fd37ff14b624901878a84dd273d26997da15f5dfd398ceef3cc3867ad3464736f6c634300081f0033","linkReferences":{}},"methodIdentifiers":{"VERSION()":"ffa1ad74","addOwnerWithThreshold(address,uint256)":"0d582f13","approveHash(bytes32)":"d4d9bdcd","approvedHashes(address,bytes32)":"7d832974","changeThreshold(uint256)":"694e80c3","checkNSignatures(address,bytes32,bytes,uint256)":"1fcac7f3","checkNSignatures(bytes32,bytes,bytes,uint256)":"12fb68e0","checkSignatures(address,bytes32,bytes)":"f855438b","checkSignatures(bytes32,bytes,bytes)":"934f3a11","disableModule(address,address)":"e009cfde","domainSeparator()":"f698da25","enableModule(address)":"610b5925","execTransaction(address,uint256,bytes,uint8,uint256,uint256,uint256,address,address,bytes)":"6a761202","execTransactionFromModule(address,uint256,bytes,uint8)":"468721a7","execTransactionFromModuleReturnData(address,uint256,bytes,uint8)":"5229073f","getModulesPaginated(address,uint256)":"cc2f8452","getOwners()":"a0e67e2b","getStorageAt(uint256,uint256)":"5624b25b","getThreshold()":"e75235b8","getTransactionHash(address,uint256,bytes,uint8,uint256,uint256,uint256,address,address,uint256)":"d8d11f78","isModuleEnabled(address)":"2d9ad53d","isOwner(address)":"2f54bf6e","nonce()":"affed0e0","removeOwner(address,address,uint256)":"f8dc5dd9","setFallbackHandler(address)":"f08a0323","setGuard(address)":"e19a9dd9","setModuleGuard(address)":"e068df37","setup(address[],uint256,address,bytes,address,address,uint256,address)":"b63e800d","signedMessages(bytes32)":"5ae6bd37","simulateAndRevert(address,bytes)":"b4faba09","swapOwner(address,address,address)":"e318b52b"},"id":115}