{"abi":[{"type":"function","name":"onERC1155BatchReceived","inputs":[{"name":"","type":"address","internalType":"address"},{"name":"","type":"address","internalType":"address"},{"name":"","type":"uint256[]","internalType":"uint256[]"},{"name":"","type":"uint256[]","internalType":"uint256[]"},{"name":"","type":"bytes","internalType":"bytes"}],"outputs":[{"name":"","type":"bytes4","internalType":"bytes4"}],"stateMutability":"view"},{"type":"function","name":"onERC1155Received","inputs":[{"name":"","type":"address","internalType":"address"},{"name":"","type":"address","internalType":"address"},{"name":"","type":"uint256","internalType":"uint256"},{"name":"","type":"uint256","internalType":"uint256"},{"name":"","type":"bytes","internalType":"bytes"}],"outputs":[{"name":"","type":"bytes4","internalType":"bytes4"}],"stateMutability":"view"},{"type":"function","name":"onERC721Received","inputs":[{"name":"","type":"address","internalType":"address"},{"name":"","type":"address","internalType":"address"},{"name":"","type":"uint256","internalType":"uint256"},{"name":"","type":"bytes","internalType":"bytes"}],"outputs":[{"name":"","type":"bytes4","internalType":"bytes4"}],"stateMutability":"view"},{"type":"function","name":"supportsInterface","inputs":[{"name":"interfaceId","type":"bytes4","internalType":"bytes4"}],"outputs":[{"name":"","type":"bool","internalType":"bool"}],"stateMutability":"view"},{"type":"function","name":"tokensReceived","inputs":[{"name":"","type":"address","internalType":"address"},{"name":"","type":"address","internalType":"address"},{"name":"","type":"address","internalType":"address"},{"name":"","type":"uint256","internalType":"uint256"},{"name":"","type":"bytes","internalType":"bytes"},{"name":"","type":"bytes","internalType":"bytes"}],"outputs":[],"stateMutability":"pure"}],"bytecode":{"object":"0x6080604052348015600e575f5ffd5b506106a38061001c5f395ff3fe608060405234801561000f575f5ffd5b5060043610610054575f3560e01c806223de291461005857806301ffc9a714610072578063150b7a021461009a578063bc197c81146100c6578063f23a6e61146100d9575b5f5ffd5b6100706100663660046102e5565b5050505050505050565b005b610085610080366004610394565b6100ec565b60405190151581526020015b60405180910390f35b6100ad6100a83660046103c2565b61013d565b6040516001600160e01b03199091168152602001610091565b6100ad6100d4366004610471565b610158565b6100ad6100e7366004610514565b610176565b5f6001600160e01b03198216630271189760e51b148061011c57506001600160e01b03198216630a85bd0160e11b145b8061013757506001600160e01b031982166301ffc9a760e01b145b92915050565b5f610146610192565b50630a85bd0160e11b95945050505050565b5f610161610192565b5063bc197c8160e01b98975050505050505050565b5f61017f610192565b5063f23a6e6160e01b9695505050505050565b604051635624b25b60e01b81527f6c9a6c4a39284e37ed1cf53d337577d14212a4870fb976a4366c693b939918d56004820152600160248201525f903390635624b25b906044015f60405180830381865afa1580156101f3573d5f5f3e3d5ffd5b505050506040513d5f823e601f3d908101601f1916820160405261021a919081019061059f565b90505f818060200190518101906102319190610652565b90506001600160a01b03811630146102855760405162461bcd60e51b81526020600482015260136024820152721b9bdd08184819985b1b189858dac818d85b1b606a1b604482015260640160405180910390fd5b5050565b6001600160a01b038116811461029d575f5ffd5b50565b5f5f83601f8401126102b0575f5ffd5b50813567ffffffffffffffff8111156102c7575f5ffd5b6020830191508360208285010111156102de575f5ffd5b9250929050565b5f5f5f5f5f5f5f5f60c0898b0312156102fc575f5ffd5b883561030781610289565b9750602089013561031781610289565b9650604089013561032781610289565b955060608901359450608089013567ffffffffffffffff811115610349575f5ffd5b6103558b828c016102a0565b90955093505060a089013567ffffffffffffffff811115610374575f5ffd5b6103808b828c016102a0565b999c989b5096995094979396929594505050565b5f602082840312156103a4575f5ffd5b81356001600160e01b0319811681146103bb575f5ffd5b9392505050565b5f5f5f5f5f608086880312156103d6575f5ffd5b85356103e181610289565b945060208601356103f181610289565b935060408601359250606086013567ffffffffffffffff811115610413575f5ffd5b61041f888289016102a0565b969995985093965092949392505050565b5f5f83601f840112610440575f5ffd5b50813567ffffffffffffffff811115610457575f5ffd5b6020830191508360208260051b85010111156102de575f5ffd5b5f5f5f5f5f5f5f5f60a0898b031215610488575f5ffd5b883561049381610289565b975060208901356104a381610289565b9650604089013567ffffffffffffffff8111156104be575f5ffd5b6104ca8b828c01610430565b909750955050606089013567ffffffffffffffff8111156104e9575f5ffd5b6104f58b828c01610430565b909550935050608089013567ffffffffffffffff811115610374575f5ffd5b5f5f5f5f5f5f60a08789031215610529575f5ffd5b863561053481610289565b9550602087013561054481610289565b94506040870135935060608701359250608087013567ffffffffffffffff81111561056d575f5ffd5b61057989828a016102a0565b979a9699509497509295939492505050565b634e487b7160e01b5f52604160045260245ffd5b5f602082840312156105af575f5ffd5b815167ffffffffffffffff8111156105c5575f5ffd5b8201601f810184136105d5575f5ffd5b805167ffffffffffffffff8111156105ef576105ef61058b565b604051601f8201601f19908116603f0116810167ffffffffffffffff8111828210171561061e5761061e61058b565b604052818152828201602001861015610635575f5ffd5b8160208401602083015e5f91810160200191909152949350505050565b5f60208284031215610662575f5ffd5b81516103bb8161028956fea26469706673582212205037bbecb0020ecd6716006ae016262224c8b9851a016027a8b5ae55daab6be364736f6c634300081f0033","linkReferences":{}},"methodIdentifiers":{"onERC1155BatchReceived(address,address,uint256[],uint256[],bytes)":"bc197c81","onERC1155Received(address,address,uint256,uint256,bytes)":"f23a6e61","onERC721Received(address,address,uint256,bytes)":"150b7a02","supportsInterface(bytes4)":"01ffc9a7","tokensReceived(address,address,address,uint256,bytes,bytes)":"0023de29"},"id":55}