{"abi":[{"type":"fallback","stateMutability":"nonpayable"},{"type":"receive","stateMutability":"payable"},{"type":"function","name":"VERSION","inputs":[],"outputs":[{"name":"","type":"string","internalType":"string"}],"stateMutability":"view"},{"type":"function","name":"addOwnerWithThreshold","inputs":[{"name":"owner","type":"address","internalType":"address"},{"name":"_threshold","type":"uint256","internalType":"uint256"}],"outputs":[],"stateMutability":"nonpayable"},{"type":"function","name":"approveHash","inputs":[{"name":"hashToApprove","type":"bytes32","internalType":"bytes32"}],"outputs":[],"stateMutability":"nonpayable"},{"type":"function","name":"approvedHashes","inputs":[{"name":"","type":"address","internalType":"address"},{"name":"","type":"bytes32","internalType":"bytes32"}],"outputs":[{"name":"","type":"uint256","internalType":"uint256"}],"stateMutability":"view"},{"type":"function","name":"changeThreshold","inputs":[{"name":"_threshold","type":"uint256","internalType":"uint256"}],"outputs":[],"stateMutability":"nonpayable"},{"type":"function","name":"checkNSignatures","inputs":[{"name":"dataHash","type":"bytes32","internalType":"bytes32"},{"name":"data","type":"bytes","internalType":"bytes"},{"name":"signatures","type":"bytes","internalType":"bytes"},{"name":"requiredSignatures","type":"uint256","internalType":"uint256"}],"outputs":[],"stateMutability":"view"},{"type":"function","name":"checkNSignatures","inputs":[{"name":"executor","type":"address","internalType":"address"},{"name":"dataHash","type":"bytes32","internalType":"bytes32"},{"name":"signatures","type":"bytes","internalType":"bytes"},{"name":"requiredSignatures","type":"uint256","internalType":"uint256"}],"outputs":[],"stateMutability":"view"},{"type":"function","name":"checkSignatures","inputs":[{"name":"dataHash","type":"bytes32","internalType":"bytes32"},{"name":"data","type":"bytes","internalType":"bytes"},{"name":"signatures","type":"bytes","internalType":"bytes"}],"outputs":[],"stateMutability":"view"},{"type":"function","name":"checkSignatures","inputs":[{"name":"executor","type":"address","internalType":"address"},{"name":"dataHash","type":"bytes32","internalType":"bytes32"},{"name":"signatures","type":"bytes","internalType":"bytes"}],"outputs":[],"stateMutability":"view"},{"type":"function","name":"disableModule","inputs":[{"name":"prevModule","type":"address","internalType":"address"},{"name":"module","type":"address","internalType":"address"}],"outputs":[],"stateMutability":"nonpayable"},{"type":"function","name":"domainSeparator","inputs":[],"outputs":[{"name":"domainHash","type":"bytes32","internalType":"bytes32"}],"stateMutability":"view"},{"type":"function","name":"enableModule","inputs":[{"name":"module","type":"address","internalType":"address"}],"outputs":[],"stateMutability":"nonpayable"},{"type":"function","name":"execTransaction","inputs":[{"name":"to","type":"address","internalType":"address"},{"name":"value","type":"uint256","internalType":"uint256"},{"name":"data","type":"bytes","internalType":"bytes"},{"name":"operation","type":"uint8","internalType":"enum Enum.Operation"},{"name":"safeTxGas","type":"uint256","internalType":"uint256"},{"name":"baseGas","type":"uint256","internalType":"uint256"},{"name":"gasPrice","type":"uint256","internalType":"uint256"},{"name":"gasToken","type":"address","internalType":"address"},{"name":"refundReceiver","type":"address","internalType":"address payable"},{"name":"signatures","type":"bytes","internalType":"bytes"}],"outputs":[{"name":"success","type":"bool","internalType":"bool"}],"stateMutability":"payable"},{"type":"function","name":"execTransactionFromModule","inputs":[{"name":"to","type":"address","internalType":"address"},{"name":"value","type":"uint256","internalType":"uint256"},{"name":"data","type":"bytes","internalType":"bytes"},{"name":"operation","type":"uint8","internalType":"enum Enum.Operation"}],"outputs":[{"name":"success","type":"bool","internalType":"bool"}],"stateMutability":"nonpayable"},{"type":"function","name":"execTransactionFromModuleReturnData","inputs":[{"name":"to","type":"address","internalType":"address"},{"name":"value","type":"uint256","internalType":"uint256"},{"name":"data","type":"bytes","internalType":"bytes"},{"name":"operation","type":"uint8","internalType":"enum Enum.Operation"}],"outputs":[{"name":"success","type":"bool","internalType":"bool"},{"name":"returnData","type":"bytes","internalType":"bytes"}],"stateMutability":"nonpayable"},{"type":"function","name":"getModulesPaginated","inputs":[{"name":"start","type":"address","internalType":"address"},{"name":"pageSize","type":"uint256","internalType":"uint256"}],"outputs":[{"name":"array","type":"address[]","internalType":"address[]"},{"name":"next","type":"address","internalType":"address"}],"stateMutability":"view"},{"type":"function","name":"getOwners","inputs":[],"outputs":[{"name":"","type":"address[]","internalType":"address[]"}],"stateMutability":"view"},{"type":"function","name":"getStorageAt","inputs":[{"name":"offset","type":"uint256","internalType":"uint256"},{"name":"length","type":"uint256","internalType":"uint256"}],"outputs":[{"name":"","type":"bytes","internalType":"bytes"}],"stateMutability":"view"},{"type":"function","name":"getThreshold","inputs":[],"outputs":[{"name":"","type":"uint256","internalType":"uint256"}],"stateMutability":"view"},{"type":"function","name":"getTransactionHash","inputs":[{"name":"to","type":"address","internalType":"address"},{"name":"value","type":"uint256","internalType":"uint256"},{"name":"data","type":"bytes","internalType":"bytes"},{"name":"operation","type":"uint8","internalType":"enum Enum.Operation"},{"name":"safeTxGas","type":"uint256","internalType":"uint256"},{"name":"baseGas","type":"uint256","internalType":"uint256"},{"name":"gasPrice","type":"uint256","internalType":"uint256"},{"name":"gasToken","type":"address","internalType":"address"},{"name":"refundReceiver","type":"address","internalType":"address"},{"name":"_nonce","type":"uint256","internalType":"uint256"}],"outputs":[{"name":"txHash","type":"bytes32","internalType":"bytes32"}],"stateMutability":"view"},{"type":"function","name":"isModuleEnabled","inputs":[{"name":"module","type":"address","internalType":"address"}],"outputs":[{"name":"","type":"bool","internalType":"bool"}],"stateMutability":"view"},{"type":"function","name":"isOwner","inputs":[{"name":"owner","type":"address","internalType":"address"}],"outputs":[{"name":"","type":"bool","internalType":"bool"}],"stateMutability":"view"},{"type":"function","name":"nonce","inputs":[],"outputs":[{"name":"","type":"uint256","internalType":"uint256"}],"stateMutability":"view"},{"type":"function","name":"removeOwner","inputs":[{"name":"prevOwner","type":"address","internalType":"address"},{"name":"owner","type":"address","internalType":"address"},{"name":"_threshold","type":"uint256","internalType":"uint256"}],"outputs":[],"stateMutability":"nonpayable"},{"type":"function","name":"setFallbackHandler","inputs":[{"name":"handler","type":"address","internalType":"address"}],"outputs":[],"stateMutability":"nonpayable"},{"type":"function","name":"setGuard","inputs":[{"name":"guard","type":"address","internalType":"address"}],"outputs":[],"stateMutability":"nonpayable"},{"type":"function","name":"setModuleGuard","inputs":[{"name":"moduleGuard","type":"address","internalType":"address"}],"outputs":[],"stateMutability":"nonpayable"},{"type":"function","name":"setup","inputs":[{"name":"_owners","type":"address[]","internalType":"address[]"},{"name":"_threshold","type":"uint256","internalType":"uint256"},{"name":"to","type":"address","internalType":"address"},{"name":"data","type":"bytes","internalType":"bytes"},{"name":"fallbackHandler","type":"address","internalType":"address"},{"name":"paymentToken","type":"address","internalType":"address"},{"name":"payment","type":"uint256","internalType":"uint256"},{"name":"paymentReceiver","type":"address","internalType":"address payable"}],"outputs":[],"stateMutability":"nonpayable"},{"type":"function","name":"signedMessages","inputs":[{"name":"","type":"bytes32","internalType":"bytes32"}],"outputs":[{"name":"","type":"uint256","internalType":"uint256"}],"stateMutability":"view"},{"type":"function","name":"simulateAndRevert","inputs":[{"name":"targetContract","type":"address","internalType":"address"},{"name":"calldataPayload","type":"bytes","internalType":"bytes"}],"outputs":[],"stateMutability":"nonpayable"},{"type":"function","name":"swapOwner","inputs":[{"name":"prevOwner","type":"address","internalType":"address"},{"name":"oldOwner","type":"address","internalType":"address"},{"name":"newOwner","type":"address","internalType":"address"}],"outputs":[],"stateMutability":"nonpayable"},{"type":"event","name":"AddedOwner","inputs":[{"name":"owner","type":"address","indexed":true,"internalType":"address"}],"anonymous":false},{"type":"event","name":"ApproveHash","inputs":[{"name":"approvedHash","type":"bytes32","indexed":true,"internalType":"bytes32"},{"name":"owner","type":"address","indexed":true,"internalType":"address"}],"anonymous":false},{"type":"event","name":"ChangedFallbackHandler","inputs":[{"name":"handler","type":"address","indexed":true,"internalType":"address"}],"anonymous":false},{"type":"event","name":"ChangedGuard","inputs":[{"name":"guard","type":"address","indexed":true,"internalType":"address"}],"anonymous":false},{"type":"event","name":"ChangedModuleGuard","inputs":[{"name":"moduleGuard","type":"address","indexed":true,"internalType":"address"}],"anonymous":false},{"type":"event","name":"ChangedThreshold","inputs":[{"name":"threshold","type":"uint256","indexed":false,"internalType":"uint256"}],"anonymous":false},{"type":"event","name":"DisabledModule","inputs":[{"name":"module","type":"address","indexed":true,"internalType":"address"}],"anonymous":false},{"type":"event","name":"EnabledModule","inputs":[{"name":"module","type":"address","indexed":true,"internalType":"address"}],"anonymous":false},{"type":"event","name":"ExecutionFailure","inputs":[{"name":"txHash","type":"bytes32","indexed":true,"internalType":"bytes32"},{"name":"payment","type":"uint256","indexed":false,"internalType":"uint256"}],"anonymous":false},{"type":"event","name":"ExecutionFromModuleFailure","inputs":[{"name":"module","type":"address","indexed":true,"internalType":"address"}],"anonymous":false},{"type":"event","name":"ExecutionFromModuleSuccess","inputs":[{"name":"module","type":"address","indexed":true,"internalType":"address"}],"anonymous":false},{"type":"event","name":"ExecutionSuccess","inputs":[{"name":"txHash","type":"bytes32","indexed":true,"internalType":"bytes32"},{"name":"payment","type":"uint256","indexed":false,"internalType":"uint256"}],"anonymous":false},{"type":"event","name":"RemovedOwner","inputs":[{"name":"owner","type":"address","indexed":true,"internalType":"address"}],"anonymous":false},{"type":"event","name":"SafeModuleTransaction","inputs":[{"name":"module","type":"address","indexed":false,"internalType":"address"},{"name":"to","type":"address","indexed":false,"internalType":"address"},{"name":"value","type":"uint256","indexed":false,"internalType":"uint256"},{"name":"data","type":"bytes","indexed":false,"internalType":"bytes"},{"name":"operation","type":"uint8","indexed":false,"internalType":"enum Enum.Operation"}],"anonymous":false},{"type":"event","name":"SafeMultiSigTransaction","inputs":[{"name":"to","type":"address","indexed":false,"internalType":"address"},{"name":"value","type":"uint256","indexed":false,"internalType":"uint256"},{"name":"data","type":"bytes","indexed":false,"internalType":"bytes"},{"name":"operation","type":"uint8","indexed":false,"internalType":"enum Enum.Operation"},{"name":"safeTxGas","type":"uint256","indexed":false,"internalType":"uint256"},{"name":"baseGas","type":"uint256","indexed":false,"internalType":"uint256"},{"name":"gasPrice","type":"uint256","indexed":false,"internalType":"uint256"},{"name":"gasToken","type":"address","indexed":false,"internalType":"address"},{"name":"refundReceiver","type":"address","indexed":false,"internalType":"address payable"},{"name":"signatures","type":"bytes","indexed":false,"internalType":"bytes"},{"name":"additionalInfo","type":"bytes","indexed":false,"internalType":"bytes"}],"anonymous":false},{"type":"event","name":"SafeReceived","inputs":[{"name":"sender","type":"address","indexed":true,"internalType":"address"},{"name":"value","type":"uint256","indexed":false,"internalType":"uint256"}],"anonymous":false},{"type":"event","name":"SafeSetup","inputs":[{"name":"initiator","type":"address","indexed":true,"internalType":"address"},{"name":"owners","type":"address[]","indexed":false,"internalType":"address[]"},{"name":"threshold","type":"uint256","indexed":false,"internalType":"uint256"},{"name":"initializer","type":"address","indexed":false,"internalType":"address"},{"name":"fallbackHandler","type":"address","indexed":false,"internalType":"address"}],"anonymous":false},{"type":"event","name":"SignMsg","inputs":[{"name":"msgHash","type":"bytes32","indexed":true,"internalType":"bytes32"}],"anonymous":false}],"bytecode":{"object":"0x6080604052348015600e575f5ffd5b506001600455612ed9806100215f395ff3fe6080604052600436106101db575f3560e01c8063affed0e011610101578063e19a9dd911610094578063f698da2511610063578063f698da2514610610578063f855438b1461065a578063f8dc5dd914610679578063ffa1ad741461069857610217565b8063e19a9dd91461059f578063e318b52b146105be578063e75235b8146105dd578063f08a0323146105f157610217565b8063d4d9bdcd116100d0578063d4d9bdcd14610523578063d8d11f7814610542578063e009cfde14610561578063e068df371461058057610217565b8063affed0e0146104a3578063b4faba09146104b8578063b63e800d146104d7578063cc2f8452146104f657610217565b80635624b25b116101795780636a761202116101485780636a7612021461041a5780637d8329741461042d578063934f3a1114610463578063a0e67e2b1461048257610217565b80635624b25b146103775780635ae6bd37146103a3578063610b5925146103dc578063694e80c3146103fb57610217565b80632d9ad53d116101b55780632d9ad53d146102d85780632f54bf6e1461030c578063468721a71461032b5780635229073f1461034a57610217565b80630d582f131461027957806312fb68e01461029a5780631fcac7f3146102b957610217565b366102175760405134815233907f3d0ce9bfc3ed7d6862dbb28b2dea94561fe714a1b4d019aa8af39730d1ad7c3d9060200160405180910390a2005b348015610222575f5ffd5b507f6c9a6c4a39284e37ed1cf53d337577d14212a4870fb976a4366c693b939918d5548061024c57005b604051365f82373360601b368201525f5f60143601835f865af191503d5f823e81610275573d81fd5b3d81f35b348015610284575f5ffd5b50610298610293366004612316565b6106c8565b005b3480156102a5575f5ffd5b506102986102b4366004612421565b610794565b3480156102c4575f5ffd5b506102986102d3366004612499565b6107a7565b3480156102e3575f5ffd5b506102f76102f23660046124f5565b610a38565b60405190151581526020015b60405180910390f35b348015610317575f5ffd5b506102f76103263660046124f5565b610a71565b348015610336575f5ffd5b506102f761034536600461251e565b610aa8565b348015610355575f5ffd5b5061036961036436600461251e565b610ae0565b6040516103039291906125b1565b348015610382575f5ffd5b506103966103913660046125d3565b610b33565b60405161030391906125f3565b3480156103ae575f5ffd5b506103ce6103bd366004612605565b60076020525f908152604090205481565b604051908152602001610303565b3480156103e7575f5ffd5b506102986103f63660046124f5565b610ba6565b348015610406575f5ffd5b50610298610415366004612605565b610c9d565b6102f761042836600461261c565b610d13565b348015610438575f5ffd5b506103ce610447366004612316565b600860209081525f928352604080842090915290825290205481565b34801561046e575f5ffd5b5061029861047d3660046126ec565b611009565b34801561048d575f5ffd5b5061049661101a565b60405161030391906127a0565b3480156104ae575f5ffd5b506103ce60055481565b3480156104c3575f5ffd5b506102986104d23660046127b2565b611105565b3480156104e2575f5ffd5b506102986104f13660046127fe565b61112a565b348015610501575f5ffd5b50610515610510366004612316565b611228565b6040516103039291906128ed565b34801561052e575f5ffd5b5061029861053d366004612605565b6113a4565b34801561054d575f5ffd5b506103ce61055c366004612916565b611418565b34801561056c575f5ffd5b5061029861057b3660046129d3565b6114ed565b34801561058b575f5ffd5b5061029861059a3660046124f5565b6115cd565b3480156105aa575f5ffd5b506102986105b93660046124f5565b6116c7565b3480156105c9575f5ffd5b506102986105d8366004612a0a565b6117c1565b3480156105e8575f5ffd5b506004546103ce565b3480156105fc575f5ffd5b5061029861060b3660046124f5565b611890565b34801561061b575f5ffd5b50604080517f47e79534a245952e8b16893a336b85a3d9ea9fa8c573f3d803afb92a7946921881524660208201523091810191909152606090206103ce565b348015610665575f5ffd5b50610298610674366004612a52565b6118d7565b348015610684575f5ffd5b50610298610693366004612aa6565b6118ff565b3480156106a3575f5ffd5b50610396604051806040016040528060058152602001640312e352e360dc1b81525081565b6106d06119be565b6106d9826119d8565b60026020527fe90b7bceb6e7df5418fb78d8ee546e97c83a08bbccc01a0644d599ccd2a7c2e080546001600160a01b038481165f818152604081208054939094166001600160a01b031993841617909355600183528354909116179091556003805490919061074790612af8565b909155506040516001600160a01b038316907f9465fa0c962cc76958e6373a993326400c1c94f8be2fe3a952adfa7f60b2ea26905f90a280600454146107905761079081610c9d565b5050565b6107a0338684846107a7565b5050505050565b6107b2816041611a14565b825110156107cb576107cb64047533032360dc1b611a4b565b5f80808080805b86811015610a2c57604181028801602081015160408201516060909201515f90811a965090945090925084900361083c579193508391610813876041611a14565b82101561082b5761082b64475330323160d81b611a4b565b610837858a8a85611a70565b6109bd565b836001036108a157825f1c9450846001600160a01b03168a6001600160a01b03161415801561088b57506001600160a01b0385165f9081526008602090815260408083208c8452909152902054155b156108375761083764475330323560d81b611a4b565b601e841115610960576040517f19457468657265756d205369676e6564204d6573736167653a0a3332000000006020820152603c81018a9052600190605c01604051602081830303815290604052805190602001206004866109039190612b10565b604080515f8152602081018083529390935260ff90911690820152606081018590526080810184905260a0016020604051602081039080840390855afa15801561094f573d5f5f3e3d5ffd5b5050506020604051035194506109bd565b604080515f8152602081018083528b905260ff861691810191909152606081018490526080810183905260019060a0016020604051602081039080840390855afa1580156109b0573d5f5f3e3d5ffd5b5050506020604051035194505b856001600160a01b0316856001600160a01b03161115806109f557506001600160a01b038581165f9081526002602052604090205416155b80610a0957506001600160a01b0385166001145b15610a1f57610a1f6423a998191b60d91b611a4b565b93945084936001016107d2565b50505050505050505050565b5f60016001600160a01b03831614801590610a6b57506001600160a01b038281165f908152600160205260409020541615155b92915050565b5f6001600160a01b03821660011480610aa157506001600160a01b038281165f9081526002602052604090205416155b1592915050565b5f5f5f610ab787878787611b72565b91509150610ac9878787875f19611c6d565b9250610ad6828285611cb1565b5050949350505050565b5f60605f5f610af188888888611b72565b91509150610b03888888885f19611c6d565b9350604051925060203d0183016040523d83523d5f602085013e610b28828286611cb1565b505094509492505050565b60605f600583901b6001600160401b03811115610b5257610b52612384565b6040519080825280601f01601f191660200182016040528015610b7c576020820181803683370190505b5090505f5b83811015610b9e5784810154602080830284010152600101610b81565b509392505050565b610bae6119be565b6001600160a01b0381161580610bcd57506001600160a01b0381166001145b15610be357610be364475331303160d81b611a4b565b6001600160a01b038181165f908152600160205260409020541615610c1357610c136423a998981960d91b611a4b565b600160208190527fcc69885fda6bcc1a4ace058b4a62bf5e179ea78fd58a1ccd71c22cc9b688792f80546001600160a01b038481165f81815260408082208054949095166001600160a01b031994851617909455948552835490911681179092555190917fecdf3a3effea5783a3c4c2140e677577666428d44ed9d474a0b3a4c9943f844091a250565b610ca56119be565b600354811115610cc057610cc064475332303160d81b611a4b565b805f03610cd857610cd86423a999181960d91b611a4b565b60048190556040518181527f610f7ff2b304ae8903c3de74c60c6ab1f7d6226b3f52c5161905bb5ad4039c939060200160405180910390a150565b5f610d278c8c8c8c8c8c8c8c8c8c8c611d82565b5f610d508d8d8d8d8d8d8d8d8d8d60055f815480929190610d4790612af8565b91905055611418565b9050610d5d3382856118d7565b5f610d867f4a204f620c8c5ccdca3fd54d003badd85ba500436a431f0cbda4f558c93c34c85490565b90506001600160a01b03811615610e0757806001600160a01b03166375f0bb528f8f8f8f8f8f8f8f8f8f8f336040518d63ffffffff1660e01b8152600401610dd99c9b9a99989796959493929190612b7f565b5f604051808303815f87803b158015610df0575f5ffd5b505af1158015610e02573d5f5f3e3d5ffd5b505050505b610e2b610e168a6109c4612c18565b610e25603f60068d901b612c2b565b90611e12565b610e37906101f4612c18565b5a1015610e4f57610e4f64047533031360dc1b611a4b565b5f5a9050610ebd8f8f8f8f8080601f0160208091040260200160405190810160405280939291908181526020018383808284375f81840152601f19601f820116905080830192505050505050508e8c5f14610eaa578e611c6d565b6109c45a610eb89190612b10565b611c6d565b9350610eca5a8290611e28565b905083158015610ed8575089155b8015610ee2575087155b15610ef2576040513d5f823e3d81fd5b5f8815610f0957610f06828b8b8b8b611e3f565b90505b8415610f4e57837f442e715f626346e8c54381002da614f62bee8d27386535b2521ec8540898556e82604051610f4191815260200190565b60405180910390a2610f89565b837f23428b18acfb3ea64b08dc0c1d296ea9c09702c09083ca5272e64d115b687d2382604051610f8091815260200190565b60405180910390a25b50506001600160a01b03811615610ff857604051631264e26d60e31b81526004810183905283151560248201526001600160a01b038216906393271368906044015f604051808303815f87803b158015610fe1575f5ffd5b505af1158015610ff3573d5f5f3e3d5ffd5b505050505b50509b9a5050505050505050505050565b6110143385836118d7565b50505050565b60605f6003546001600160401b0381111561103757611037612384565b604051908082528060200260200182016040528015611060578160200160208202803683370190505b5060015f90815260026020527fe90b7bceb6e7df5418fb78d8ee546e97c83a08bbccc01a0644d599ccd2a7c2e054919250906001600160a01b03165b6001600160a01b0381166001146110fd57808383815181106110c0576110c0612c4a565b6001600160a01b039283166020918202929092018101919091529181165f9081526002909252604090912054166110f682612af8565b915061109c565b509092915050565b5f5f825160208401855af46040518181523d60208201523d5f604083013e60403d0181fd5b336001600160a01b03167f141df868a6331af528e38c83b7aa03edc19be66e37ae67f9285bf4f8e3c6a1a88b8b8b8b8960405161116b959493929190612c5e565b60405180910390a26111b08a8a808060200260200160405190810160405280939291908181526020018383602002808284375f920191909152508c9250611f34915050565b6001600160a01b038416156111c8576111c884612047565b6112078787878080601f0160208091040260200160405190810160405280939291908181526020018383808284375f9201919091525061208c92505050565b8115610a2c5761121b825f60018685611e3f565b5050505050505050505050565b60605f6001600160a01b03841660011480159061124b575061124984610a38565b155b156112615761126164475331303560d81b611a4b565b825f03611279576112796423a998981b60d91b611a4b565b826001600160401b0381111561129157611291612384565b6040519080825280602002602001820160405280156112ba578160200160208202803683370190505b506001600160a01b038086165f90815260016020526040812054929450911691505b6001600160a01b038216158015906112fe57506001600160a01b038216600114155b801561130957508381105b15611361578183828151811061132157611321612c4a565b6001600160a01b039283166020918202929092018101919091529281165f90815260019093526040909220549091169061135a81612af8565b90506112dc565b6001600160a01b038216600114611399578261137e600183612b10565b8151811061138e5761138e612c4a565b602002602001015191505b808352509250929050565b335f908152600260205260409020546001600160a01b03166113d1576113d164047533033360dc1b611a4b565b335f818152600860209081526040808320858452909152808220600190555183917ff2a0eb156472d1440255b0d7c1e19cc07115d1051fe605b0dce69acfec884d9c91a350565b5f5f61145a5f6040517f47e79534a245952e8b16893a336b85a3d9ea9fa8c573f3d803afb92a7946921881524660208201523060408201526060812091505090565b90506040518a8c8237998a207fbb8310d486368db6bd6f849402fdd73ad53d316b5a4b2644ad6efe0f941286d88b5260208b019d8e5260408b019c8d5260608b015260808a01989098525060a088019590955260c087019390935260e086019190915261010085015261012084015261014083015261016082209093526119018152919092526042601e90910120919050565b6114f56119be565b6001600160a01b038116158061151457506001600160a01b0381166001145b1561152a5761152a64475331303160d81b611a4b565b6001600160a01b038281165f9081526001602052604090205481169082161461155e5761155e64475331303360d81b611a4b565b6001600160a01b038181165f81815260016020526040808220805487861684528284208054919096166001600160a01b0319918216179095558383528054909416909355915190917faab4fa2b463f581b2b32cb3b7e3b704b9ce37cc209b5fb4d77e593ace405427691a25050565b6115d56119be565b6001600160a01b0381161580159061165757506040516301ffc9a760e01b8152630b0803db60e31b60048201526001600160a01b038216906301ffc9a790602401602060405180830381865afa158015611631573d5f5f3e3d5ffd5b505050506040513d601f19601f820116820180604052508101906116559190612cc9565b155b1561166d5761166d64475333303160d81b611a4b565b7fb104e0b93118902c651344349b610029d694cfdec91c589c91ebafbcd02899478190556040516001600160a01b038216907fcd1966d6be16bc0c030cc741a06c6e0efaf8d00de2c8b6a9e11827e125de8bb8905f90a250565b6116cf6119be565b6001600160a01b0381161580159061175157506040516301ffc9a760e01b815263736bd41d60e11b60048201526001600160a01b038216906301ffc9a790602401602060405180830381865afa15801561172b573d5f5f3e3d5ffd5b505050506040513d601f19601f8201168201806040525081019061174f9190612cc9565b155b156117675761176764047533330360dc1b611a4b565b7f4a204f620c8c5ccdca3fd54d003badd85ba500436a431f0cbda4f558c93c34c88190556040516001600160a01b038216907f1151116914515bc0891ff9047a6cb32cf902546f83066499bcf8ba33d2353fa2905f90a250565b6117c96119be565b6117d2816119d8565b6117dc838361215d565b6001600160a01b038281165f81815260026020526040808220805486861680855283852080549288166001600160a01b03199384161790559589168452828420805482169096179095558383528054909416909355915190917ff8d49fc529812e9a7c5c50e69c20f0dccc0db8fa95c98bc58cc9a4f1c1299eaf91a26040516001600160a01b038216907f9465fa0c962cc76958e6373a993326400c1c94f8be2fe3a952adfa7f60b2ea26905f90a2505050565b6118986119be565b6118a181612047565b6040516001600160a01b038216907f5ac6c46c93c8d0e53714ba3b53db3e7c046da994313d7ed0d192028bc7c228b0905f90a250565b6004545f8190036118f3576118f364475330303160d81b611a4b565b611014848484846107a7565b6119076119be565b8060035f815461191690612ce8565b918290555010156119325761193264475332303160d81b611a4b565b61193c838361215d565b6001600160a01b038281165f81815260026020526040808220805488861684528284208054919096166001600160a01b0319918216179095558383528054909416909355915190917ff8d49fc529812e9a7c5c50e69c20f0dccc0db8fa95c98bc58cc9a4f1c1299eaf91a280600454146119b9576119b981610c9d565b505050565b3330146119d6576119d664475330333160d81b611a4b565b565b6119e18161219a565b6001600160a01b038181165f908152600260205260409020541615611a1157611a116411d4cc8c0d60da1b611a4b565b50565b5f825f03611a2357505f610a6b565b5f611a2e8385612cfd565b905082611a3b8583612c2b565b14611a44575f5ffd5b9392505050565b60405162461bcd60e51b81526020600482015260056024820152816044820152606481fd5b8151611a7d8260206121f2565b1115611a9457611a946423a998191960d91b611a4b565b5f6020828401015190508251611abe82611ab86020866121f290919063ffffffff16565b906121f2565b1115611ad557611ad564475330323360d81b611a4b565b604051630b135d3f60e11b808252848401602001916001600160a01b03881690631626ba7e90611b0b9089908690600401612d14565b602060405180830381865afa158015611b26573d5f5f3e3d5ffd5b505050506040513d601f19601f82011682018060405250810190611b4a9190612d2c565b6001600160e01b03191614611b6a57611b6a6411d4cc0c8d60da1b611a4b565b505050505050565b5f5f611b808686868661220c565b7fb104e0b93118902c651344349b610029d694cfdec91c589c91ebafbcd02899475491503360011480611bc85750335f908152600160205260409020546001600160a01b0316155b15611bde57611bde6411d4cc4c0d60da1b611a4b565b6001600160a01b03821615611c645760405163394614b960e11b81526001600160a01b0383169063728c297290611c219089908990899089903390600401612d53565b6020604051808303815f875af1158015611c3d573d5f5f3e3d5ffd5b505050506040513d601f19601f82011682018060405250810190611c619190612da3565b90505b94509492505050565b5f6001836001811115611c8257611c82612b4b565b03611c99575f5f8551602087018986f49050611ca8565b5f5f855160208701888a87f190505b95945050505050565b6001600160a01b03831615611d1e576040516315661bd560e11b81526004810183905281151560248201526001600160a01b03841690632acc37aa906044015f604051808303815f87803b158015611d07575f5ffd5b505af1158015611d19573d5f5f3e3d5ffd5b505050505b8015611d535760405133907f6895c13664aa4f67288b25d7a21d7aaa34916e355fb9b6fae0a139a9085becb8905f90a2505050565b60405133907facd2c8702804128fdb0db2bb49f6d127dd0181c13fd45dbfe16de0930e2bd375905f90a2505050565b60055460045460408051602081019390935233908301526060828101919091529060800160405160208183030381529060405290507f66753cd2356569ee081232e3be8909b950e0a76c1f8460c3a5e3c2be32b11bed8c8c8c8c8c8c8c8c8c8c8c8c604051611dfc9c9b9a99989796959493929190612dba565b60405180910390a1505050505050505050505050565b5f81831015611e215781611a44565b5090919050565b5f82821115611e35575f5ffd5b611a448284612b10565b5f806001600160a01b03831615611e565782611e58565b325b90506001600160a01b038416611efa57611e8a3a8610611e78573a611e7a565b855b611e8489896121f2565b90611a14565b91505f816001600160a01b0316836040515f6040518083038185875af1925050503d805f8114611ed5576040519150601f19603f3d011682016040523d82523d5f602084013e611eda565b606091505b5050905080611ef457611ef464475330313160d81b611a4b565b50611f2a565b611f0885611e8489896121f2565b9150611f15848284612251565b611f2a57611f2a6423a998189960d91b611a4b565b5095945050505050565b60045415611f4d57611f4d64047533230360dc1b611a4b565b8151811115611f6757611f6764475332303160d81b611a4b565b805f03611f7f57611f7f6423a999181960d91b611a4b565b81516001905f5b81811015612014575f858281518110611fa157611fa1612c4a565b60200260200101519050836001600160a01b0316816001600160a01b031603611fd557611fd56411d4cc8c0d60da1b611a4b565b611fde816119d8565b6001600160a01b039384165f90815260026020526040902080546001600160a01b03191694821694909417909355600101611f86565b506001600160a01b039091165f90815260026020526040902080546001600160a01b031916600117905560035560045550565b306001600160a01b038216036120685761206864047533430360dc1b611a4b565b7f6c9a6c4a39284e37ed1cf53d337577d14212a4870fb976a4366c693b939918d555565b60015f8190526020527fcc69885fda6bcc1a4ace058b4a62bf5e179ea78fd58a1ccd71c22cc9b688792f546001600160a01b0316156120d6576120d664047533130360dc1b611a4b565b60015f81905260208190527fcc69885fda6bcc1a4ace058b4a62bf5e179ea78fd58a1ccd71c22cc9b688792f80546001600160a01b03191690911790556001600160a01b0382161561079057813b612139576121396423a998181960d91b611a4b565b612148825f8360015f19611c6d565b6107905761079064047533030360dc1b611a4b565b6121668161219a565b6001600160a01b038281165f908152600260205260409020548116908216146107905761079064475332303560d81b611a4b565b6001600160a01b03811615806121b957506001600160a01b0381166001145b806121dc57506001600160a01b038116301480156121dc57506121da6122dd565b155b15611a1157611a1164475332303360d81b611a4b565b5f806121fe8385612c18565b905083811015611a44575f5ffd5b7fb648d3644f584ed1c2232d53c46d87e693586486ad0d1175f8656013110b714e3385858585604051612243959493929190612e58565b60405180910390a150505050565b604080516001600160a01b03841660248201526044808201849052825180830390910181526064909101909152602080820180516001600160e01b031663a9059cbb60e01b17815282515f93929184919082896127105a03f13d80156122c157602081146122c9575f93506122d3565b8193506122d3565b5f51158215171593505b5050509392505050565b5f60035f5f303c505f5160e81c62ef01001490565b6001600160a01b0381168114611a11575f5ffd5b8035612311816122f2565b919050565b5f5f60408385031215612327575f5ffd5b8235612332816122f2565b946020939093013593505050565b5f5f83601f840112612350575f5ffd5b5081356001600160401b03811115612366575f5ffd5b60208301915083602082850101111561237d575f5ffd5b9250929050565b634e487b7160e01b5f52604160045260245ffd5b5f82601f8301126123a7575f5ffd5b81356001600160401b038111156123c0576123c0612384565b604051601f8201601f19908116603f011681016001600160401b03811182821017156123ee576123ee612384565b604052818152838201602001851015612405575f5ffd5b816020850160208301375f918101602001919091529392505050565b5f5f5f5f5f60808688031215612435575f5ffd5b8535945060208601356001600160401b03811115612451575f5ffd5b61245d88828901612340565b90955093505060408601356001600160401b0381111561247b575f5ffd5b61248788828901612398565b95989497509295606001359392505050565b5f5f5f5f608085870312156124ac575f5ffd5b84356124b7816122f2565b93506020850135925060408501356001600160401b038111156124d8575f5ffd5b6124e487828801612398565b949793965093946060013593505050565b5f60208284031215612505575f5ffd5b8135611a44816122f2565b803560028110612311575f5ffd5b5f5f5f5f60808587031215612531575f5ffd5b843561253c816122f2565b93506020850135925060408501356001600160401b0381111561255d575f5ffd5b61256987828801612398565b92505061257860608601612510565b905092959194509250565b5f81518084528060208401602086015e5f602082860101526020601f19601f83011685010191505092915050565b8215158152604060208201525f6125cb6040830184612583565b949350505050565b5f5f604083850312156125e4575f5ffd5b50508035926020909101359150565b602081525f611a446020830184612583565b5f60208284031215612615575f5ffd5b5035919050565b5f5f5f5f5f5f5f5f5f5f5f6101408c8e031215612637575f5ffd5b6126408c612306565b9a5060208c0135995060408c01356001600160401b03811115612661575f5ffd5b61266d8e828f01612340565b909a509850612680905060608d01612510565b965060808c0135955060a08c0135945060c08c013593506126a360e08d01612306565b92506126b26101008d01612306565b91506101208c01356001600160401b038111156126cd575f5ffd5b6126d98e828f01612398565b9150509295989b509295989b9093969950565b5f5f5f5f606085870312156126ff575f5ffd5b8435935060208501356001600160401b0381111561271b575f5ffd5b61272787828801612340565b90945092505060408501356001600160401b03811115612745575f5ffd5b61275187828801612398565b91505092959194509250565b5f8151808452602084019350602083015f5b828110156127965781516001600160a01b031686526020958601959091019060010161276f565b5093949350505050565b602081525f611a44602083018461275d565b5f5f604083850312156127c3575f5ffd5b82356127ce816122f2565b915060208301356001600160401b038111156127e8575f5ffd5b6127f485828601612398565b9150509250929050565b5f5f5f5f5f5f5f5f5f5f6101008b8d031215612818575f5ffd5b8a356001600160401b0381111561282d575f5ffd5b8b01601f81018d1361283d575f5ffd5b80356001600160401b03811115612852575f5ffd5b8d60208260051b8401011115612866575f5ffd5b60209182019b5099508b0135975061288060408c01612306565b965060608b01356001600160401b0381111561289a575f5ffd5b6128a68d828e01612340565b90975095506128b9905060808c01612306565b93506128c760a08c01612306565b925060c08b013591506128dc60e08c01612306565b90509295989b9194979a5092959850565b604081525f6128ff604083018561275d565b905060018060a01b03831660208301529392505050565b5f5f5f5f5f5f5f5f5f5f5f6101408c8e031215612931575f5ffd5b8b3561293c816122f2565b9a5060208c0135995060408c01356001600160401b0381111561295d575f5ffd5b6129698e828f01612340565b909a50985061297c905060608d01612510565b965060808c0135955060a08c0135945060c08c0135935060e08c01356129a1816122f2565b92506101008c01356129b2816122f2565b809250505f6101208d01359050809150509295989b509295989b9093969950565b5f5f604083850312156129e4575f5ffd5b82356129ef816122f2565b915060208301356129ff816122f2565b809150509250929050565b5f5f5f60608486031215612a1c575f5ffd5b8335612a27816122f2565b92506020840135612a37816122f2565b91506040840135612a47816122f2565b809150509250925092565b5f5f5f60608486031215612a64575f5ffd5b8335612a6f816122f2565b92506020840135915060408401356001600160401b03811115612a90575f5ffd5b612a9c86828701612398565b9150509250925092565b5f5f5f60608486031215612ab8575f5ffd5b8335612ac3816122f2565b92506020840135612ad3816122f2565b929592945050506040919091013590565b634e487b7160e01b5f52601160045260245ffd5b5f60018201612b0957612b09612ae4565b5060010190565b81810381811115610a6b57610a6b612ae4565b81835281816020850137505f828201602090810191909152601f909101601f19169091010190565b634e487b7160e01b5f52602160045260245ffd5b60028110612b7b57634e487b7160e01b5f52602160045260245ffd5b9052565b60018060a01b038d1681528b602082015261016060408201525f612ba861016083018c8e612b23565b612bb5606084018c612b5f565b608083018a905260a0830189905260c083018890526001600160a01b0387811660e08501528616610100840152828103610120840152612bf58186612583565b91505060018060a01b0383166101408301529d9c50505050505050505050505050565b80820180821115610a6b57610a6b612ae4565b5f82612c4557634e487b7160e01b5f52601260045260245ffd5b500490565b634e487b7160e01b5f52603260045260245ffd5b608080825281018590525f8660a08301825b88811015612ca0578235612c83816122f2565b6001600160a01b0316825260209283019290910190600101612c70565b50602084019690965250506001600160a01b039283166040820152911660609091015292915050565b5f60208284031215612cd9575f5ffd5b81518015158114611a44575f5ffd5b5f81612cf657612cf6612ae4565b505f190190565b8082028115828204841417610a6b57610a6b612ae4565b828152604060208201525f6125cb6040830184612583565b5f60208284031215612d3c575f5ffd5b81516001600160e01b031981168114611a44575f5ffd5b60018060a01b038616815284602082015260a060408201525f612d7960a0830186612583565b9050612d886060830185612b5f565b6001600160a01b039290921660809190910152949350505050565b5f60208284031215612db3575f5ffd5b5051919050565b60018060a01b038d1681528b602082015261016060408201525f612de361016083018c8e612b23565b612df0606084018c612b5f565b608083018a905260a0830189905260c083018890526001600160a01b0387811660e08501528616610100840152828103610120840152612e308186612583565b9050828103610140840152612e458185612583565b9f9e505050505050505050505050505050565b6001600160a01b038681168252851660208201526040810184905260a0606082018190525f90612e8a90830185612583565b9050612e996080830184612b5f565b969550505050505056fea264697066735822122094ebd1909ebbac10f86f8227c639cc83e57d3776c8885107ec9a12f6cba3ca2a64736f6c634300081f0033","linkReferences":{}},"methodIdentifiers":{"VERSION()":"ffa1ad74","addOwnerWithThreshold(address,uint256)":"0d582f13","approveHash(bytes32)":"d4d9bdcd","approvedHashes(address,bytes32)":"7d832974","changeThreshold(uint256)":"694e80c3","checkNSignatures(address,bytes32,bytes,uint256)":"1fcac7f3","checkNSignatures(bytes32,bytes,bytes,uint256)":"12fb68e0","checkSignatures(address,bytes32,bytes)":"f855438b","checkSignatures(bytes32,bytes,bytes)":"934f3a11","disableModule(address,address)":"e009cfde","domainSeparator()":"f698da25","enableModule(address)":"610b5925","execTransaction(address,uint256,bytes,uint8,uint256,uint256,uint256,address,address,bytes)":"6a761202","execTransactionFromModule(address,uint256,bytes,uint8)":"468721a7","execTransactionFromModuleReturnData(address,uint256,bytes,uint8)":"5229073f","getModulesPaginated(address,uint256)":"cc2f8452","getOwners()":"a0e67e2b","getStorageAt(uint256,uint256)":"5624b25b","getThreshold()":"e75235b8","getTransactionHash(address,uint256,bytes,uint8,uint256,uint256,uint256,address,address,uint256)":"d8d11f78","isModuleEnabled(address)":"2d9ad53d","isOwner(address)":"2f54bf6e","nonce()":"affed0e0","removeOwner(address,address,uint256)":"f8dc5dd9","setFallbackHandler(address)":"f08a0323","setGuard(address)":"e19a9dd9","setModuleGuard(address)":"e068df37","setup(address[],uint256,address,bytes,address,address,uint256,address)":"b63e800d","signedMessages(bytes32)":"5ae6bd37","simulateAndRevert(address,bytes)":"b4faba09","swapOwner(address,address,address)":"e318b52b"},"id":116}