{"abi":[{"type":"constructor","inputs":[{"name":"_cyrus","type":"address","internalType":"address"},{"name":"_treasury","type":"address","internalType":"address"},{"name":"admin","type":"address","internalType":"address"}],"stateMutability":"nonpayable"},{"type":"function","name":"BOOST_AZADI","inputs":[],"outputs":[{"name":"","type":"uint256","internalType":"uint256"}],"stateMutability":"view"},{"type":"function","name":"BOOST_MEHR","inputs":[],"outputs":[{"name":"","type":"uint256","internalType":"uint256"}],"stateMutability":"view"},{"type":"function","name":"BOOST_PADSHAH","inputs":[],"outputs":[{"name":"","type":"uint256","internalType":"uint256"}],"stateMutability":"view"},{"type":"function","name":"BOOST_SHAHZADE","inputs":[],"outputs":[{"name":"","type":"uint256","internalType":"uint256"}],"stateMutability":"view"},{"type":"function","name":"BOOST_ZARRIN","inputs":[],"outputs":[{"name":"","type":"uint256","internalType":"uint256"}],"stateMutability":"view"},{"type":"function","name":"BPS_DENOMINATOR","inputs":[],"outputs":[{"name":"","type":"uint256","internalType":"uint256"}],"stateMutability":"view"},{"type":"function","name":"DEFAULT_ADMIN_ROLE","inputs":[],"outputs":[{"name":"","type":"bytes32","internalType":"bytes32"}],"stateMutability":"view"},{"type":"function","name":"DEMURRAGE_BPS","inputs":[],"outputs":[{"name":"","type":"uint256","internalType":"uint256"}],"stateMutability":"view"},{"type":"function","name":"EPOCH_DURATION","inputs":[],"outputs":[{"name":"","type":"uint256","internalType":"uint256"}],"stateMutability":"view"},{"type":"function","name":"GOVERNOR_ROLE","inputs":[],"outputs":[{"name":"","type":"bytes32","internalType":"bytes32"}],"stateMutability":"view"},{"type":"function","name":"LOCK_AZADI","inputs":[],"outputs":[{"name":"","type":"uint256","internalType":"uint256"}],"stateMutability":"view"},{"type":"function","name":"LOCK_PADSHAH","inputs":[],"outputs":[{"name":"","type":"uint256","internalType":"uint256"}],"stateMutability":"view"},{"type":"function","name":"LOCK_SHAHZADE","inputs":[],"outputs":[{"name":"","type":"uint256","internalType":"uint256"}],"stateMutability":"view"},{"type":"function","name":"LOCK_ZARRIN","inputs":[],"outputs":[{"name":"","type":"uint256","internalType":"uint256"}],"stateMutability":"view"},{"type":"function","name":"MAX_REBASE_RATE","inputs":[],"outputs":[{"name":"","type":"uint256","internalType":"uint256"}],"stateMutability":"view"},{"type":"function","name":"MINTER_ROLE","inputs":[],"outputs":[{"name":"","type":"bytes32","internalType":"bytes32"}],"stateMutability":"view"},{"type":"function","name":"MIN_REBASE_RATE","inputs":[],"outputs":[{"name":"","type":"uint256","internalType":"uint256"}],"stateMutability":"view"},{"type":"function","name":"REBASE_ROLE","inputs":[],"outputs":[{"name":"","type":"bytes32","internalType":"bytes32"}],"stateMutability":"view"},{"type":"function","name":"TIER_AZADI","inputs":[],"outputs":[{"name":"","type":"uint256","internalType":"uint256"}],"stateMutability":"view"},{"type":"function","name":"TIER_MEHR","inputs":[],"outputs":[{"name":"","type":"uint256","internalType":"uint256"}],"stateMutability":"view"},{"type":"function","name":"TIER_PADSHAH","inputs":[],"outputs":[{"name":"","type":"uint256","internalType":"uint256"}],"stateMutability":"view"},{"type":"function","name":"TIER_SHAHZADE","inputs":[],"outputs":[{"name":"","type":"uint256","internalType":"uint256"}],"stateMutability":"view"},{"type":"function","name":"TIER_ZARRIN","inputs":[],"outputs":[{"name":"","type":"uint256","internalType":"uint256"}],"stateMutability":"view"},{"type":"function","name":"allowance","inputs":[{"name":"owner","type":"address","internalType":"address"},{"name":"spender","type":"address","internalType":"address"}],"outputs":[{"name":"","type":"uint256","internalType":"uint256"}],"stateMutability":"view"},{"type":"function","name":"applyDemurrage","inputs":[{"name":"account","type":"address","internalType":"address"}],"outputs":[],"stateMutability":"nonpayable"},{"type":"function","name":"approve","inputs":[{"name":"spender","type":"address","internalType":"address"},{"name":"value","type":"uint256","internalType":"uint256"}],"outputs":[{"name":"","type":"bool","internalType":"bool"}],"stateMutability":"nonpayable"},{"type":"function","name":"balanceOf","inputs":[{"name":"account","type":"address","internalType":"address"}],"outputs":[{"name":"","type":"uint256","internalType":"uint256"}],"stateMutability":"view"},{"type":"function","name":"claimRebase","inputs":[],"outputs":[{"name":"rebased","type":"uint256","internalType":"uint256"}],"stateMutability":"nonpayable"},{"type":"function","name":"cyrus","inputs":[],"outputs":[{"name":"","type":"address","internalType":"contract IERC20"}],"stateMutability":"view"},{"type":"function","name":"decimals","inputs":[],"outputs":[{"name":"","type":"uint8","internalType":"uint8"}],"stateMutability":"pure"},{"type":"function","name":"demurrageExempt","inputs":[{"name":"","type":"address","internalType":"address"}],"outputs":[{"name":"","type":"bool","internalType":"bool"}],"stateMutability":"view"},{"type":"function","name":"effectiveBalance","inputs":[{"name":"account","type":"address","internalType":"address"}],"outputs":[{"name":"","type":"uint256","internalType":"uint256"}],"stateMutability":"view"},{"type":"function","name":"epoch","inputs":[],"outputs":[{"name":"","type":"uint256","internalType":"uint256"}],"stateMutability":"view"},{"type":"function","name":"getRoleAdmin","inputs":[{"name":"role","type":"bytes32","internalType":"bytes32"}],"outputs":[{"name":"","type":"bytes32","internalType":"bytes32"}],"stateMutability":"view"},{"type":"function","name":"getStake","inputs":[{"name":"account","type":"address","internalType":"address"}],"outputs":[{"name":"amount","type":"uint256","internalType":"uint256"},{"name":"lockEnd","type":"uint256","internalType":"uint256"},{"name":"tier","type":"uint8","internalType":"enum PARS.Tier"},{"name":"boost","type":"uint256","internalType":"uint256"}],"stateMutability":"view"},{"type":"function","name":"grantRole","inputs":[{"name":"role","type":"bytes32","internalType":"bytes32"},{"name":"account","type":"address","internalType":"address"}],"outputs":[],"stateMutability":"nonpayable"},{"type":"function","name":"hasRole","inputs":[{"name":"role","type":"bytes32","internalType":"bytes32"},{"name":"account","type":"address","internalType":"address"}],"outputs":[{"name":"","type":"bool","internalType":"bool"}],"stateMutability":"view"},{"type":"function","name":"lastEpochTime","inputs":[],"outputs":[{"name":"","type":"uint256","internalType":"uint256"}],"stateMutability":"view"},{"type":"function","name":"mint","inputs":[{"name":"to","type":"address","internalType":"address"},{"name":"amount","type":"uint256","internalType":"uint256"},{"name":"reason","type":"bytes32","internalType":"bytes32"}],"outputs":[],"stateMutability":"nonpayable"},{"type":"function","name":"name","inputs":[],"outputs":[{"name":"","type":"string","internalType":"string"}],"stateMutability":"view"},{"type":"function","name":"paused","inputs":[],"outputs":[{"name":"","type":"bool","internalType":"bool"}],"stateMutability":"view"},{"type":"function","name":"pendingRebase","inputs":[{"name":"account","type":"address","internalType":"address"}],"outputs":[{"name":"pending","type":"uint256","internalType":"uint256"}],"stateMutability":"view"},{"type":"function","name":"rebase","inputs":[],"outputs":[],"stateMutability":"nonpayable"},{"type":"function","name":"rebaseRate","inputs":[],"outputs":[{"name":"","type":"uint256","internalType":"uint256"}],"stateMutability":"view"},{"type":"function","name":"redeem","inputs":[{"name":"amount","type":"uint256","internalType":"uint256"}],"outputs":[{"name":"cyrusReturned","type":"uint256","internalType":"uint256"}],"stateMutability":"nonpayable"},{"type":"function","name":"renounceRole","inputs":[{"name":"role","type":"bytes32","internalType":"bytes32"},{"name":"callerConfirmation","type":"address","internalType":"address"}],"outputs":[],"stateMutability":"nonpayable"},{"type":"function","name":"revokeRole","inputs":[{"name":"role","type":"bytes32","internalType":"bytes32"},{"name":"account","type":"address","internalType":"address"}],"outputs":[],"stateMutability":"nonpayable"},{"type":"function","name":"setDemurrageExempt","inputs":[{"name":"account","type":"address","internalType":"address"},{"name":"exempt","type":"bool","internalType":"bool"}],"outputs":[],"stateMutability":"nonpayable"},{"type":"function","name":"setPaused","inputs":[{"name":"_paused","type":"bool","internalType":"bool"}],"outputs":[],"stateMutability":"nonpayable"},{"type":"function","name":"setRebaseRate","inputs":[{"name":"newRate","type":"uint256","internalType":"uint256"}],"outputs":[],"stateMutability":"nonpayable"},{"type":"function","name":"setTreasury","inputs":[{"name":"newTreasury","type":"address","internalType":"address"}],"outputs":[],"stateMutability":"nonpayable"},{"type":"function","name":"stake","inputs":[{"name":"amount","type":"uint256","internalType":"uint256"},{"name":"tier","type":"uint8","internalType":"enum PARS.Tier"}],"outputs":[{"name":"parsMinted","type":"uint256","internalType":"uint256"}],"stateMutability":"nonpayable"},{"type":"function","name":"stakes","inputs":[{"name":"","type":"address","internalType":"address"}],"outputs":[{"name":"amount","type":"uint256","internalType":"uint256"},{"name":"lockEnd","type":"uint256","internalType":"uint256"},{"name":"lastRebase","type":"uint256","internalType":"uint256"},{"name":"pendingRebase","type":"uint256","internalType":"uint256"},{"name":"tier","type":"uint8","internalType":"enum PARS.Tier"}],"stateMutability":"view"},{"type":"function","name":"supportsInterface","inputs":[{"name":"interfaceId","type":"bytes4","internalType":"bytes4"}],"outputs":[{"name":"","type":"bool","internalType":"bool"}],"stateMutability":"view"},{"type":"function","name":"symbol","inputs":[],"outputs":[{"name":"","type":"string","internalType":"string"}],"stateMutability":"view"},{"type":"function","name":"tierOf","inputs":[{"name":"account","type":"address","internalType":"address"}],"outputs":[{"name":"tier","type":"uint8","internalType":"enum PARS.Tier"},{"name":"boost","type":"uint256","internalType":"uint256"}],"stateMutability":"view"},{"type":"function","name":"totalStaked","inputs":[],"outputs":[{"name":"","type":"uint256","internalType":"uint256"}],"stateMutability":"view"},{"type":"function","name":"totalSupply","inputs":[],"outputs":[{"name":"","type":"uint256","internalType":"uint256"}],"stateMutability":"view"},{"type":"function","name":"transfer","inputs":[{"name":"to","type":"address","internalType":"address"},{"name":"value","type":"uint256","internalType":"uint256"}],"outputs":[{"name":"","type":"bool","internalType":"bool"}],"stateMutability":"nonpayable"},{"type":"function","name":"transferFrom","inputs":[{"name":"from","type":"address","internalType":"address"},{"name":"to","type":"address","internalType":"address"},{"name":"value","type":"uint256","internalType":"uint256"}],"outputs":[{"name":"","type":"bool","internalType":"bool"}],"stateMutability":"nonpayable"},{"type":"function","name":"treasury","inputs":[],"outputs":[{"name":"","type":"address","internalType":"address"}],"stateMutability":"view"},{"type":"function","name":"unstake","inputs":[{"name":"amount","type":"uint256","internalType":"uint256"}],"outputs":[{"name":"cyrusReturned","type":"uint256","internalType":"uint256"}],"stateMutability":"nonpayable"},{"type":"event","name":"Approval","inputs":[{"name":"owner","type":"address","indexed":true,"internalType":"address"},{"name":"spender","type":"address","indexed":true,"internalType":"address"},{"name":"value","type":"uint256","indexed":false,"internalType":"uint256"}],"anonymous":false},{"type":"event","name":"DemurrageApplied","inputs":[{"name":"account","type":"address","indexed":true,"internalType":"address"},{"name":"burned","type":"uint256","indexed":false,"internalType":"uint256"}],"anonymous":false},{"type":"event","name":"DemurrageExemptionSet","inputs":[{"name":"account","type":"address","indexed":true,"internalType":"address"},{"name":"exempt","type":"bool","indexed":false,"internalType":"bool"}],"anonymous":false},{"type":"event","name":"Minted","inputs":[{"name":"to","type":"address","indexed":true,"internalType":"address"},{"name":"amount","type":"uint256","indexed":false,"internalType":"uint256"},{"name":"reason","type":"bytes32","indexed":true,"internalType":"bytes32"}],"anonymous":false},{"type":"event","name":"Paused","inputs":[{"name":"status","type":"bool","indexed":false,"internalType":"bool"}],"anonymous":false},{"type":"event","name":"RebaseClaimed","inputs":[{"name":"user","type":"address","indexed":true,"internalType":"address"},{"name":"amount","type":"uint256","indexed":false,"internalType":"uint256"}],"anonymous":false},{"type":"event","name":"RebaseRateUpdated","inputs":[{"name":"oldRate","type":"uint256","indexed":false,"internalType":"uint256"},{"name":"newRate","type":"uint256","indexed":false,"internalType":"uint256"}],"anonymous":false},{"type":"event","name":"Rebased","inputs":[{"name":"epoch","type":"uint256","indexed":false,"internalType":"uint256"},{"name":"totalRebased","type":"uint256","indexed":false,"internalType":"uint256"},{"name":"rate","type":"uint256","indexed":false,"internalType":"uint256"}],"anonymous":false},{"type":"event","name":"RoleAdminChanged","inputs":[{"name":"role","type":"bytes32","indexed":true,"internalType":"bytes32"},{"name":"previousAdminRole","type":"bytes32","indexed":true,"internalType":"bytes32"},{"name":"newAdminRole","type":"bytes32","indexed":true,"internalType":"bytes32"}],"anonymous":false},{"type":"event","name":"RoleGranted","inputs":[{"name":"role","type":"bytes32","indexed":true,"internalType":"bytes32"},{"name":"account","type":"address","indexed":true,"internalType":"address"},{"name":"sender","type":"address","indexed":true,"internalType":"address"}],"anonymous":false},{"type":"event","name":"RoleRevoked","inputs":[{"name":"role","type":"bytes32","indexed":true,"internalType":"bytes32"},{"name":"account","type":"address","indexed":true,"internalType":"address"},{"name":"sender","type":"address","indexed":true,"internalType":"address"}],"anonymous":false},{"type":"event","name":"Staked","inputs":[{"name":"user","type":"address","indexed":true,"internalType":"address"},{"name":"amount","type":"uint256","indexed":false,"internalType":"uint256"},{"name":"tier","type":"uint8","indexed":false,"internalType":"enum PARS.Tier"},{"name":"lockEnd","type":"uint256","indexed":false,"internalType":"uint256"}],"anonymous":false},{"type":"event","name":"TierUpgraded","inputs":[{"name":"user","type":"address","indexed":true,"internalType":"address"},{"name":"from","type":"uint8","indexed":false,"internalType":"enum PARS.Tier"},{"name":"to","type":"uint8","indexed":false,"internalType":"enum PARS.Tier"}],"anonymous":false},{"type":"event","name":"Transfer","inputs":[{"name":"from","type":"address","indexed":true,"internalType":"address"},{"name":"to","type":"address","indexed":true,"internalType":"address"},{"name":"value","type":"uint256","indexed":false,"internalType":"uint256"}],"anonymous":false},{"type":"event","name":"TreasuryUpdated","inputs":[{"name":"oldTreasury","type":"address","indexed":true,"internalType":"address"},{"name":"newTreasury","type":"address","indexed":true,"internalType":"address"}],"anonymous":false},{"type":"event","name":"Unstaked","inputs":[{"name":"user","type":"address","indexed":true,"internalType":"address"},{"name":"amount","type":"uint256","indexed":false,"internalType":"uint256"},{"name":"cyrusReturned","type":"uint256","indexed":false,"internalType":"uint256"}],"anonymous":false},{"type":"error","name":"AccessControlBadConfirmation","inputs":[]},{"type":"error","name":"AccessControlUnauthorizedAccount","inputs":[{"name":"account","type":"address","internalType":"address"},{"name":"neededRole","type":"bytes32","internalType":"bytes32"}]},{"type":"error","name":"DowngradeTier","inputs":[]},{"type":"error","name":"ERC20InsufficientAllowance","inputs":[{"name":"spender","type":"address","internalType":"address"},{"name":"allowance","type":"uint256","internalType":"uint256"},{"name":"needed","type":"uint256","internalType":"uint256"}]},{"type":"error","name":"ERC20InsufficientBalance","inputs":[{"name":"sender","type":"address","internalType":"address"},{"name":"balance","type":"uint256","internalType":"uint256"},{"name":"needed","type":"uint256","internalType":"uint256"}]},{"type":"error","name":"ERC20InvalidApprover","inputs":[{"name":"approver","type":"address","internalType":"address"}]},{"type":"error","name":"ERC20InvalidReceiver","inputs":[{"name":"receiver","type":"address","internalType":"address"}]},{"type":"error","name":"ERC20InvalidSender","inputs":[{"name":"sender","type":"address","internalType":"address"}]},{"type":"error","name":"ERC20InvalidSpender","inputs":[{"name":"spender","type":"address","internalType":"address"}]},{"type":"error","name":"EpochNotReady","inputs":[]},{"type":"error","name":"InsufficientBalance","inputs":[]},{"type":"error","name":"InvalidRebaseRate","inputs":[]},{"type":"error","name":"InvalidTier","inputs":[]},{"type":"error","name":"IsPaused","inputs":[]},{"type":"error","name":"LockNotExpired","inputs":[]},{"type":"error","name":"ReentrancyGuardReentrantCall","inputs":[]},{"type":"error","name":"SafeERC20FailedOperation","inputs":[{"name":"token","type":"address","internalType":"address"}]},{"type":"error","name":"ZeroAddress","inputs":[]},{"type":"error","name":"ZeroAmount","inputs":[]}],"bytecode":{"object":"0x60a060405234801561000f575f5ffd5b506040516129f33803806129f383398101604081905261002e91610244565b6040518060400160405280600f81526020016e5041525320476f7665726e616e636560881b815250604051806040016040528060048152602001635041525360e01b8152508160039081610082919061031c565b50600461008f828261031c565b50506001600555506001600160a01b03831615806100b457506001600160a01b038216155b806100c657506001600160a01b038116155b156100e45760405163d92e233d60e01b815260040160405180910390fd5b6001600160a01b03838116608052600b80546001600160a01b031916918416919091179055601e6007556101185f8261017c565b506101437f2cb8fee3430f011f8ea5df36a120dd5a293aa25c9ca88cc51159a94f41f768bb8261017c565b5061016e7f7935bd0ae54bc31f548c14dba4d37c5c64b3f8ca900cb468fb8abd54d5894f558261017c565b505042600955506103d69050565b5f8281526006602090815260408083206001600160a01b038516845290915281205460ff16610220575f8381526006602090815260408083206001600160a01b03861684529091529020805460ff191660011790556101d83390565b6001600160a01b0316826001600160a01b0316847f2f8788117e7eff1d82e926ec794901d17c78024a50270940304540a733656f0d60405160405180910390a4506001610223565b505f5b92915050565b80516001600160a01b038116811461023f575f5ffd5b919050565b5f5f5f60608486031215610256575f5ffd5b61025f84610229565b925061026d60208501610229565b915061027b60408501610229565b90509250925092565b634e487b7160e01b5f52604160045260245ffd5b600181811c908216806102ac57607f821691505b6020821081036102ca57634e487b7160e01b5f52602260045260245ffd5b50919050565b601f82111561031757805f5260205f20601f840160051c810160208510156102f55750805b601f840160051c820191505b81811015610314575f8155600101610301565b50505b505050565b81516001600160401b0381111561033557610335610284565b610349816103438454610298565b846102d0565b6020601f82116001811461037b575f83156103645750848201515b5f19600385901b1c1916600184901b178455610314565b5f84815260208120601f198516915b828110156103aa578785015182556020948501946001909201910161038a565b50848210156103c757868401515f19600387901b60f8161c191681555b50505050600190811b01905550565b6080516125f06104035f395f8181610630015281816109e201528181610f1f015261153101526125f05ff3fe608060405234801561000f575f5ffd5b50600436106103a9575f3560e01c8063817b1cd2116101ea578063b4cd143a11610114578063dd62ed3e116100a9578063e1a4521811610079578063e1a45218146106ca578063e683da8314610807578063edaefc311461081a578063f0f4426014610841575f5ffd5b8063dd62ed3e146107ab578063de588aa0146107e3578063e0f4046e146107eb578063e14f2020146107f4575f5ffd5b8063ccc57490116100e4578063ccc574901461074a578063d53913931461075e578063d547741f14610785578063db006a7514610798575f5ffd5b8063b4cd143a14610702578063c193f5411461070a578063c65d15031461071d578063c8f74bb814610729575f5ffd5b80639b4eaff31161018a578063a9059cbb1161015a578063a9059cbb146106d3578063af14052c146106e6578063b3528cc5146106ee578063b4889635146106f7575f5ffd5b80639b4eaff3146106a7578063a217fddf146106ba578063a70b9f0c146106c1578063a7279d39146106ca575f5ffd5b8063900cf0cf116101c5578063900cf0cf1461067857806391d148541461068157806395d89b411461069457806399283f8a1461069c575f5ffd5b8063817b1cd21461065c57806386c2e67c1461066557806389c614b81461066f575f5ffd5b8063313ce567116102d657806361d027b31161026b5780637a7664601161023b5780637a766460146105ff5780637cb95d00146106225780637d36f02d1461062b5780637fccb48d14610652575f5ffd5b806361d027b314610598578063658a3c9b146105c357806367f2e5ac146105cf57806370a08231146105d7575f5ffd5b8063495e4943116102a6578063495e49431461056e5780635703e03e1461057a578063598dd676146105825780635c975abb1461058b575f5ffd5b8063313ce5671461051f578063313d57851461052e578063361ad1da1461053957806336568abe1461055b575f5ffd5b806316c38b3c1161034c57806323b872dd1161031c57806323b872dd146104c4578063248a9ca3146104d75780632e17de78146104f95780632f2ff15d1461050c575f5ffd5b806316c38b3c1461048b57806318160ddd146104a05780631e458bee146104a8578063206f967b146104bb575f5ffd5b806310087fb11161038757806310087fb1146103fd5780631189c85e1461041e57806316934fc41461042857806316a398f714610478575f5ffd5b806301ffc9a7146103ad57806306fdde03146103d5578063095ea7b3146103ea575b5f5ffd5b6103c06103bb3660046121f4565b610854565b60405190151581526020015b60405180910390f35b6103dd61088a565b6040516103cc919061221b565b6103c06103f8366004612266565b61091a565b61041061040b36600461228e565b610931565b6040519081526020016103cc565b6104106276a70081565b6104676104363660046122bf565b600c6020525f9081526040902080546001820154600283015460038401546004909401549293919290919060ff1685565b6040516103cc95949392919061230c565b6104106104863660046122bf565b610bc5565b61049e610499366004612344565b610cce565b005b600254610410565b61049e6104b636600461235d565b610d2d565b6104106130d481565b6103c06104d236600461238d565b610e1d565b6104106104e53660046123c7565b5f9081526006602052604090206001015490565b6104106105073660046123c7565b610e42565b61049e61051a3660046123de565b610fd9565b604051600681526020016103cc565b610410633b9aca0081565b6103c06105473660046122bf565b600f6020525f908152604090205460ff1681565b61049e6105693660046123de565b611003565b61041064174876e80081565b610410601481565b610410614e2081565b600e546103c09060ff1681565b600b546105ab906001600160a01b031681565b6040516001600160a01b0390911681526020016103cc565b6104106402540be40081565b610410600581565b6104106105e53660046122bf565b6001600160a01b03165f9081526020819052604090205490565b61061261060d3660046122bf565b61103b565b6040516103cc9493929190612408565b61041060075481565b6105ab7f000000000000000000000000000000000000000000000000000000000000000081565b61041062278d0081565b610410600a5481565b61041062093a8081565b61041060095481565b61041060085481565b6103c061068f3660046123de565b6110f6565b6103dd611120565b6104106301e1338081565b61049e6106b53660046123c7565b61112f565b6104105f81565b61041061708081565b61041061271081565b6103c06106e1366004612266565b6111b5565b61049e6111c2565b610410613a9881565b6104106305f5e10081565b61041061130f565b6104106107183660046122bf565b611330565b61041064e8d4a5100081565b61073c6107373660046122bf565b61144c565b6040516103cc929190612432565b6104105f51602061259b5f395f51905f5281565b6104107f9f2df0fed2c77648de5860a4cc508cd0818c85b8b8a1ab4ceeef8d981c8956a681565b61049e6107933660046123de565b61147b565b6104106107a63660046123c7565b61149f565b6104106107b936600461244d565b6001600160a01b039182165f90815260016020908152604080832093909416825291909152205490565b610410602881565b610410612af881565b61049e6108023660046122bf565b611563565b61049e610815366004612475565b61156f565b6104107f2cb8fee3430f011f8ea5df36a120dd5a293aa25c9ca88cc51159a94f41f768bb81565b61049e61084f3660046122bf565b6115e5565b5f6001600160e01b03198216637965db0b60e01b148061088457506301ffc9a760e01b6001600160e01b03198316145b92915050565b6060600380546108999061249d565b80601f01602080910402602001604051908101604052809291908181526020018280546108c59061249d565b80156109105780601f106108e757610100808354040283529160200191610910565b820191905f5260205f20905b8154815290600101906020018083116108f357829003601f168201915b5050505050905090565b5f3361092781858561167f565b5060019392505050565b5f61093a61168c565b600e5460ff161561095e57604051631309a56360e01b815260040160405180910390fd5b825f0361097e57604051631f2a200560e01b815260040160405180910390fd5b5f826005811115610991576109916122d8565b036109af5760405163e142361760e01b815260040160405180910390fd5b335f908152600c60205260408120546109c99085906124e9565b90506109d583826116b6565b610a0a6001600160a01b037f0000000000000000000000000000000000000000000000000000000000000000163330876116e3565b335f908152600c60205260409020600381015415610a2d57610a2b3361174a565b505b5f610a3785611870565b90505f610a4482426124e9565b90508260010154811015610a59575060018201545b600483015460ff16806005811115610a7357610a736122d8565b876005811115610a8557610a856122d8565b1115610ad357336001600160a01b03167fcbbf00b5f55f1857f9362f521999f79036413e420d1b236d6bc143af30db731a8289604051610ac69291906124fc565b60405180910390a2610b16565b806005811115610ae557610ae56122d8565b876005811115610af757610af76122d8565b1015610b16576040516352fee86360e01b815260040160405180910390fd5b8484556001808501839055426002860155600485018054899260ff1990911690836005811115610b4857610b486122d8565b021790555087600a5f828254610b5e91906124e9565b90915550889650610b7190503387611905565b336001600160a01b03167fbde7f0ba1630d25515c7ab99ba47d5640b7ffb4c673b2a5464ae679195589298898985604051610bae93929190612517565b60405180910390a250505050506108846001600555565b6001600160a01b0381165f908152600c6020908152604080832054918390528220548290610bf4908390612539565b9050805f03610c04575092915050565b6001600160a01b0384165f908152600d60209081526040808320815180830190925280548252600101549181018290529103610c44578181524260208201525b5f62015180826020015142610c599190612539565b610c63919061254c565b90508015610cba575f5b8181108015610c7d575061016d81105b15610cb857612710610c90600582612539565b610c9a908661256b565b610ca4919061254c565b935080610cb081612582565b915050610c6d565b505b610cc483856124e9565b9695505050505050565b5f51602061259b5f395f51905f52610ce581611942565b600e805460ff19168315159081179091556040519081527f0e2fb031ee032dc02d8011dc50b816eb450cf856abd8261680dac74f72165bd29060200160405180910390a15050565b7f9f2df0fed2c77648de5860a4cc508cd0818c85b8b8a1ab4ceeef8d981c8956a6610d5781611942565b6001600160a01b038416610d7e5760405163d92e233d60e01b815260040160405180910390fd5b825f03610d9e57604051631f2a200560e01b815260040160405180910390fd5b610da88484611905565b6001600160a01b0384165f908152600d602052604081206001810154909103610dd2574260018201555b82856001600160a01b03167fc263b302aec62d29105026245f19e16f8e0137066ccd4a8bd941f716bd4096bb86604051610e0e91815260200190565b60405180910390a35050505050565b5f33610e2a85828561194c565b610e358585856119c1565b60019150505b9392505050565b5f610e4b61168c565b815f03610e6b57604051631f2a200560e01b815260040160405180910390fd5b335f908152600c602052604090208054831115610e9b57604051631e9acf1760e31b815260040160405180910390fd5b8060010154421015610ec05760405163342ad40160e11b815260040160405180910390fd5b600381015415610ed557610ed33361174a565b505b82815f015f828254610ee79190612539565b9250508190555082600a5f828254610eff9190612539565b90915550610f0f90503384611a1e565b829150610f466001600160a01b037f0000000000000000000000000000000000000000000000000000000000000000163384611a52565b6004810154610f579060ff16611a83565b81541015610f8e578054610f6a90611b3b565b60048201805460ff19166001836005811115610f8857610f886122d8565b02179055505b604080518481526020810184905233917f7fc4727e062e336010f2c282598ef5f14facb3de68cf8195c2f23e1454b2b74e910160405180910390a250610fd46001600555565b919050565b5f82815260066020526040902060010154610ff381611942565b610ffd8383611b9e565b50505050565b6001600160a01b038116331461102c5760405163334bd91960e11b815260040160405180910390fd5b6110368282611c2f565b505050565b5f5f5f5f5f600c5f876001600160a01b03166001600160a01b031681526020019081526020015f206040518060a00160405290815f8201548152602001600182015481526020016002820154815260200160038201548152602001600482015f9054906101000a900460ff1660058111156110b8576110b86122d8565b60058111156110c9576110c96122d8565b90525080516020820151608083015192935090916110e681611c9a565b9450945094509450509193509193565b5f9182526006602090815260408084206001600160a01b0393909316845291905290205460ff1690565b6060600480546108999061249d565b5f51602061259b5f395f51905f5261114681611942565b60148210806111555750602882115b1561117357604051637280c63d60e01b815260040160405180910390fd5b60075460408051918252602082018490527fa2f2d0702c5a39e6322d80dd130ee6ab1c02db0998b40f7f2d83847f0d1289fc910160405180910390a150600755565b5f336109278185856119c1565b6111ca61168c565b600e5460ff16156111ee57604051631309a56360e01b815260040160405180910390fd5b6170806009546111fe91906124e9565b42101561121e576040516356212c7760e11b815260040160405180910390fd5b5f617080600954426112309190612539565b61123a919061254c565b9050805f0361125c576040516356212c7760e11b815260040160405180910390fd5b8060085f82825461126d91906124e9565b9091555061127f90506170808261256b565b60095461128c91906124e9565b600955600754600a545f916127109184916112a69161256b565b6112b0919061256b565b6112ba919061254c565b60085460075460408051928352602083018490528201529091507fd1a8a452d776b1b6802824ca2e8489c6448e2cb0963f552a9a19ab4ae064ca589060600160405180910390a1505061130d6001600555565b565b5f61131861168c565b6113213361174a565b905061132d6001600555565b90565b6001600160a01b0381165f908152600c60209081526040808320815160a0810183528154815260018201549381019390935260028101549183019190915260038101546060830152600481015483929190608083019060ff16600581111561139a5761139a6122d8565b60058111156113ab576113ab6122d8565b90525080519091505f036113c157505f92915050565b806060015191505f6170808260400151426113dc9190612539565b6113e6919061254c565b90508015611445575f6113fc8360800151611c9a565b90505f61140b6127108061256b565b6007548551849161141b9161256b565b611425919061256b565b61142f919061254c565b905061143b838261256b565b610cc490866124e9565b5050919050565b6001600160a01b0381165f908152600c602052604081206004015460ff169061147482611c9a565b9050915091565b5f8281526006602052604090206001015461149581611942565b610ffd8383611c2f565b5f6114a861168c565b815f036114c857604051631f2a200560e01b815260040160405180910390fd5b6114d133611d4e565b335f908152600c6020908152604080832054918390528220546114f49190612539565b90508083111561151757604051631e9acf1760e31b815260040160405180910390fd5b6115213384611a1e565b8291506115586001600160a01b037f0000000000000000000000000000000000000000000000000000000000000000163384611a52565b50610fd46001600555565b61156c81611d4e565b50565b5f51602061259b5f395f51905f5261158681611942565b6001600160a01b0383165f818152600f6020908152604091829020805460ff191686151590811790915591519182527fe29ccad9a8699e9b5556c0056b79ddbde9c9ad4b6c5d5a3c394dc2e2fe68885e910160405180910390a2505050565b5f51602061259b5f395f51905f526115fc81611942565b6001600160a01b0382166116235760405163d92e233d60e01b815260040160405180910390fd5b600b546040516001600160a01b038085169216907f4ab5be82436d353e61ca18726e984e561f5c1cc7c6d38b29d2553c790434705a905f90a350600b80546001600160a01b0319166001600160a01b0392909216919091179055565b6110368383836001611ee0565b6002600554036116af57604051633ee5aeb560e01b815260040160405180910390fd5b6002600555565b5f6116c083611a83565b9050808210156110365760405163e142361760e01b815260040160405180910390fd5b6040516001600160a01b038481166024830152838116604483015260648201839052610ffd9186918216906323b872dd906084015b604051602081830303815290604052915060e01b6020820180516001600160e01b038381831617835250505050611fb2565b6001600160a01b0381165f908152600c602052604081208054820361177157505f92915050565b5f6170808260020154426117859190612539565b61178f919061254c565b905080156118035760048201545f906117aa9060ff16611c9a565b90505f6117b96127108061256b565b600754855484916117c99161256b565b6117d3919061256b565b6117dd919061254c565b90506117e9838261256b565b846003015f8282546117fb91906124e9565b909155505050505b600382015492508215611445575f60038301554260028301556118268484611905565b836001600160a01b03167f70ca8e2d8892a81ae3c8c9b7ecd4bd53be644f4d333622fb3b49a860fc0406528460405161186191815260200190565b60405180910390a25050919050565b5f6005826005811115611885576118856122d8565b0361189557506301e13380919050565b60048260058111156118a9576118a96122d8565b036118b857506276a700919050565b60038260058111156118cc576118cc6122d8565b036118db575062278d00919050565b60028260058111156118ef576118ef6122d8565b036118fe575062093a80919050565b505f919050565b6001600160a01b0382166119335760405163ec442f0560e01b81525f60048201526024015b60405180910390fd5b61193e5f838361201e565b5050565b61156c8133612095565b6001600160a01b038381165f908152600160209081526040808320938616835292905220545f198114610ffd57818110156119b357604051637dc7a0d960e11b81526001600160a01b0384166004820152602481018290526044810183905260640161192a565b610ffd84848484035f611ee0565b6001600160a01b0383166119ea57604051634b637e8f60e11b81525f600482015260240161192a565b6001600160a01b038216611a135760405163ec442f0560e01b81525f600482015260240161192a565b61103683838361201e565b6001600160a01b038216611a4757604051634b637e8f60e11b81525f600482015260240161192a565b61193e825f8361201e565b6040516001600160a01b0383811660248301526044820183905261103691859182169063a9059cbb90606401611718565b5f6005826005811115611a9857611a986122d8565b03611aa9575064e8d4a51000919050565b6004826005811115611abd57611abd6122d8565b03611ace575064174876e800919050565b6003826005811115611ae257611ae26122d8565b03611af357506402540be400919050565b6002826005811115611b0757611b076122d8565b03611b175750633b9aca00919050565b6001826005811115611b2b57611b2b6122d8565b036118fe57506305f5e100919050565b5f64e8d4a510008210611b5057506005919050565b64174876e8008210611b6457506004919050565b6402540be4008210611b7857506003919050565b633b9aca008210611b8b57506002919050565b6305f5e10082106118fe57506001919050565b5f611ba983836110f6565b611c28575f8381526006602090815260408083206001600160a01b03861684529091529020805460ff19166001179055611be03390565b6001600160a01b0316826001600160a01b0316847f2f8788117e7eff1d82e926ec794901d17c78024a50270940304540a733656f0d60405160405180910390a4506001610884565b505f610884565b5f611c3a83836110f6565b15611c28575f8381526006602090815260408083206001600160a01b0386168085529252808320805460ff1916905551339286917ff6391f5c32d9c69d2a47ea670b442974b53935d1edc7fd64eb21e047a839171b9190a4506001610884565b5f6005826005811115611caf57611caf6122d8565b03611cbd5750614e20919050565b6004826005811115611cd157611cd16122d8565b03611cdf5750613a98919050565b6003826005811115611cf357611cf36122d8565b03611d0157506130d4919050565b6002826005811115611d1557611d156122d8565b03611d235750612af8919050565b6001826005811115611d3757611d376122d8565b03611d455750612710919050565b50612710919050565b6001600160a01b0381165f908152600f602052604090205460ff1615611d715750565b6001600160a01b0381165f908152600c6020908152604080832054918390528220549091828211611da2575f611dac565b611dac8383612539565b9050805f03611dbb5750505050565b6001600160a01b0384165f908152600d602052604081206001810154909103611ded5790815542600190910155505050565b5f62015180826001015442611e029190612539565b611e0c919061254c565b9050805f03611e1d57505050505050565b426001830155825f5b8281108015611e36575061016d81105b15611e7157612710611e49600582612539565b611e53908461256b565b611e5d919061254c565b915080611e6981612582565b915050611e26565b505f611e7d8286612539565b82855590508015611ed657611e928882611a1e565b876001600160a01b03167f92dbe9af03191016deca349de5f6439fc2d722818b96f7b02948d780a913e8e582604051611ecd91815260200190565b60405180910390a25b5050505050505050565b6001600160a01b038416611f095760405163e602df0560e01b81525f600482015260240161192a565b6001600160a01b038316611f3257604051634a1406b160e11b81525f600482015260240161192a565b6001600160a01b038085165f9081526001602090815260408083209387168352929052208290558015610ffd57826001600160a01b0316846001600160a01b03167f8c5be1e5ebec7d5bd14f71427d1e84f3dd0314c0f7b2291e5b200ac8c7c3b92584604051611fa491815260200190565b60405180910390a350505050565b5f5f60205f8451602086015f885af180611fd1576040513d5f823e3d81fd5b50505f513d91508115611fe8578060011415611ff5565b6001600160a01b0384163b155b15610ffd57604051635274afe760e01b81526001600160a01b038516600482015260240161192a565b6001600160a01b038316156120365761203683611d4e565b6120418383836120ce565b6001600160a01b0382161580159061206157506001600160a01b03831615155b15611036576001600160a01b0382165f908152600d602052604081206001810154909103610ffd5742600182015550505050565b61209f82826110f6565b61193e5760405163e2517d3f60e01b81526001600160a01b03821660048201526024810183905260440161192a565b6001600160a01b0383166120f8578060025f8282546120ed91906124e9565b909155506121689050565b6001600160a01b0383165f908152602081905260409020548181101561214a5760405163391434e360e21b81526001600160a01b0385166004820152602481018290526044810183905260640161192a565b6001600160a01b0384165f9081526020819052604090209082900390555b6001600160a01b038216612184576002805482900390556121a2565b6001600160a01b0382165f9081526020819052604090208054820190555b816001600160a01b0316836001600160a01b03167fddf252ad1be2c89b69c2b068fc378daa952ba7f163c4a11628f55a4df523b3ef836040516121e791815260200190565b60405180910390a3505050565b5f60208284031215612204575f5ffd5b81356001600160e01b031981168114610e3b575f5ffd5b602081525f82518060208401528060208501604085015e5f604082850101526040601f19601f83011684010191505092915050565b80356001600160a01b0381168114610fd4575f5ffd5b5f5f60408385031215612277575f5ffd5b61228083612250565b946020939093013593505050565b5f5f6040838503121561229f575f5ffd5b823591506020830135600681106122b4575f5ffd5b809150509250929050565b5f602082840312156122cf575f5ffd5b610e3b82612250565b634e487b7160e01b5f52602160045260245ffd5b6006811061230857634e487b7160e01b5f52602160045260245ffd5b9052565b5f60a082019050868252856020830152846040830152836060830152610cc460808301846122ec565b80358015158114610fd4575f5ffd5b5f60208284031215612354575f5ffd5b610e3b82612335565b5f5f5f6060848603121561236f575f5ffd5b61237884612250565b95602085013595506040909401359392505050565b5f5f5f6060848603121561239f575f5ffd5b6123a884612250565b92506123b660208501612250565b929592945050506040919091013590565b5f602082840312156123d7575f5ffd5b5035919050565b5f5f604083850312156123ef575f5ffd5b823591506123ff60208401612250565b90509250929050565b848152602081018490526080810161242360408301856122ec565b82606083015295945050505050565b6040810161244082856122ec565b8260208301529392505050565b5f5f6040838503121561245e575f5ffd5b61246783612250565b91506123ff60208401612250565b5f5f60408385031215612486575f5ffd5b61248f83612250565b91506123ff60208401612335565b600181811c908216806124b157607f821691505b6020821081036124cf57634e487b7160e01b5f52602260045260245ffd5b50919050565b634e487b7160e01b5f52601160045260245ffd5b80820180821115610884576108846124d5565b6040810161250a82856122ec565b610e3b60208301846122ec565b8381526060810161252b60208301856122ec565b826040830152949350505050565b81810381811115610884576108846124d5565b5f8261256657634e487b7160e01b5f52601260045260245ffd5b500490565b8082028115828204841417610884576108846124d5565b5f60018201612593576125936124d5565b506001019056fe7935bd0ae54bc31f548c14dba4d37c5c64b3f8ca900cb468fb8abd54d5894f55a264697066735822122056991ed40aa5803144cbb410b84a02a327da32648b6d49994737215906bd7fab64736f6c634300081f0033","linkReferences":{}},"methodIdentifiers":{"BOOST_AZADI()":"206f967b","BOOST_MEHR()":"a7279d39","BOOST_PADSHAH()":"598dd676","BOOST_SHAHZADE()":"b3528cc5","BOOST_ZARRIN()":"e0f4046e","BPS_DENOMINATOR()":"e1a45218","DEFAULT_ADMIN_ROLE()":"a217fddf","DEMURRAGE_BPS()":"67f2e5ac","EPOCH_DURATION()":"a70b9f0c","GOVERNOR_ROLE()":"ccc57490","LOCK_AZADI()":"7fccb48d","LOCK_PADSHAH()":"99283f8a","LOCK_SHAHZADE()":"1189c85e","LOCK_ZARRIN()":"86c2e67c","MAX_REBASE_RATE()":"de588aa0","MINTER_ROLE()":"d5391393","MIN_REBASE_RATE()":"5703e03e","REBASE_ROLE()":"edaefc31","TIER_AZADI()":"658a3c9b","TIER_MEHR()":"b4889635","TIER_PADSHAH()":"c65d1503","TIER_SHAHZADE()":"495e4943","TIER_ZARRIN()":"313d5785","allowance(address,address)":"dd62ed3e","applyDemurrage(address)":"e14f2020","approve(address,uint256)":"095ea7b3","balanceOf(address)":"70a08231","claimRebase()":"b4cd143a","cyrus()":"7d36f02d","decimals()":"313ce567","demurrageExempt(address)":"361ad1da","effectiveBalance(address)":"16a398f7","epoch()":"900cf0cf","getRoleAdmin(bytes32)":"248a9ca3","getStake(address)":"7a766460","grantRole(bytes32,address)":"2f2ff15d","hasRole(bytes32,address)":"91d14854","lastEpochTime()":"89c614b8","mint(address,uint256,bytes32)":"1e458bee","name()":"06fdde03","paused()":"5c975abb","pendingRebase(address)":"c193f541","rebase()":"af14052c","rebaseRate()":"7cb95d00","redeem(uint256)":"db006a75","renounceRole(bytes32,address)":"36568abe","revokeRole(bytes32,address)":"d547741f","setDemurrageExempt(address,bool)":"e683da83","setPaused(bool)":"16c38b3c","setRebaseRate(uint256)":"9b4eaff3","setTreasury(address)":"f0f44260","stake(uint256,uint8)":"10087fb1","stakes(address)":"16934fc4","supportsInterface(bytes4)":"01ffc9a7","symbol()":"95d89b41","tierOf(address)":"c8f74bb8","totalStaked()":"817b1cd2","totalSupply()":"18160ddd","transfer(address,uint256)":"a9059cbb","transferFrom(address,address,uint256)":"23b872dd","treasury()":"61d027b3","unstake(uint256)":"2e17de78"},"id":153}